{
	"contracts/payable.sol": {
		"PayableContract": {
			"abi": [
				{
					"inputs": [],
					"name": "getString",
					"outputs": [
						{
							"internalType": "string",
							"name": "",
							"type": "string"
						}
					],
					"stateMutability": "view",
					"type": "function"
				},
				{
					"inputs": [
						{
							"internalType": "string",
							"name": "param",
							"type": "string"
						}
					],
					"name": "sendMoney",
					"outputs": [],
					"stateMutability": "payable",
					"type": "function"
				}
			],
			"devdoc": {
				"kind": "dev",
				"methods": {},
				"version": 1
			},
			"evm": {
				"assembly": "    /* \"contracts/payable.sol\":25:363  contract PayableContract{... */\n  mstore(0x40, 0x80)\n  callvalue\n  dup1\n  iszero\n  tag_1\n  jumpi\n  0x00\n  dup1\n  revert\ntag_1:\n  pop\n  dataSize(sub_0)\n  dup1\n  dataOffset(sub_0)\n  0x00\n  codecopy\n  0x00\n  return\nstop\n\nsub_0: assembly {\n        /* \"contracts/payable.sol\":25:363  contract PayableContract{... */\n      mstore(0x40, 0x80)\n      jumpi(tag_1, lt(calldatasize, 0x04))\n      shr(0xe0, calldataload(0x00))\n      dup1\n      0x050dbadf\n      eq\n      tag_2\n      jumpi\n      dup1\n      0x89ea642f\n      eq\n      tag_3\n      jumpi\n    tag_1:\n      0x00\n      dup1\n      revert\n        /* \"contracts/payable.sol\":86:268  function sendMoney(string memory param) public payable{... */\n    tag_2:\n      tag_4\n      0x04\n      dup1\n      calldatasize\n      sub\n      dup2\n      add\n      swap1\n      tag_5\n      swap2\n      swap1\n      tag_6\n      jump\t// in\n    tag_5:\n      tag_7\n      jump\t// in\n    tag_4:\n      stop\n        /* \"contracts/payable.sol\":273:360  function getString() public view returns(string memory){... */\n    tag_3:\n      callvalue\n      dup1\n      iszero\n      tag_8\n      jumpi\n      0x00\n      dup1\n      revert\n    tag_8:\n      pop\n      tag_9\n      tag_10\n      jump\t// in\n    tag_9:\n      mload(0x40)\n      tag_11\n      swap2\n      swap1\n      tag_12\n      jump\t// in\n    tag_11:\n      mload(0x40)\n      dup1\n      swap2\n      sub\n      swap1\n      return\n        /* \"contracts/payable.sol\":86:268  function sendMoney(string memory param) public payable{... */\n    tag_7:\n        /* \"contracts/payable.sol\":166:173  1 ether */\n      0x0de0b6b3a7640000\n        /* \"contracts/payable.sol\":153:162  msg.value */\n      callvalue\n        /* \"contracts/payable.sol\":153:173  msg.value == 1 ether */\n      sub\n        /* \"contracts/payable.sol\":150:213  if(msg.value == 1 ether){... */\n      tag_14\n      jumpi\n        /* \"contracts/payable.sol\":197:202  param */\n      dup1\n        /* \"contracts/payable.sol\":188:196  myString */\n      0x00\n        /* \"contracts/payable.sol\":188:202  myString=param */\n      swap1\n      dup2\n      tag_15\n      swap2\n      swap1\n      tag_16\n      jump\t// in\n    tag_15:\n      pop\n        /* \"contracts/payable.sol\":150:213  if(msg.value == 1 ether){... */\n    tag_14:\n        /* \"contracts/payable.sol\":230:240  msg.sender */\n      caller\n        /* \"contracts/payable.sol\":222:250  payable(msg.sender).transfer */\n      0xffffffffffffffffffffffffffffffffffffffff\n      and\n        /* \"contracts/payable.sol\":222:261  payable(msg.sender).transfer(msg.value) */\n      0x08fc\n        /* \"contracts/payable.sol\":251:260  msg.value */\n      callvalue\n        /* \"contracts/payable.sol\":222:261  payable(msg.sender).transfer(msg.value) */\n      swap1\n      dup2\n      iszero\n      mul\n      swap1\n      mload(0x40)\n      0x00\n      mload(0x40)\n      dup1\n      dup4\n      sub\n      dup2\n      dup6\n      dup9\n      dup9\n      call\n      swap4\n      pop\n      pop\n      pop\n      pop\n      iszero\n      dup1\n      iszero\n      tag_18\n      jumpi\n      returndatasize\n      0x00\n      dup1\n      returndatacopy\n      revert(0x00, returndatasize)\n    tag_18:\n      pop\n        /* \"contracts/payable.sol\":86:268  function sendMoney(string memory param) public payable{... */\n      pop\n      jump\t// out\n        /* \"contracts/payable.sol\":273:360  function getString() public view returns(string memory){... */\n    tag_10:\n        /* \"contracts/payable.sol\":314:327  string memory */\n      0x60\n        /* \"contracts/payable.sol\":345:353  myString */\n      0x00\n        /* \"contracts/payable.sol\":338:353  return myString */\n      dup1\n      sload\n      tag_20\n      swap1\n      tag_21\n      jump\t// in\n    tag_20:\n      dup1\n      0x1f\n      add\n      0x20\n      dup1\n      swap2\n      div\n      mul\n      0x20\n      add\n      mload(0x40)\n      swap1\n      dup2\n      add\n      0x40\n      mstore\n      dup1\n      swap3\n      swap2\n      swap1\n      dup2\n      dup2\n      mstore\n      0x20\n      add\n      dup3\n      dup1\n      sload\n      tag_22\n      swap1\n      tag_21\n      jump\t// in\n    tag_22:\n      dup1\n      iszero\n      tag_23\n      jumpi\n      dup1\n      0x1f\n      lt\n      tag_24\n      jumpi\n      0x0100\n      dup1\n      dup4\n      sload\n      div\n      mul\n      dup4\n      mstore\n      swap2\n      0x20\n      add\n      swap2\n      jump(tag_23)\n    tag_24:\n      dup3\n      add\n      swap2\n      swap1\n      0x00\n      mstore\n      keccak256(0x00, 0x20)\n      swap1\n    tag_25:\n      dup2\n      sload\n      dup2\n      mstore\n      swap1\n      0x01\n      add\n      swap1\n      0x20\n      add\n      dup1\n      dup4\n      gt\n      tag_25\n      jumpi\n      dup3\n      swap1\n      sub\n      0x1f\n      and\n      dup3\n      add\n      swap2\n    tag_23:\n      pop\n      pop\n      pop\n      pop\n      pop\n      swap1\n      pop\n        /* \"contracts/payable.sol\":273:360  function getString() public view returns(string memory){... */\n      swap1\n      jump\t// out\n        /* \"#utility.yul\":7:82   */\n    tag_26:\n        /* \"#utility.yul\":40:46   */\n      0x00\n        /* \"#utility.yul\":73:75   */\n      0x40\n        /* \"#utility.yul\":67:76   */\n      mload\n        /* \"#utility.yul\":57:76   */\n      swap1\n      pop\n        /* \"#utility.yul\":7:82   */\n      swap1\n      jump\t// out\n        /* \"#utility.yul\":88:205   */\n    tag_27:\n        /* \"#utility.yul\":197:198   */\n      0x00\n        /* \"#utility.yul\":194:195   */\n      dup1\n        /* \"#utility.yul\":187:199   */\n      revert\n        /* \"#utility.yul\":211:328   */\n    tag_28:\n        /* \"#utility.yul\":320:321   */\n      0x00\n        /* \"#utility.yul\":317:318   */\n      dup1\n        /* \"#utility.yul\":310:322   */\n      revert\n        /* \"#utility.yul\":334:451   */\n    tag_29:\n        /* \"#utility.yul\":443:444   */\n      0x00\n        /* \"#utility.yul\":440:441   */\n      dup1\n        /* \"#utility.yul\":433:445   */\n      revert\n        /* \"#utility.yul\":457:574   */\n    tag_30:\n        /* \"#utility.yul\":566:567   */\n      0x00\n        /* \"#utility.yul\":563:564   */\n      dup1\n        /* \"#utility.yul\":556:568   */\n      revert\n        /* \"#utility.yul\":580:682   */\n    tag_31:\n        /* \"#utility.yul\":621:627   */\n      0x00\n        /* \"#utility.yul\":672:674   */\n      0x1f\n        /* \"#utility.yul\":668:675   */\n      not\n        /* \"#utility.yul\":663:665   */\n      0x1f\n        /* \"#utility.yul\":656:661   */\n      dup4\n        /* \"#utility.yul\":652:666   */\n      add\n        /* \"#utility.yul\":648:676   */\n      and\n        /* \"#utility.yul\":638:676   */\n      swap1\n      pop\n        /* \"#utility.yul\":580:682   */\n      swap2\n      swap1\n      pop\n      jump\t// out\n        /* \"#utility.yul\":688:868   */\n    tag_32:\n        /* \"#utility.yul\":736:813   */\n      0x4e487b7100000000000000000000000000000000000000000000000000000000\n        /* \"#utility.yul\":733:734   */\n      0x00\n        /* \"#utility.yul\":726:814   */\n      mstore\n        /* \"#utility.yul\":833:837   */\n      0x41\n        /* \"#utility.yul\":830:831   */\n      0x04\n        /* \"#utility.yul\":823:838   */\n      mstore\n        /* \"#utility.yul\":857:861   */\n      0x24\n        /* \"#utility.yul\":854:855   */\n      0x00\n        /* \"#utility.yul\":847:862   */\n      revert\n        /* \"#utility.yul\":874:1155   */\n    tag_33:\n        /* \"#utility.yul\":957:984   */\n      tag_69\n        /* \"#utility.yul\":979:983   */\n      dup3\n        /* \"#utility.yul\":957:984   */\n      tag_31\n      jump\t// in\n    tag_69:\n        /* \"#utility.yul\":949:955   */\n      dup2\n        /* \"#utility.yul\":945:985   */\n      add\n        /* \"#utility.yul\":1087:1093   */\n      dup2\n        /* \"#utility.yul\":1075:1085   */\n      dup2\n        /* \"#utility.yul\":1072:1094   */\n      lt\n        /* \"#utility.yul\":1051:1069   */\n      0xffffffffffffffff\n        /* \"#utility.yul\":1039:1049   */\n      dup3\n        /* \"#utility.yul\":1036:1070   */\n      gt\n        /* \"#utility.yul\":1033:1095   */\n      or\n        /* \"#utility.yul\":1030:1118   */\n      iszero\n      tag_70\n      jumpi\n        /* \"#utility.yul\":1098:1116   */\n      tag_71\n      tag_32\n      jump\t// in\n    tag_71:\n        /* \"#utility.yul\":1030:1118   */\n    tag_70:\n        /* \"#utility.yul\":1138:1148   */\n      dup1\n        /* \"#utility.yul\":1134:1136   */\n      0x40\n        /* \"#utility.yul\":1127:1149   */\n      mstore\n        /* \"#utility.yul\":917:1155   */\n      pop\n        /* \"#utility.yul\":874:1155   */\n      pop\n      pop\n      jump\t// out\n        /* \"#utility.yul\":1161:1290   */\n    tag_34:\n        /* \"#utility.yul\":1195:1201   */\n      0x00\n        /* \"#utility.yul\":1222:1242   */\n      tag_73\n      tag_26\n      jump\t// in\n    tag_73:\n        /* \"#utility.yul\":1212:1242   */\n      swap1\n      pop\n        /* \"#utility.yul\":1251:1284   */\n      tag_74\n        /* \"#utility.yul\":1279:1283   */\n      dup3\n        /* \"#utility.yul\":1271:1277   */\n      dup3\n        /* \"#utility.yul\":1251:1284   */\n      tag_33\n      jump\t// in\n    tag_74:\n        /* \"#utility.yul\":1161:1290   */\n      swap2\n      swap1\n      pop\n      jump\t// out\n        /* \"#utility.yul\":1296:1604   */\n    tag_35:\n        /* \"#utility.yul\":1358:1362   */\n      0x00\n        /* \"#utility.yul\":1448:1466   */\n      0xffffffffffffffff\n        /* \"#utility.yul\":1440:1446   */\n      dup3\n        /* \"#utility.yul\":1437:1467   */\n      gt\n        /* \"#utility.yul\":1434:1490   */\n      iszero\n      tag_76\n      jumpi\n        /* \"#utility.yul\":1470:1488   */\n      tag_77\n      tag_32\n      jump\t// in\n    tag_77:\n        /* \"#utility.yul\":1434:1490   */\n    tag_76:\n        /* \"#utility.yul\":1508:1537   */\n      tag_78\n        /* \"#utility.yul\":1530:1536   */\n      dup3\n        /* \"#utility.yul\":1508:1537   */\n      tag_31\n      jump\t// in\n    tag_78:\n        /* \"#utility.yul\":1500:1537   */\n      swap1\n      pop\n        /* \"#utility.yul\":1592:1596   */\n      0x20\n        /* \"#utility.yul\":1586:1590   */\n      dup2\n        /* \"#utility.yul\":1582:1597   */\n      add\n        /* \"#utility.yul\":1574:1597   */\n      swap1\n      pop\n        /* \"#utility.yul\":1296:1604   */\n      swap2\n      swap1\n      pop\n      jump\t// out\n        /* \"#utility.yul\":1610:1764   */\n    tag_36:\n        /* \"#utility.yul\":1694:1700   */\n      dup3\n        /* \"#utility.yul\":1689:1692   */\n      dup2\n        /* \"#utility.yul\":1684:1687   */\n      dup4\n        /* \"#utility.yul\":1671:1701   */\n      calldatacopy\n        /* \"#utility.yul\":1756:1757   */\n      0x00\n        /* \"#utility.yul\":1747:1753   */\n      dup4\n        /* \"#utility.yul\":1742:1745   */\n      dup4\n        /* \"#utility.yul\":1738:1754   */\n      add\n        /* \"#utility.yul\":1731:1758   */\n      mstore\n        /* \"#utility.yul\":1610:1764   */\n      pop\n      pop\n      pop\n      jump\t// out\n        /* \"#utility.yul\":1770:2182   */\n    tag_37:\n        /* \"#utility.yul\":1848:1853   */\n      0x00\n        /* \"#utility.yul\":1873:1939   */\n      tag_81\n        /* \"#utility.yul\":1889:1938   */\n      tag_82\n        /* \"#utility.yul\":1931:1937   */\n      dup5\n        /* \"#utility.yul\":1889:1938   */\n      tag_35\n      jump\t// in\n    tag_82:\n        /* \"#utility.yul\":1873:1939   */\n      tag_34\n      jump\t// in\n    tag_81:\n        /* \"#utility.yul\":1864:1939   */\n      swap1\n      pop\n        /* \"#utility.yul\":1962:1968   */\n      dup3\n        /* \"#utility.yul\":1955:1960   */\n      dup2\n        /* \"#utility.yul\":1948:1969   */\n      mstore\n        /* \"#utility.yul\":2000:2004   */\n      0x20\n        /* \"#utility.yul\":1993:1998   */\n      dup2\n        /* \"#utility.yul\":1989:2005   */\n      add\n        /* \"#utility.yul\":2038:2041   */\n      dup5\n        /* \"#utility.yul\":2029:2035   */\n      dup5\n        /* \"#utility.yul\":2024:2027   */\n      dup5\n        /* \"#utility.yul\":2020:2036   */\n      add\n        /* \"#utility.yul\":2017:2042   */\n      gt\n        /* \"#utility.yul\":2014:2126   */\n      iszero\n      tag_83\n      jumpi\n        /* \"#utility.yul\":2045:2124   */\n      tag_84\n      tag_30\n      jump\t// in\n    tag_84:\n        /* \"#utility.yul\":2014:2126   */\n    tag_83:\n        /* \"#utility.yul\":2135:2176   */\n      tag_85\n        /* \"#utility.yul\":2169:2175   */\n      dup5\n        /* \"#utility.yul\":2164:2167   */\n      dup3\n        /* \"#utility.yul\":2159:2162   */\n      dup6\n        /* \"#utility.yul\":2135:2176   */\n      tag_36\n      jump\t// in\n    tag_85:\n        /* \"#utility.yul\":1854:2182   */\n      pop\n        /* \"#utility.yul\":1770:2182   */\n      swap4\n      swap3\n      pop\n      pop\n      pop\n      jump\t// out\n        /* \"#utility.yul\":2202:2542   */\n    tag_38:\n        /* \"#utility.yul\":2258:2263   */\n      0x00\n        /* \"#utility.yul\":2307:2310   */\n      dup3\n        /* \"#utility.yul\":2300:2304   */\n      0x1f\n        /* \"#utility.yul\":2292:2298   */\n      dup4\n        /* \"#utility.yul\":2288:2305   */\n      add\n        /* \"#utility.yul\":2284:2311   */\n      slt\n        /* \"#utility.yul\":2274:2396   */\n      tag_87\n      jumpi\n        /* \"#utility.yul\":2315:2394   */\n      tag_88\n      tag_29\n      jump\t// in\n    tag_88:\n        /* \"#utility.yul\":2274:2396   */\n    tag_87:\n        /* \"#utility.yul\":2432:2438   */\n      dup2\n        /* \"#utility.yul\":2419:2439   */\n      calldataload\n        /* \"#utility.yul\":2457:2536   */\n      tag_89\n        /* \"#utility.yul\":2532:2535   */\n      dup5\n        /* \"#utility.yul\":2524:2530   */\n      dup3\n        /* \"#utility.yul\":2517:2521   */\n      0x20\n        /* \"#utility.yul\":2509:2515   */\n      dup7\n        /* \"#utility.yul\":2505:2522   */\n      add\n        /* \"#utility.yul\":2457:2536   */\n      tag_37\n      jump\t// in\n    tag_89:\n        /* \"#utility.yul\":2448:2536   */\n      swap2\n      pop\n        /* \"#utility.yul\":2264:2542   */\n      pop\n        /* \"#utility.yul\":2202:2542   */\n      swap3\n      swap2\n      pop\n      pop\n      jump\t// out\n        /* \"#utility.yul\":2548:3057   */\n    tag_6:\n        /* \"#utility.yul\":2617:2623   */\n      0x00\n        /* \"#utility.yul\":2666:2668   */\n      0x20\n        /* \"#utility.yul\":2654:2663   */\n      dup3\n        /* \"#utility.yul\":2645:2652   */\n      dup5\n        /* \"#utility.yul\":2641:2664   */\n      sub\n        /* \"#utility.yul\":2637:2669   */\n      slt\n        /* \"#utility.yul\":2634:2753   */\n      iszero\n      tag_91\n      jumpi\n        /* \"#utility.yul\":2672:2751   */\n      tag_92\n      tag_27\n      jump\t// in\n    tag_92:\n        /* \"#utility.yul\":2634:2753   */\n    tag_91:\n        /* \"#utility.yul\":2820:2821   */\n      0x00\n        /* \"#utility.yul\":2809:2818   */\n      dup3\n        /* \"#utility.yul\":2805:2822   */\n      add\n        /* \"#utility.yul\":2792:2823   */\n      calldataload\n        /* \"#utility.yul\":2850:2868   */\n      0xffffffffffffffff\n        /* \"#utility.yul\":2842:2848   */\n      dup2\n        /* \"#utility.yul\":2839:2869   */\n      gt\n        /* \"#utility.yul\":2836:2953   */\n      iszero\n      tag_93\n      jumpi\n        /* \"#utility.yul\":2872:2951   */\n      tag_94\n      tag_28\n      jump\t// in\n    tag_94:\n        /* \"#utility.yul\":2836:2953   */\n    tag_93:\n        /* \"#utility.yul\":2977:3040   */\n      tag_95\n        /* \"#utility.yul\":3032:3039   */\n      dup5\n        /* \"#utility.yul\":3023:3029   */\n      dup3\n        /* \"#utility.yul\":3012:3021   */\n      dup6\n        /* \"#utility.yul\":3008:3030   */\n      add\n        /* \"#utility.yul\":2977:3040   */\n      tag_38\n      jump\t// in\n    tag_95:\n        /* \"#utility.yul\":2967:3040   */\n      swap2\n      pop\n        /* \"#utility.yul\":2763:3050   */\n      pop\n        /* \"#utility.yul\":2548:3057   */\n      swap3\n      swap2\n      pop\n      pop\n      jump\t// out\n        /* \"#utility.yul\":3063:3162   */\n    tag_39:\n        /* \"#utility.yul\":3115:3121   */\n      0x00\n        /* \"#utility.yul\":3149:3154   */\n      dup2\n        /* \"#utility.yul\":3143:3155   */\n      mload\n        /* \"#utility.yul\":3133:3155   */\n      swap1\n      pop\n        /* \"#utility.yul\":3063:3162   */\n      swap2\n      swap1\n      pop\n      jump\t// out\n        /* \"#utility.yul\":3168:3337   */\n    tag_40:\n        /* \"#utility.yul\":3252:3263   */\n      0x00\n        /* \"#utility.yul\":3286:3292   */\n      dup3\n        /* \"#utility.yul\":3281:3284   */\n      dup3\n        /* \"#utility.yul\":3274:3293   */\n      mstore\n        /* \"#utility.yul\":3326:3330   */\n      0x20\n        /* \"#utility.yul\":3321:3324   */\n      dup3\n        /* \"#utility.yul\":3317:3331   */\n      add\n        /* \"#utility.yul\":3302:3331   */\n      swap1\n      pop\n        /* \"#utility.yul\":3168:3337   */\n      swap3\n      swap2\n      pop\n      pop\n      jump\t// out\n        /* \"#utility.yul\":3343:3650   */\n    tag_41:\n        /* \"#utility.yul\":3411:3412   */\n      0x00\n        /* \"#utility.yul\":3421:3534   */\n    tag_99:\n        /* \"#utility.yul\":3435:3441   */\n      dup4\n        /* \"#utility.yul\":3432:3433   */\n      dup2\n        /* \"#utility.yul\":3429:3442   */\n      lt\n        /* \"#utility.yul\":3421:3534   */\n      iszero\n      tag_101\n      jumpi\n        /* \"#utility.yul\":3520:3521   */\n      dup1\n        /* \"#utility.yul\":3515:3518   */\n      dup3\n        /* \"#utility.yul\":3511:3522   */\n      add\n        /* \"#utility.yul\":3505:3523   */\n      mload\n        /* \"#utility.yul\":3501:3502   */\n      dup2\n        /* \"#utility.yul\":3496:3499   */\n      dup5\n        /* \"#utility.yul\":3492:3503   */\n      add\n        /* \"#utility.yul\":3485:3524   */\n      mstore\n        /* \"#utility.yul\":3457:3459   */\n      0x20\n        /* \"#utility.yul\":3454:3455   */\n      dup2\n        /* \"#utility.yul\":3450:3460   */\n      add\n        /* \"#utility.yul\":3445:3460   */\n      swap1\n      pop\n        /* \"#utility.yul\":3421:3534   */\n      jump(tag_99)\n    tag_101:\n        /* \"#utility.yul\":3552:3558   */\n      dup4\n        /* \"#utility.yul\":3549:3550   */\n      dup2\n        /* \"#utility.yul\":3546:3559   */\n      gt\n        /* \"#utility.yul\":3543:3644   */\n      iszero\n      tag_102\n      jumpi\n        /* \"#utility.yul\":3632:3633   */\n      0x00\n        /* \"#utility.yul\":3623:3629   */\n      dup5\n        /* \"#utility.yul\":3618:3621   */\n      dup5\n        /* \"#utility.yul\":3614:3630   */\n      add\n        /* \"#utility.yul\":3607:3634   */\n      mstore\n        /* \"#utility.yul\":3543:3644   */\n    tag_102:\n        /* \"#utility.yul\":3392:3650   */\n      pop\n        /* \"#utility.yul\":3343:3650   */\n      pop\n      pop\n      pop\n      jump\t// out\n        /* \"#utility.yul\":3656:4020   */\n    tag_42:\n        /* \"#utility.yul\":3744:3747   */\n      0x00\n        /* \"#utility.yul\":3772:3811   */\n      tag_104\n        /* \"#utility.yul\":3805:3810   */\n      dup3\n        /* \"#utility.yul\":3772:3811   */\n      tag_39\n      jump\t// in\n    tag_104:\n        /* \"#utility.yul\":3827:3898   */\n      tag_105\n        /* \"#utility.yul\":3891:3897   */\n      dup2\n        /* \"#utility.yul\":3886:3889   */\n      dup6\n        /* \"#utility.yul\":3827:3898   */\n      tag_40\n      jump\t// in\n    tag_105:\n        /* \"#utility.yul\":3820:3898   */\n      swap4\n      pop\n        /* \"#utility.yul\":3907:3959   */\n      tag_106\n        /* \"#utility.yul\":3952:3958   */\n      dup2\n        /* \"#utility.yul\":3947:3950   */\n      dup6\n        /* \"#utility.yul\":3940:3944   */\n      0x20\n        /* \"#utility.yul\":3933:3938   */\n      dup7\n        /* \"#utility.yul\":3929:3945   */\n      add\n        /* \"#utility.yul\":3907:3959   */\n      tag_41\n      jump\t// in\n    tag_106:\n        /* \"#utility.yul\":3984:4013   */\n      tag_107\n        /* \"#utility.yul\":4006:4012   */\n      dup2\n        /* \"#utility.yul\":3984:4013   */\n      tag_31\n      jump\t// in\n    tag_107:\n        /* \"#utility.yul\":3979:3982   */\n      dup5\n        /* \"#utility.yul\":3975:4014   */\n      add\n        /* \"#utility.yul\":3968:4014   */\n      swap2\n      pop\n        /* \"#utility.yul\":3748:4020   */\n      pop\n        /* \"#utility.yul\":3656:4020   */\n      swap3\n      swap2\n      pop\n      pop\n      jump\t// out\n        /* \"#utility.yul\":4026:4339   */\n    tag_12:\n        /* \"#utility.yul\":4139:4143   */\n      0x00\n        /* \"#utility.yul\":4177:4179   */\n      0x20\n        /* \"#utility.yul\":4166:4175   */\n      dup3\n        /* \"#utility.yul\":4162:4180   */\n      add\n        /* \"#utility.yul\":4154:4180   */\n      swap1\n      pop\n        /* \"#utility.yul\":4226:4235   */\n      dup2\n        /* \"#utility.yul\":4220:4224   */\n      dup2\n        /* \"#utility.yul\":4216:4236   */\n      sub\n        /* \"#utility.yul\":4212:4213   */\n      0x00\n        /* \"#utility.yul\":4201:4210   */\n      dup4\n        /* \"#utility.yul\":4197:4214   */\n      add\n        /* \"#utility.yul\":4190:4237   */\n      mstore\n        /* \"#utility.yul\":4254:4332   */\n      tag_109\n        /* \"#utility.yul\":4327:4331   */\n      dup2\n        /* \"#utility.yul\":4318:4324   */\n      dup5\n        /* \"#utility.yul\":4254:4332   */\n      tag_42\n      jump\t// in\n    tag_109:\n        /* \"#utility.yul\":4246:4332   */\n      swap1\n      pop\n        /* \"#utility.yul\":4026:4339   */\n      swap3\n      swap2\n      pop\n      pop\n      jump\t// out\n        /* \"#utility.yul\":4345:4525   */\n    tag_43:\n        /* \"#utility.yul\":4393:4470   */\n      0x4e487b7100000000000000000000000000000000000000000000000000000000\n        /* \"#utility.yul\":4390:4391   */\n      0x00\n        /* \"#utility.yul\":4383:4471   */\n      mstore\n        /* \"#utility.yul\":4490:4494   */\n      0x22\n        /* \"#utility.yul\":4487:4488   */\n      0x04\n        /* \"#utility.yul\":4480:4495   */\n      mstore\n        /* \"#utility.yul\":4514:4518   */\n      0x24\n        /* \"#utility.yul\":4511:4512   */\n      0x00\n        /* \"#utility.yul\":4504:4519   */\n      revert\n        /* \"#utility.yul\":4531:4851   */\n    tag_21:\n        /* \"#utility.yul\":4575:4581   */\n      0x00\n        /* \"#utility.yul\":4612:4613   */\n      0x02\n        /* \"#utility.yul\":4606:4610   */\n      dup3\n        /* \"#utility.yul\":4602:4614   */\n      div\n        /* \"#utility.yul\":4592:4614   */\n      swap1\n      pop\n        /* \"#utility.yul\":4659:4660   */\n      0x01\n        /* \"#utility.yul\":4653:4657   */\n      dup3\n        /* \"#utility.yul\":4649:4661   */\n      and\n        /* \"#utility.yul\":4680:4698   */\n      dup1\n        /* \"#utility.yul\":4670:4751   */\n      tag_112\n      jumpi\n        /* \"#utility.yul\":4736:4740   */\n      0x7f\n        /* \"#utility.yul\":4728:4734   */\n      dup3\n        /* \"#utility.yul\":4724:4741   */\n      and\n        /* \"#utility.yul\":4714:4741   */\n      swap2\n      pop\n        /* \"#utility.yul\":4670:4751   */\n    tag_112:\n        /* \"#utility.yul\":4798:4800   */\n      0x20\n        /* \"#utility.yul\":4790:4796   */\n      dup3\n        /* \"#utility.yul\":4787:4801   */\n      lt\n        /* \"#utility.yul\":4767:4785   */\n      dup2\n        /* \"#utility.yul\":4764:4802   */\n      sub\n        /* \"#utility.yul\":4761:4845   */\n      tag_113\n      jumpi\n        /* \"#utility.yul\":4817:4835   */\n      tag_114\n      tag_43\n      jump\t// in\n    tag_114:\n        /* \"#utility.yul\":4761:4845   */\n    tag_113:\n        /* \"#utility.yul\":4582:4851   */\n      pop\n        /* \"#utility.yul\":4531:4851   */\n      swap2\n      swap1\n      pop\n      jump\t// out\n        /* \"#utility.yul\":4857:4998   */\n    tag_44:\n        /* \"#utility.yul\":4906:4910   */\n      0x00\n        /* \"#utility.yul\":4929:4932   */\n      dup2\n        /* \"#utility.yul\":4921:4932   */\n      swap1\n      pop\n        /* \"#utility.yul\":4952:4955   */\n      dup2\n        /* \"#utility.yul\":4949:4950   */\n      0x00\n        /* \"#utility.yul\":4942:4956   */\n      mstore\n        /* \"#utility.yul\":4986:4990   */\n      0x20\n        /* \"#utility.yul\":4983:4984   */\n      0x00\n        /* \"#utility.yul\":4973:4991   */\n      keccak256\n        /* \"#utility.yul\":4965:4991   */\n      swap1\n      pop\n        /* \"#utility.yul\":4857:4998   */\n      swap2\n      swap1\n      pop\n      jump\t// out\n        /* \"#utility.yul\":5004:5097   */\n    tag_45:\n        /* \"#utility.yul\":5041:5047   */\n      0x00\n        /* \"#utility.yul\":5088:5090   */\n      0x20\n        /* \"#utility.yul\":5083:5085   */\n      0x1f\n        /* \"#utility.yul\":5076:5081   */\n      dup4\n        /* \"#utility.yul\":5072:5086   */\n      add\n        /* \"#utility.yul\":5068:5091   */\n      div\n        /* \"#utility.yul\":5058:5091   */\n      swap1\n      pop\n        /* \"#utility.yul\":5004:5097   */\n      swap2\n      swap1\n      pop\n      jump\t// out\n        /* \"#utility.yul\":5103:5210   */\n    tag_46:\n        /* \"#utility.yul\":5147:5155   */\n      0x00\n        /* \"#utility.yul\":5197:5202   */\n      dup3\n        /* \"#utility.yul\":5191:5195   */\n      dup3\n        /* \"#utility.yul\":5187:5203   */\n      shl\n        /* \"#utility.yul\":5166:5203   */\n      swap1\n      pop\n        /* \"#utility.yul\":5103:5210   */\n      swap3\n      swap2\n      pop\n      pop\n      jump\t// out\n        /* \"#utility.yul\":5216:5609   */\n    tag_47:\n        /* \"#utility.yul\":5285:5291   */\n      0x00\n        /* \"#utility.yul\":5335:5336   */\n      0x08\n        /* \"#utility.yul\":5323:5333   */\n      dup4\n        /* \"#utility.yul\":5319:5337   */\n      mul\n        /* \"#utility.yul\":5358:5455   */\n      tag_119\n        /* \"#utility.yul\":5388:5454   */\n      0xffffffffffffffffffffffffffffffffffffffffffffffffffffffffffffffff\n        /* \"#utility.yul\":5377:5386   */\n      dup3\n        /* \"#utility.yul\":5358:5455   */\n      tag_46\n      jump\t// in\n    tag_119:\n        /* \"#utility.yul\":5476:5515   */\n      tag_120\n        /* \"#utility.yul\":5506:5514   */\n      dup7\n        /* \"#utility.yul\":5495:5504   */\n      dup4\n        /* \"#utility.yul\":5476:5515   */\n      tag_46\n      jump\t// in\n    tag_120:\n        /* \"#utility.yul\":5464:5515   */\n      swap6\n      pop\n        /* \"#utility.yul\":5548:5552   */\n      dup1\n        /* \"#utility.yul\":5544:5553   */\n      not\n        /* \"#utility.yul\":5537:5542   */\n      dup5\n        /* \"#utility.yul\":5533:5554   */\n      and\n        /* \"#utility.yul\":5524:5554   */\n      swap4\n      pop\n        /* \"#utility.yul\":5597:5601   */\n      dup1\n        /* \"#utility.yul\":5587:5595   */\n      dup7\n        /* \"#utility.yul\":5583:5602   */\n      and\n        /* \"#utility.yul\":5576:5581   */\n      dup5\n        /* \"#utility.yul\":5573:5603   */\n      or\n        /* \"#utility.yul\":5563:5603   */\n      swap3\n      pop\n        /* \"#utility.yul\":5292:5609   */\n      pop\n      pop\n        /* \"#utility.yul\":5216:5609   */\n      swap4\n      swap3\n      pop\n      pop\n      pop\n      jump\t// out\n        /* \"#utility.yul\":5615:5692   */\n    tag_48:\n        /* \"#utility.yul\":5652:5659   */\n      0x00\n        /* \"#utility.yul\":5681:5686   */\n      dup2\n        /* \"#utility.yul\":5670:5686   */\n      swap1\n      pop\n        /* \"#utility.yul\":5615:5692   */\n      swap2\n      swap1\n      pop\n      jump\t// out\n        /* \"#utility.yul\":5698:5758   */\n    tag_49:\n        /* \"#utility.yul\":5726:5729   */\n      0x00\n        /* \"#utility.yul\":5747:5752   */\n      dup2\n        /* \"#utility.yul\":5740:5752   */\n      swap1\n      pop\n        /* \"#utility.yul\":5698:5758   */\n      swap2\n      swap1\n      pop\n      jump\t// out\n        /* \"#utility.yul\":5764:5906   */\n    tag_50:\n        /* \"#utility.yul\":5814:5823   */\n      0x00\n        /* \"#utility.yul\":5847:5900   */\n      tag_124\n        /* \"#utility.yul\":5865:5899   */\n      tag_125\n        /* \"#utility.yul\":5874:5898   */\n      tag_126\n        /* \"#utility.yul\":5892:5897   */\n      dup5\n        /* \"#utility.yul\":5874:5898   */\n      tag_48\n      jump\t// in\n    tag_126:\n        /* \"#utility.yul\":5865:5899   */\n      tag_49\n      jump\t// in\n    tag_125:\n        /* \"#utility.yul\":5847:5900   */\n      tag_48\n      jump\t// in\n    tag_124:\n        /* \"#utility.yul\":5834:5900   */\n      swap1\n      pop\n        /* \"#utility.yul\":5764:5906   */\n      swap2\n      swap1\n      pop\n      jump\t// out\n        /* \"#utility.yul\":5912:5987   */\n    tag_51:\n        /* \"#utility.yul\":5955:5958   */\n      0x00\n        /* \"#utility.yul\":5976:5981   */\n      dup2\n        /* \"#utility.yul\":5969:5981   */\n      swap1\n      pop\n        /* \"#utility.yul\":5912:5987   */\n      swap2\n      swap1\n      pop\n      jump\t// out\n        /* \"#utility.yul\":5993:6262   */\n    tag_52:\n        /* \"#utility.yul\":6103:6142   */\n      tag_129\n        /* \"#utility.yul\":6134:6141   */\n      dup4\n        /* \"#utility.yul\":6103:6142   */\n      tag_50\n      jump\t// in\n    tag_129:\n        /* \"#utility.yul\":6164:6255   */\n      tag_130\n        /* \"#utility.yul\":6213:6254   */\n      tag_131\n        /* \"#utility.yul\":6237:6253   */\n      dup3\n        /* \"#utility.yul\":6213:6254   */\n      tag_51\n      jump\t// in\n    tag_131:\n        /* \"#utility.yul\":6205:6211   */\n      dup5\n        /* \"#utility.yul\":6198:6202   */\n      dup5\n        /* \"#utility.yul\":6192:6203   */\n      sload\n        /* \"#utility.yul\":6164:6255   */\n      tag_47\n      jump\t// in\n    tag_130:\n        /* \"#utility.yul\":6158:6162   */\n      dup3\n        /* \"#utility.yul\":6151:6256   */\n      sstore\n        /* \"#utility.yul\":6069:6262   */\n      pop\n        /* \"#utility.yul\":5993:6262   */\n      pop\n      pop\n      pop\n      jump\t// out\n        /* \"#utility.yul\":6268:6341   */\n    tag_53:\n        /* \"#utility.yul\":6313:6316   */\n      0x00\n        /* \"#utility.yul\":6268:6341   */\n      swap1\n      jump\t// out\n        /* \"#utility.yul\":6347:6536   */\n    tag_54:\n        /* \"#utility.yul\":6424:6456   */\n      tag_134\n      tag_53\n      jump\t// in\n    tag_134:\n        /* \"#utility.yul\":6465:6530   */\n      tag_135\n        /* \"#utility.yul\":6523:6529   */\n      dup2\n        /* \"#utility.yul\":6515:6521   */\n      dup5\n        /* \"#utility.yul\":6509:6513   */\n      dup5\n        /* \"#utility.yul\":6465:6530   */\n      tag_52\n      jump\t// in\n    tag_135:\n        /* \"#utility.yul\":6400:6536   */\n      pop\n        /* \"#utility.yul\":6347:6536   */\n      pop\n      pop\n      jump\t// out\n        /* \"#utility.yul\":6542:6728   */\n    tag_55:\n        /* \"#utility.yul\":6602:6722   */\n    tag_137:\n        /* \"#utility.yul\":6619:6622   */\n      dup2\n        /* \"#utility.yul\":6612:6617   */\n      dup2\n        /* \"#utility.yul\":6609:6623   */\n      lt\n        /* \"#utility.yul\":6602:6722   */\n      iszero\n      tag_139\n      jumpi\n        /* \"#utility.yul\":6673:6712   */\n      tag_140\n        /* \"#utility.yul\":6710:6711   */\n      0x00\n        /* \"#utility.yul\":6703:6708   */\n      dup3\n        /* \"#utility.yul\":6673:6712   */\n      tag_54\n      jump\t// in\n    tag_140:\n        /* \"#utility.yul\":6646:6647   */\n      0x01\n        /* \"#utility.yul\":6639:6644   */\n      dup2\n        /* \"#utility.yul\":6635:6648   */\n      add\n        /* \"#utility.yul\":6626:6648   */\n      swap1\n      pop\n        /* \"#utility.yul\":6602:6722   */\n      jump(tag_137)\n    tag_139:\n        /* \"#utility.yul\":6542:6728   */\n      pop\n      pop\n      jump\t// out\n        /* \"#utility.yul\":6734:7277   */\n    tag_56:\n        /* \"#utility.yul\":6835:6837   */\n      0x1f\n        /* \"#utility.yul\":6830:6833   */\n      dup3\n        /* \"#utility.yul\":6827:6838   */\n      gt\n        /* \"#utility.yul\":6824:7270   */\n      iszero\n      tag_142\n      jumpi\n        /* \"#utility.yul\":6869:6907   */\n      tag_143\n        /* \"#utility.yul\":6901:6906   */\n      dup2\n        /* \"#utility.yul\":6869:6907   */\n      tag_44\n      jump\t// in\n    tag_143:\n        /* \"#utility.yul\":6953:6982   */\n      tag_144\n        /* \"#utility.yul\":6971:6981   */\n      dup5\n        /* \"#utility.yul\":6953:6982   */\n      tag_45\n      jump\t// in\n    tag_144:\n        /* \"#utility.yul\":6943:6951   */\n      dup2\n        /* \"#utility.yul\":6939:6983   */\n      add\n        /* \"#utility.yul\":7136:7138   */\n      0x20\n        /* \"#utility.yul\":7124:7134   */\n      dup6\n        /* \"#utility.yul\":7121:7139   */\n      lt\n        /* \"#utility.yul\":7118:7167   */\n      iszero\n      tag_145\n      jumpi\n        /* \"#utility.yul\":7157:7165   */\n      dup2\n        /* \"#utility.yul\":7142:7165   */\n      swap1\n      pop\n        /* \"#utility.yul\":7118:7167   */\n    tag_145:\n        /* \"#utility.yul\":7180:7260   */\n      tag_146\n        /* \"#utility.yul\":7236:7258   */\n      tag_147\n        /* \"#utility.yul\":7254:7257   */\n      dup6\n        /* \"#utility.yul\":7236:7258   */\n      tag_45\n      jump\t// in\n    tag_147:\n        /* \"#utility.yul\":7226:7234   */\n      dup4\n        /* \"#utility.yul\":7222:7259   */\n      add\n        /* \"#utility.yul\":7209:7220   */\n      dup3\n        /* \"#utility.yul\":7180:7260   */\n      tag_55\n      jump\t// in\n    tag_146:\n        /* \"#utility.yul\":6839:7270   */\n      pop\n      pop\n        /* \"#utility.yul\":6824:7270   */\n    tag_142:\n        /* \"#utility.yul\":6734:7277   */\n      pop\n      pop\n      pop\n      jump\t// out\n        /* \"#utility.yul\":7283:7400   */\n    tag_57:\n        /* \"#utility.yul\":7337:7345   */\n      0x00\n        /* \"#utility.yul\":7387:7392   */\n      dup3\n        /* \"#utility.yul\":7381:7385   */\n      dup3\n        /* \"#utility.yul\":7377:7393   */\n      shr\n        /* \"#utility.yul\":7356:7393   */\n      swap1\n      pop\n        /* \"#utility.yul\":7283:7400   */\n      swap3\n      swap2\n      pop\n      pop\n      jump\t// out\n        /* \"#utility.yul\":7406:7575   */\n    tag_58:\n        /* \"#utility.yul\":7450:7456   */\n      0x00\n        /* \"#utility.yul\":7483:7534   */\n      tag_150\n        /* \"#utility.yul\":7531:7532   */\n      0x00\n        /* \"#utility.yul\":7527:7533   */\n      not\n        /* \"#utility.yul\":7519:7524   */\n      dup5\n        /* \"#utility.yul\":7516:7517   */\n      0x08\n        /* \"#utility.yul\":7512:7525   */\n      mul\n        /* \"#utility.yul\":7483:7534   */\n      tag_57\n      jump\t// in\n    tag_150:\n        /* \"#utility.yul\":7479:7535   */\n      not\n        /* \"#utility.yul\":7564:7568   */\n      dup1\n        /* \"#utility.yul\":7558:7562   */\n      dup4\n        /* \"#utility.yul\":7554:7569   */\n      and\n        /* \"#utility.yul\":7544:7569   */\n      swap2\n      pop\n        /* \"#utility.yul\":7457:7575   */\n      pop\n        /* \"#utility.yul\":7406:7575   */\n      swap3\n      swap2\n      pop\n      pop\n      jump\t// out\n        /* \"#utility.yul\":7580:7875   */\n    tag_59:\n        /* \"#utility.yul\":7656:7660   */\n      0x00\n        /* \"#utility.yul\":7802:7831   */\n      tag_152\n        /* \"#utility.yul\":7827:7830   */\n      dup4\n        /* \"#utility.yul\":7821:7825   */\n      dup4\n        /* \"#utility.yul\":7802:7831   */\n      tag_58\n      jump\t// in\n    tag_152:\n        /* \"#utility.yul\":7794:7831   */\n      swap2\n      pop\n        /* \"#utility.yul\":7864:7867   */\n      dup3\n        /* \"#utility.yul\":7861:7862   */\n      0x02\n        /* \"#utility.yul\":7857:7868   */\n      mul\n        /* \"#utility.yul\":7851:7855   */\n      dup3\n        /* \"#utility.yul\":7848:7869   */\n      or\n        /* \"#utility.yul\":7840:7869   */\n      swap1\n      pop\n        /* \"#utility.yul\":7580:7875   */\n      swap3\n      swap2\n      pop\n      pop\n      jump\t// out\n        /* \"#utility.yul\":7880:9275   */\n    tag_16:\n        /* \"#utility.yul\":7997:8034   */\n      tag_154\n        /* \"#utility.yul\":8030:8033   */\n      dup3\n        /* \"#utility.yul\":7997:8034   */\n      tag_39\n      jump\t// in\n    tag_154:\n        /* \"#utility.yul\":8099:8117   */\n      0xffffffffffffffff\n        /* \"#utility.yul\":8091:8097   */\n      dup2\n        /* \"#utility.yul\":8088:8118   */\n      gt\n        /* \"#utility.yul\":8085:8141   */\n      iszero\n      tag_155\n      jumpi\n        /* \"#utility.yul\":8121:8139   */\n      tag_156\n      tag_32\n      jump\t// in\n    tag_156:\n        /* \"#utility.yul\":8085:8141   */\n    tag_155:\n        /* \"#utility.yul\":8165:8203   */\n      tag_157\n        /* \"#utility.yul\":8197:8201   */\n      dup3\n        /* \"#utility.yul\":8191:8202   */\n      sload\n        /* \"#utility.yul\":8165:8203   */\n      tag_21\n      jump\t// in\n    tag_157:\n        /* \"#utility.yul\":8250:8317   */\n      tag_158\n        /* \"#utility.yul\":8310:8316   */\n      dup3\n        /* \"#utility.yul\":8302:8308   */\n      dup3\n        /* \"#utility.yul\":8296:8300   */\n      dup6\n        /* \"#utility.yul\":8250:8317   */\n      tag_56\n      jump\t// in\n    tag_158:\n        /* \"#utility.yul\":8344:8345   */\n      0x00\n        /* \"#utility.yul\":8368:8372   */\n      0x20\n        /* \"#utility.yul\":8355:8372   */\n      swap1\n      pop\n        /* \"#utility.yul\":8400:8402   */\n      0x1f\n        /* \"#utility.yul\":8392:8398   */\n      dup4\n        /* \"#utility.yul\":8389:8403   */\n      gt\n        /* \"#utility.yul\":8417:8418   */\n      0x01\n        /* \"#utility.yul\":8412:9030   */\n      dup2\n      eq\n      tag_160\n      jumpi\n        /* \"#utility.yul\":9074:9075   */\n      0x00\n        /* \"#utility.yul\":9091:9097   */\n      dup5\n        /* \"#utility.yul\":9088:9165   */\n      iszero\n      tag_161\n      jumpi\n        /* \"#utility.yul\":9140:9149   */\n      dup3\n        /* \"#utility.yul\":9135:9138   */\n      dup8\n        /* \"#utility.yul\":9131:9150   */\n      add\n        /* \"#utility.yul\":9125:9151   */\n      mload\n        /* \"#utility.yul\":9116:9151   */\n      swap1\n      pop\n        /* \"#utility.yul\":9088:9165   */\n    tag_161:\n        /* \"#utility.yul\":9191:9258   */\n      tag_162\n        /* \"#utility.yul\":9251:9257   */\n      dup6\n        /* \"#utility.yul\":9244:9249   */\n      dup3\n        /* \"#utility.yul\":9191:9258   */\n      tag_59\n      jump\t// in\n    tag_162:\n        /* \"#utility.yul\":9185:9189   */\n      dup7\n        /* \"#utility.yul\":9178:9259   */\n      sstore\n        /* \"#utility.yul\":9047:9269   */\n      pop\n        /* \"#utility.yul\":8382:9269   */\n      jump(tag_159)\n        /* \"#utility.yul\":8412:9030   */\n    tag_160:\n        /* \"#utility.yul\":8464:8468   */\n      0x1f\n        /* \"#utility.yul\":8460:8469   */\n      not\n        /* \"#utility.yul\":8452:8458   */\n      dup5\n        /* \"#utility.yul\":8448:8470   */\n      and\n        /* \"#utility.yul\":8498:8535   */\n      tag_163\n        /* \"#utility.yul\":8530:8534   */\n      dup7\n        /* \"#utility.yul\":8498:8535   */\n      tag_44\n      jump\t// in\n    tag_163:\n        /* \"#utility.yul\":8557:8558   */\n      0x00\n        /* \"#utility.yul\":8571:8779   */\n    tag_164:\n        /* \"#utility.yul\":8585:8592   */\n      dup3\n        /* \"#utility.yul\":8582:8583   */\n      dup2\n        /* \"#utility.yul\":8579:8593   */\n      lt\n        /* \"#utility.yul\":8571:8779   */\n      iszero\n      tag_166\n      jumpi\n        /* \"#utility.yul\":8664:8673   */\n      dup5\n        /* \"#utility.yul\":8659:8662   */\n      dup10\n        /* \"#utility.yul\":8655:8674   */\n      add\n        /* \"#utility.yul\":8649:8675   */\n      mload\n        /* \"#utility.yul\":8641:8647   */\n      dup3\n        /* \"#utility.yul\":8634:8676   */\n      sstore\n        /* \"#utility.yul\":8715:8716   */\n      0x01\n        /* \"#utility.yul\":8707:8713   */\n      dup3\n        /* \"#utility.yul\":8703:8717   */\n      add\n        /* \"#utility.yul\":8693:8717   */\n      swap2\n      pop\n        /* \"#utility.yul\":8762:8764   */\n      0x20\n        /* \"#utility.yul\":8751:8760   */\n      dup6\n        /* \"#utility.yul\":8747:8765   */\n      add\n        /* \"#utility.yul\":8734:8765   */\n      swap5\n      pop\n        /* \"#utility.yul\":8608:8612   */\n      0x20\n        /* \"#utility.yul\":8605:8606   */\n      dup2\n        /* \"#utility.yul\":8601:8613   */\n      add\n        /* \"#utility.yul\":8596:8613   */\n      swap1\n      pop\n        /* \"#utility.yul\":8571:8779   */\n      jump(tag_164)\n    tag_166:\n        /* \"#utility.yul\":8807:8813   */\n      dup7\n        /* \"#utility.yul\":8798:8805   */\n      dup4\n        /* \"#utility.yul\":8795:8814   */\n      lt\n        /* \"#utility.yul\":8792:8971   */\n      iszero\n      tag_167\n      jumpi\n        /* \"#utility.yul\":8865:8874   */\n      dup5\n        /* \"#utility.yul\":8860:8863   */\n      dup10\n        /* \"#utility.yul\":8856:8875   */\n      add\n        /* \"#utility.yul\":8850:8876   */\n      mload\n        /* \"#utility.yul\":8908:8956   */\n      tag_168\n        /* \"#utility.yul\":8950:8954   */\n      0x1f\n        /* \"#utility.yul\":8942:8948   */\n      dup10\n        /* \"#utility.yul\":8938:8955   */\n      and\n        /* \"#utility.yul\":8927:8936   */\n      dup3\n        /* \"#utility.yul\":8908:8956   */\n      tag_58\n      jump\t// in\n    tag_168:\n        /* \"#utility.yul\":8900:8906   */\n      dup4\n        /* \"#utility.yul\":8893:8957   */\n      sstore\n        /* \"#utility.yul\":8815:8971   */\n      pop\n        /* \"#utility.yul\":8792:8971   */\n    tag_167:\n        /* \"#utility.yul\":9017:9018   */\n      0x01\n        /* \"#utility.yul\":9013:9014   */\n      0x02\n        /* \"#utility.yul\":9005:9011   */\n      dup9\n        /* \"#utility.yul\":9001:9015   */\n      mul\n        /* \"#utility.yul\":8997:9019   */\n      add\n        /* \"#utility.yul\":8991:8995   */\n      dup9\n        /* \"#utility.yul\":8984:9020   */\n      sstore\n        /* \"#utility.yul\":8419:9030   */\n      pop\n      pop\n      pop\n        /* \"#utility.yul\":8382:9269   */\n    tag_159:\n      pop\n        /* \"#utility.yul\":7972:9275   */\n      pop\n      pop\n      pop\n        /* \"#utility.yul\":7880:9275   */\n      pop\n      pop\n      jump\t// out\n\n    auxdata: 0xa264697066735822122026a5f1842d3356d8bfde5f4938c885011f65ce10c8e08e22a211adc6ceb910f864736f6c634300080f0033\n}\n",
				"bytecode": {
					"linkReferences": {},
					"object": "608060405234801561001057600080fd5b506106dc806100206000396000f3fe6080604052600436106100295760003560e01c8063050dbadf1461002e57806389ea642f1461004a575b600080fd5b610048600480360381019061004391906102cb565b610075565b005b34801561005657600080fd5b5061005f6100df565b60405161006c919061039c565b60405180910390f35b670de0b6b3a7640000340361009557806000908161009391906105d4565b505b3373ffffffffffffffffffffffffffffffffffffffff166108fc349081150290604051600060405180830381858888f193505050501580156100db573d6000803e3d6000fd5b5050565b6060600080546100ee906103ed565b80601f016020809104026020016040519081016040528092919081815260200182805461011a906103ed565b80156101675780601f1061013c57610100808354040283529160200191610167565b820191906000526020600020905b81548152906001019060200180831161014a57829003601f168201915b5050505050905090565b6000604051905090565b600080fd5b600080fd5b600080fd5b600080fd5b6000601f19601f8301169050919050565b7f4e487b7100000000000000000000000000000000000000000000000000000000600052604160045260246000fd5b6101d88261018f565b810181811067ffffffffffffffff821117156101f7576101f66101a0565b5b80604052505050565b600061020a610171565b905061021682826101cf565b919050565b600067ffffffffffffffff821115610236576102356101a0565b5b61023f8261018f565b9050602081019050919050565b82818337600083830152505050565b600061026e6102698461021b565b610200565b90508281526020810184848401111561028a5761028961018a565b5b61029584828561024c565b509392505050565b600082601f8301126102b2576102b1610185565b5b81356102c284826020860161025b565b91505092915050565b6000602082840312156102e1576102e061017b565b5b600082013567ffffffffffffffff8111156102ff576102fe610180565b5b61030b8482850161029d565b91505092915050565b600081519050919050565b600082825260208201905092915050565b60005b8381101561034e578082015181840152602081019050610333565b8381111561035d576000848401525b50505050565b600061036e82610314565b610378818561031f565b9350610388818560208601610330565b6103918161018f565b840191505092915050565b600060208201905081810360008301526103b68184610363565b905092915050565b7f4e487b7100000000000000000000000000000000000000000000000000000000600052602260045260246000fd5b6000600282049050600182168061040557607f821691505b602082108103610418576104176103be565b5b50919050565b60008190508160005260206000209050919050565b60006020601f8301049050919050565b600082821b905092915050565b6000600883026104807fffffffffffffffffffffffffffffffffffffffffffffffffffffffffffffffff82610443565b61048a8683610443565b95508019841693508086168417925050509392505050565b6000819050919050565b6000819050919050565b60006104d16104cc6104c7846104a2565b6104ac565b6104a2565b9050919050565b6000819050919050565b6104eb836104b6565b6104ff6104f7826104d8565b848454610450565b825550505050565b600090565b610514610507565b61051f8184846104e2565b505050565b5b818110156105435761053860008261050c565b600181019050610525565b5050565b601f821115610588576105598161041e565b61056284610433565b81016020851015610571578190505b61058561057d85610433565b830182610524565b50505b505050565b600082821c905092915050565b60006105ab6000198460080261058d565b1980831691505092915050565b60006105c4838361059a565b9150826002028217905092915050565b6105dd82610314565b67ffffffffffffffff8111156105f6576105f56101a0565b5b61060082546103ed565b61060b828285610547565b600060209050601f83116001811461063e576000841561062c578287015190505b61063685826105b8565b86555061069e565b601f19841661064c8661041e565b60005b828110156106745784890151825560018201915060208501945060208101905061064f565b86831015610691578489015161068d601f89168261059a565b8355505b6001600288020188555050505b50505050505056fea264697066735822122026a5f1842d3356d8bfde5f4938c885011f65ce10c8e08e22a211adc6ceb910f864736f6c634300080f0033",
					"opcodes": "PUSH1 0x80 PUSH1 0x40 MSTORE CALLVALUE DUP1 ISZERO PUSH2 0x10 JUMPI PUSH1 0x0 DUP1 REVERT JUMPDEST POP PUSH2 0x6DC DUP1 PUSH2 0x20 PUSH1 0x0 CODECOPY PUSH1 0x0 RETURN INVALID PUSH1 0x80 PUSH1 0x40 MSTORE PUSH1 0x4 CALLDATASIZE LT PUSH2 0x29 JUMPI PUSH1 0x0 CALLDATALOAD PUSH1 0xE0 SHR DUP1 PUSH4 0x50DBADF EQ PUSH2 0x2E JUMPI DUP1 PUSH4 0x89EA642F EQ PUSH2 0x4A JUMPI JUMPDEST PUSH1 0x0 DUP1 REVERT JUMPDEST PUSH2 0x48 PUSH1 0x4 DUP1 CALLDATASIZE SUB DUP2 ADD SWAP1 PUSH2 0x43 SWAP2 SWAP1 PUSH2 0x2CB JUMP JUMPDEST PUSH2 0x75 JUMP JUMPDEST STOP JUMPDEST CALLVALUE DUP1 ISZERO PUSH2 0x56 JUMPI PUSH1 0x0 DUP1 REVERT JUMPDEST POP PUSH2 0x5F PUSH2 0xDF JUMP JUMPDEST PUSH1 0x40 MLOAD PUSH2 0x6C SWAP2 SWAP1 PUSH2 0x39C JUMP JUMPDEST PUSH1 0x40 MLOAD DUP1 SWAP2 SUB SWAP1 RETURN JUMPDEST PUSH8 0xDE0B6B3A7640000 CALLVALUE SUB PUSH2 0x95 JUMPI DUP1 PUSH1 0x0 SWAP1 DUP2 PUSH2 0x93 SWAP2 SWAP1 PUSH2 0x5D4 JUMP JUMPDEST POP JUMPDEST CALLER PUSH20 0xFFFFFFFFFFFFFFFFFFFFFFFFFFFFFFFFFFFFFFFF AND PUSH2 0x8FC CALLVALUE SWAP1 DUP2 ISZERO MUL SWAP1 PUSH1 0x40 MLOAD PUSH1 0x0 PUSH1 0x40 MLOAD DUP1 DUP4 SUB DUP2 DUP6 DUP9 DUP9 CALL SWAP4 POP POP POP POP ISZERO DUP1 ISZERO PUSH2 0xDB JUMPI RETURNDATASIZE PUSH1 0x0 DUP1 RETURNDATACOPY RETURNDATASIZE PUSH1 0x0 REVERT JUMPDEST POP POP JUMP JUMPDEST PUSH1 0x60 PUSH1 0x0 DUP1 SLOAD PUSH2 0xEE SWAP1 PUSH2 0x3ED JUMP JUMPDEST DUP1 PUSH1 0x1F ADD PUSH1 0x20 DUP1 SWAP2 DIV MUL PUSH1 0x20 ADD PUSH1 0x40 MLOAD SWAP1 DUP2 ADD PUSH1 0x40 MSTORE DUP1 SWAP3 SWAP2 SWAP1 DUP2 DUP2 MSTORE PUSH1 0x20 ADD DUP3 DUP1 SLOAD PUSH2 0x11A SWAP1 PUSH2 0x3ED JUMP JUMPDEST DUP1 ISZERO PUSH2 0x167 JUMPI DUP1 PUSH1 0x1F LT PUSH2 0x13C JUMPI PUSH2 0x100 DUP1 DUP4 SLOAD DIV MUL DUP4 MSTORE SWAP2 PUSH1 0x20 ADD SWAP2 PUSH2 0x167 JUMP JUMPDEST DUP3 ADD SWAP2 SWAP1 PUSH1 0x0 MSTORE PUSH1 0x20 PUSH1 0x0 KECCAK256 SWAP1 JUMPDEST DUP2 SLOAD DUP2 MSTORE SWAP1 PUSH1 0x1 ADD SWAP1 PUSH1 0x20 ADD DUP1 DUP4 GT PUSH2 0x14A JUMPI DUP3 SWAP1 SUB PUSH1 0x1F AND DUP3 ADD SWAP2 JUMPDEST POP POP POP POP POP SWAP1 POP SWAP1 JUMP JUMPDEST PUSH1 0x0 PUSH1 0x40 MLOAD SWAP1 POP SWAP1 JUMP JUMPDEST PUSH1 0x0 DUP1 REVERT JUMPDEST PUSH1 0x0 DUP1 REVERT JUMPDEST PUSH1 0x0 DUP1 REVERT JUMPDEST PUSH1 0x0 DUP1 REVERT JUMPDEST PUSH1 0x0 PUSH1 0x1F NOT PUSH1 0x1F DUP4 ADD AND SWAP1 POP SWAP2 SWAP1 POP JUMP JUMPDEST PUSH32 0x4E487B7100000000000000000000000000000000000000000000000000000000 PUSH1 0x0 MSTORE PUSH1 0x41 PUSH1 0x4 MSTORE PUSH1 0x24 PUSH1 0x0 REVERT JUMPDEST PUSH2 0x1D8 DUP3 PUSH2 0x18F JUMP JUMPDEST DUP2 ADD DUP2 DUP2 LT PUSH8 0xFFFFFFFFFFFFFFFF DUP3 GT OR ISZERO PUSH2 0x1F7 JUMPI PUSH2 0x1F6 PUSH2 0x1A0 JUMP JUMPDEST JUMPDEST DUP1 PUSH1 0x40 MSTORE POP POP POP JUMP JUMPDEST PUSH1 0x0 PUSH2 0x20A PUSH2 0x171 JUMP JUMPDEST SWAP1 POP PUSH2 0x216 DUP3 DUP3 PUSH2 0x1CF JUMP JUMPDEST SWAP2 SWAP1 POP JUMP JUMPDEST PUSH1 0x0 PUSH8 0xFFFFFFFFFFFFFFFF DUP3 GT ISZERO PUSH2 0x236 JUMPI PUSH2 0x235 PUSH2 0x1A0 JUMP JUMPDEST JUMPDEST PUSH2 0x23F DUP3 PUSH2 0x18F JUMP JUMPDEST SWAP1 POP PUSH1 0x20 DUP2 ADD SWAP1 POP SWAP2 SWAP1 POP JUMP JUMPDEST DUP3 DUP2 DUP4 CALLDATACOPY PUSH1 0x0 DUP4 DUP4 ADD MSTORE POP POP POP JUMP JUMPDEST PUSH1 0x0 PUSH2 0x26E PUSH2 0x269 DUP5 PUSH2 0x21B JUMP JUMPDEST PUSH2 0x200 JUMP JUMPDEST SWAP1 POP DUP3 DUP2 MSTORE PUSH1 0x20 DUP2 ADD DUP5 DUP5 DUP5 ADD GT ISZERO PUSH2 0x28A JUMPI PUSH2 0x289 PUSH2 0x18A JUMP JUMPDEST JUMPDEST PUSH2 0x295 DUP5 DUP3 DUP6 PUSH2 0x24C JUMP JUMPDEST POP SWAP4 SWAP3 POP POP POP JUMP JUMPDEST PUSH1 0x0 DUP3 PUSH1 0x1F DUP4 ADD SLT PUSH2 0x2B2 JUMPI PUSH2 0x2B1 PUSH2 0x185 JUMP JUMPDEST JUMPDEST DUP2 CALLDATALOAD PUSH2 0x2C2 DUP5 DUP3 PUSH1 0x20 DUP7 ADD PUSH2 0x25B JUMP JUMPDEST SWAP2 POP POP SWAP3 SWAP2 POP POP JUMP JUMPDEST PUSH1 0x0 PUSH1 0x20 DUP3 DUP5 SUB SLT ISZERO PUSH2 0x2E1 JUMPI PUSH2 0x2E0 PUSH2 0x17B JUMP JUMPDEST JUMPDEST PUSH1 0x0 DUP3 ADD CALLDATALOAD PUSH8 0xFFFFFFFFFFFFFFFF DUP2 GT ISZERO PUSH2 0x2FF JUMPI PUSH2 0x2FE PUSH2 0x180 JUMP JUMPDEST JUMPDEST PUSH2 0x30B DUP5 DUP3 DUP6 ADD PUSH2 0x29D JUMP JUMPDEST SWAP2 POP POP SWAP3 SWAP2 POP POP JUMP JUMPDEST PUSH1 0x0 DUP2 MLOAD SWAP1 POP SWAP2 SWAP1 POP JUMP JUMPDEST PUSH1 0x0 DUP3 DUP3 MSTORE PUSH1 0x20 DUP3 ADD SWAP1 POP SWAP3 SWAP2 POP POP JUMP JUMPDEST PUSH1 0x0 JUMPDEST DUP4 DUP2 LT ISZERO PUSH2 0x34E JUMPI DUP1 DUP3 ADD MLOAD DUP2 DUP5 ADD MSTORE PUSH1 0x20 DUP2 ADD SWAP1 POP PUSH2 0x333 JUMP JUMPDEST DUP4 DUP2 GT ISZERO PUSH2 0x35D JUMPI PUSH1 0x0 DUP5 DUP5 ADD MSTORE JUMPDEST POP POP POP POP JUMP JUMPDEST PUSH1 0x0 PUSH2 0x36E DUP3 PUSH2 0x314 JUMP JUMPDEST PUSH2 0x378 DUP2 DUP6 PUSH2 0x31F JUMP JUMPDEST SWAP4 POP PUSH2 0x388 DUP2 DUP6 PUSH1 0x20 DUP7 ADD PUSH2 0x330 JUMP JUMPDEST PUSH2 0x391 DUP2 PUSH2 0x18F JUMP JUMPDEST DUP5 ADD SWAP2 POP POP SWAP3 SWAP2 POP POP JUMP JUMPDEST PUSH1 0x0 PUSH1 0x20 DUP3 ADD SWAP1 POP DUP2 DUP2 SUB PUSH1 0x0 DUP4 ADD MSTORE PUSH2 0x3B6 DUP2 DUP5 PUSH2 0x363 JUMP JUMPDEST SWAP1 POP SWAP3 SWAP2 POP POP JUMP JUMPDEST PUSH32 0x4E487B7100000000000000000000000000000000000000000000000000000000 PUSH1 0x0 MSTORE PUSH1 0x22 PUSH1 0x4 MSTORE PUSH1 0x24 PUSH1 0x0 REVERT JUMPDEST PUSH1 0x0 PUSH1 0x2 DUP3 DIV SWAP1 POP PUSH1 0x1 DUP3 AND DUP1 PUSH2 0x405 JUMPI PUSH1 0x7F DUP3 AND SWAP2 POP JUMPDEST PUSH1 0x20 DUP3 LT DUP2 SUB PUSH2 0x418 JUMPI PUSH2 0x417 PUSH2 0x3BE JUMP JUMPDEST JUMPDEST POP SWAP2 SWAP1 POP JUMP JUMPDEST PUSH1 0x0 DUP2 SWAP1 POP DUP2 PUSH1 0x0 MSTORE PUSH1 0x20 PUSH1 0x0 KECCAK256 SWAP1 POP SWAP2 SWAP1 POP JUMP JUMPDEST PUSH1 0x0 PUSH1 0x20 PUSH1 0x1F DUP4 ADD DIV SWAP1 POP SWAP2 SWAP1 POP JUMP JUMPDEST PUSH1 0x0 DUP3 DUP3 SHL SWAP1 POP SWAP3 SWAP2 POP POP JUMP JUMPDEST PUSH1 0x0 PUSH1 0x8 DUP4 MUL PUSH2 0x480 PUSH32 0xFFFFFFFFFFFFFFFFFFFFFFFFFFFFFFFFFFFFFFFFFFFFFFFFFFFFFFFFFFFFFFFF DUP3 PUSH2 0x443 JUMP JUMPDEST PUSH2 0x48A DUP7 DUP4 PUSH2 0x443 JUMP JUMPDEST SWAP6 POP DUP1 NOT DUP5 AND SWAP4 POP DUP1 DUP7 AND DUP5 OR SWAP3 POP POP POP SWAP4 SWAP3 POP POP POP JUMP JUMPDEST PUSH1 0x0 DUP2 SWAP1 POP SWAP2 SWAP1 POP JUMP JUMPDEST PUSH1 0x0 DUP2 SWAP1 POP SWAP2 SWAP1 POP JUMP JUMPDEST PUSH1 0x0 PUSH2 0x4D1 PUSH2 0x4CC PUSH2 0x4C7 DUP5 PUSH2 0x4A2 JUMP JUMPDEST PUSH2 0x4AC JUMP JUMPDEST PUSH2 0x4A2 JUMP JUMPDEST SWAP1 POP SWAP2 SWAP1 POP JUMP JUMPDEST PUSH1 0x0 DUP2 SWAP1 POP SWAP2 SWAP1 POP JUMP JUMPDEST PUSH2 0x4EB DUP4 PUSH2 0x4B6 JUMP JUMPDEST PUSH2 0x4FF PUSH2 0x4F7 DUP3 PUSH2 0x4D8 JUMP JUMPDEST DUP5 DUP5 SLOAD PUSH2 0x450 JUMP JUMPDEST DUP3 SSTORE POP POP POP POP JUMP JUMPDEST PUSH1 0x0 SWAP1 JUMP JUMPDEST PUSH2 0x514 PUSH2 0x507 JUMP JUMPDEST PUSH2 0x51F DUP2 DUP5 DUP5 PUSH2 0x4E2 JUMP JUMPDEST POP POP POP JUMP JUMPDEST JUMPDEST DUP2 DUP2 LT ISZERO PUSH2 0x543 JUMPI PUSH2 0x538 PUSH1 0x0 DUP3 PUSH2 0x50C JUMP JUMPDEST PUSH1 0x1 DUP2 ADD SWAP1 POP PUSH2 0x525 JUMP JUMPDEST POP POP JUMP JUMPDEST PUSH1 0x1F DUP3 GT ISZERO PUSH2 0x588 JUMPI PUSH2 0x559 DUP2 PUSH2 0x41E JUMP JUMPDEST PUSH2 0x562 DUP5 PUSH2 0x433 JUMP JUMPDEST DUP2 ADD PUSH1 0x20 DUP6 LT ISZERO PUSH2 0x571 JUMPI DUP2 SWAP1 POP JUMPDEST PUSH2 0x585 PUSH2 0x57D DUP6 PUSH2 0x433 JUMP JUMPDEST DUP4 ADD DUP3 PUSH2 0x524 JUMP JUMPDEST POP POP JUMPDEST POP POP POP JUMP JUMPDEST PUSH1 0x0 DUP3 DUP3 SHR SWAP1 POP SWAP3 SWAP2 POP POP JUMP JUMPDEST PUSH1 0x0 PUSH2 0x5AB PUSH1 0x0 NOT DUP5 PUSH1 0x8 MUL PUSH2 0x58D JUMP JUMPDEST NOT DUP1 DUP4 AND SWAP2 POP POP SWAP3 SWAP2 POP POP JUMP JUMPDEST PUSH1 0x0 PUSH2 0x5C4 DUP4 DUP4 PUSH2 0x59A JUMP JUMPDEST SWAP2 POP DUP3 PUSH1 0x2 MUL DUP3 OR SWAP1 POP SWAP3 SWAP2 POP POP JUMP JUMPDEST PUSH2 0x5DD DUP3 PUSH2 0x314 JUMP JUMPDEST PUSH8 0xFFFFFFFFFFFFFFFF DUP2 GT ISZERO PUSH2 0x5F6 JUMPI PUSH2 0x5F5 PUSH2 0x1A0 JUMP JUMPDEST JUMPDEST PUSH2 0x600 DUP3 SLOAD PUSH2 0x3ED JUMP JUMPDEST PUSH2 0x60B DUP3 DUP3 DUP6 PUSH2 0x547 JUMP JUMPDEST PUSH1 0x0 PUSH1 0x20 SWAP1 POP PUSH1 0x1F DUP4 GT PUSH1 0x1 DUP2 EQ PUSH2 0x63E JUMPI PUSH1 0x0 DUP5 ISZERO PUSH2 0x62C JUMPI DUP3 DUP8 ADD MLOAD SWAP1 POP JUMPDEST PUSH2 0x636 DUP6 DUP3 PUSH2 0x5B8 JUMP JUMPDEST DUP7 SSTORE POP PUSH2 0x69E JUMP JUMPDEST PUSH1 0x1F NOT DUP5 AND PUSH2 0x64C DUP7 PUSH2 0x41E JUMP JUMPDEST PUSH1 0x0 JUMPDEST DUP3 DUP2 LT ISZERO PUSH2 0x674 JUMPI DUP5 DUP10 ADD MLOAD DUP3 SSTORE PUSH1 0x1 DUP3 ADD SWAP2 POP PUSH1 0x20 DUP6 ADD SWAP5 POP PUSH1 0x20 DUP2 ADD SWAP1 POP PUSH2 0x64F JUMP JUMPDEST DUP7 DUP4 LT ISZERO PUSH2 0x691 JUMPI DUP5 DUP10 ADD MLOAD PUSH2 0x68D PUSH1 0x1F DUP10 AND DUP3 PUSH2 0x59A JUMP JUMPDEST DUP4 SSTORE POP JUMPDEST PUSH1 0x1 PUSH1 0x2 DUP9 MUL ADD DUP9 SSTORE POP POP POP JUMPDEST POP POP POP POP POP POP JUMP INVALID LOG2 PUSH5 0x6970667358 0x22 SLT KECCAK256 0x26 0xA5 CALL DUP5 0x2D CALLER JUMP 0xD8 0xBF 0xDE 0x5F 0x49 CODESIZE 0xC8 DUP6 ADD 0x1F PUSH6 0xCE10C8E08E22 LOG2 GT 0xAD 0xC6 0xCE 0xB9 LT 0xF8 PUSH5 0x736F6C6343 STOP ADDMOD 0xF STOP CALLER "
				},
				"gasEstimates": {
					"creation": {
						"codeDepositCost": "351200",
						"executionCost": "386",
						"totalCost": "351586"
					},
					"external": {
						"getString()": "infinite",
						"sendMoney(string)": "infinite"
					}
				},
				"methodIdentifiers": {
					"getString()": "89ea642f",
					"sendMoney(string)": "050dbadf"
				}
			},
			"storageLayout": {
				"storage": [
					{
						"astId": 3,
						"contract": "contracts/payable.sol:PayableContract",
						"label": "myString",
						"offset": 0,
						"slot": "0",
						"type": "t_string_storage"
					}
				],
				"types": {
					"t_string_storage": {
						"encoding": "bytes",
						"label": "string",
						"numberOfBytes": "32"
					}
				}
			},
			"userdoc": {
				"kind": "user",
				"methods": {},
				"version": 1
			}
		}
	}
}