{
	"contracts/wallet44.sol": {
		"Wallet": {
			"abi": [
				{
					"inputs": [],
					"name": "deposit",
					"outputs": [],
					"stateMutability": "payable",
					"type": "function"
				},
				{
					"inputs": [
						{
							"internalType": "address",
							"name": "from",
							"type": "address"
						},
						{
							"internalType": "uint256",
							"name": "index",
							"type": "uint256"
						}
					],
					"name": "getbalance",
					"outputs": [
						{
							"components": [
								{
									"internalType": "uint256",
									"name": "amount",
									"type": "uint256"
								},
								{
									"internalType": "uint256",
									"name": "timestemp",
									"type": "uint256"
								}
							],
							"internalType": "struct Wallet.Transaction",
							"name": "",
							"type": "tuple"
						}
					],
					"stateMutability": "view",
					"type": "function"
				},
				{
					"inputs": [
						{
							"internalType": "address payable",
							"name": "to",
							"type": "address"
						},
						{
							"internalType": "uint256",
							"name": "amount",
							"type": "uint256"
						}
					],
					"name": "withdraw",
					"outputs": [],
					"stateMutability": "payable",
					"type": "function"
				}
			],
			"devdoc": {
				"kind": "dev",
				"methods": {},
				"version": 1
			},
			"evm": {
				"assembly": "    /* \"contracts/wallet44.sol\":25:1096  contract Wallet {... */\n  mstore(0x40, 0x80)\n  callvalue\n  dup1\n  iszero\n  tag_1\n  jumpi\n  0x00\n  dup1\n  revert\ntag_1:\n  pop\n  dataSize(sub_0)\n  dup1\n  dataOffset(sub_0)\n  0x00\n  codecopy\n  0x00\n  return\nstop\n\nsub_0: assembly {\n        /* \"contracts/wallet44.sol\":25:1096  contract Wallet {... */\n      mstore(0x40, 0x80)\n      jumpi(tag_1, lt(calldatasize, 0x04))\n      shr(0xe0, calldataload(0x00))\n      dup1\n      0x6d1837e2\n      eq\n      tag_2\n      jumpi\n      dup1\n      0xd0e30db0\n      eq\n      tag_3\n      jumpi\n      dup1\n      0xf3fef3a3\n      eq\n      tag_4\n      jumpi\n    tag_1:\n      0x00\n      dup1\n      revert\n        /* \"contracts/wallet44.sol\":377:517  function getbalance(address from , uint index) public view  returns( Transaction memory){... */\n    tag_2:\n      callvalue\n      dup1\n      iszero\n      tag_5\n      jumpi\n      0x00\n      dup1\n      revert\n    tag_5:\n      pop\n      tag_6\n      0x04\n      dup1\n      calldatasize\n      sub\n      dup2\n      add\n      swap1\n      tag_7\n      swap2\n      swap1\n      tag_8\n      jump\t// in\n    tag_7:\n      tag_9\n      jump\t// in\n    tag_6:\n      mload(0x40)\n      tag_10\n      swap2\n      swap1\n      tag_11\n      jump\t// in\n    tag_10:\n      mload(0x40)\n      dup1\n      swap2\n      sub\n      swap1\n      return\n        /* \"contracts/wallet44.sol\":523:775  function deposit() public payable {... */\n    tag_3:\n      tag_12\n      tag_13\n      jump\t// in\n    tag_12:\n      stop\n        /* \"contracts/wallet44.sol\":785:1094  function withdraw(address payable to , uint amount) public payable  {... */\n    tag_4:\n      tag_14\n      0x04\n      dup1\n      calldatasize\n      sub\n      dup2\n      add\n      swap1\n      tag_15\n      swap2\n      swap1\n      tag_16\n      jump\t// in\n    tag_15:\n      tag_17\n      jump\t// in\n    tag_14:\n      stop\n        /* \"contracts/wallet44.sol\":377:517  function getbalance(address from , uint index) public view  returns( Transaction memory){... */\n    tag_9:\n        /* \"contracts/wallet44.sol\":446:464  Transaction memory */\n      tag_18\n      tag_19\n      jump\t// in\n    tag_18:\n        /* \"contracts/wallet44.sol\":483:489  report */\n      0x00\n        /* \"contracts/wallet44.sol\":483:495  report[from] */\n      dup1\n        /* \"contracts/wallet44.sol\":490:494  from */\n      dup5\n        /* \"contracts/wallet44.sol\":483:495  report[from] */\n      0xffffffffffffffffffffffffffffffffffffffff\n      and\n      0xffffffffffffffffffffffffffffffffffffffff\n      and\n      dup2\n      mstore\n      0x20\n      add\n      swap1\n      dup2\n      mstore\n      0x20\n      add\n      0x00\n      keccak256\n        /* \"contracts/wallet44.sol\":483:503  report[from].deposit */\n      0x02\n      add\n        /* \"contracts/wallet44.sol\":483:510  report[from].deposit[index] */\n      0x00\n        /* \"contracts/wallet44.sol\":504:509  index */\n      dup4\n        /* \"contracts/wallet44.sol\":483:510  report[from].deposit[index] */\n      dup2\n      mstore\n      0x20\n      add\n      swap1\n      dup2\n      mstore\n      0x20\n      add\n      0x00\n      keccak256\n        /* \"contracts/wallet44.sol\":475:510  return  report[from].deposit[index] */\n      mload(0x40)\n      dup1\n      0x40\n      add\n      0x40\n      mstore\n      swap1\n      dup2\n      0x00\n      dup3\n      add\n      sload\n      dup2\n      mstore\n      0x20\n      add\n      0x01\n      dup3\n      add\n      sload\n      dup2\n      mstore\n      pop\n      pop\n      swap1\n      pop\n        /* \"contracts/wallet44.sol\":377:517  function getbalance(address from , uint index) public view  returns( Transaction memory){... */\n      swap3\n      swap2\n      pop\n      pop\n      jump\t// out\n        /* \"contracts/wallet44.sol\":523:775  function deposit() public payable {... */\n    tag_13:\n        /* \"contracts/wallet44.sol\":599:608  msg.value */\n      callvalue\n        /* \"contracts/wallet44.sol\":567:573  report */\n      0x00\n        /* \"contracts/wallet44.sol\":567:585  report[msg.sender] */\n      dup1\n        /* \"contracts/wallet44.sol\":574:584  msg.sender */\n      caller\n        /* \"contracts/wallet44.sol\":567:585  report[msg.sender] */\n      0xffffffffffffffffffffffffffffffffffffffff\n      and\n      0xffffffffffffffffffffffffffffffffffffffff\n      and\n      dup2\n      mstore\n      0x20\n      add\n      swap1\n      dup2\n      mstore\n      0x20\n      add\n      0x00\n      keccak256\n        /* \"contracts/wallet44.sol\":567:596  report[msg.sender].totBalance */\n      0x00\n      add\n      0x00\n        /* \"contracts/wallet44.sol\":567:608  report[msg.sender].totBalance+= msg.value */\n      dup3\n      dup3\n      sload\n      tag_22\n      swap2\n      swap1\n      tag_23\n      jump\t// in\n    tag_22:\n      swap3\n      pop\n      pop\n      dup2\n      swap1\n      sstore\n      pop\n        /* \"contracts/wallet44.sol\":684:722  Transaction(msg.value,block.timestamp) */\n      mload(0x40)\n      dup1\n      0x40\n      add\n      0x40\n      mstore\n      dup1\n        /* \"contracts/wallet44.sol\":696:705  msg.value */\n      callvalue\n        /* \"contracts/wallet44.sol\":684:722  Transaction(msg.value,block.timestamp) */\n      dup2\n      mstore\n      0x20\n      add\n        /* \"contracts/wallet44.sol\":706:721  block.timestamp */\n      timestamp\n        /* \"contracts/wallet44.sol\":684:722  Transaction(msg.value,block.timestamp) */\n      dup2\n      mstore\n      pop\n        /* \"contracts/wallet44.sol\":618:624  report */\n      0x00\n        /* \"contracts/wallet44.sol\":618:636  report[msg.sender] */\n      dup1\n        /* \"contracts/wallet44.sol\":625:635  msg.sender */\n      caller\n        /* \"contracts/wallet44.sol\":618:636  report[msg.sender] */\n      0xffffffffffffffffffffffffffffffffffffffff\n      and\n      0xffffffffffffffffffffffffffffffffffffffff\n      and\n      dup2\n      mstore\n      0x20\n      add\n      swap1\n      dup2\n      mstore\n      0x20\n      add\n      0x00\n      keccak256\n        /* \"contracts/wallet44.sol\":618:644  report[msg.sender].deposit */\n      0x02\n      add\n        /* \"contracts/wallet44.sol\":618:680  report[msg.sender].deposit[report[msg.sender].numtransactions] */\n      0x00\n        /* \"contracts/wallet44.sol\":645:651  report */\n      dup1\n        /* \"contracts/wallet44.sol\":645:663  report[msg.sender] */\n      0x00\n        /* \"contracts/wallet44.sol\":652:662  msg.sender */\n      caller\n        /* \"contracts/wallet44.sol\":645:663  report[msg.sender] */\n      0xffffffffffffffffffffffffffffffffffffffff\n      and\n      0xffffffffffffffffffffffffffffffffffffffff\n      and\n      dup2\n      mstore\n      0x20\n      add\n      swap1\n      dup2\n      mstore\n      0x20\n      add\n      0x00\n      keccak256\n        /* \"contracts/wallet44.sol\":645:679  report[msg.sender].numtransactions */\n      0x01\n      add\n      sload\n        /* \"contracts/wallet44.sol\":618:680  report[msg.sender].deposit[report[msg.sender].numtransactions] */\n      dup2\n      mstore\n      0x20\n      add\n      swap1\n      dup2\n      mstore\n      0x20\n      add\n      0x00\n      keccak256\n        /* \"contracts/wallet44.sol\":618:722  report[msg.sender].deposit[report[msg.sender].numtransactions] =  Transaction(msg.value,block.timestamp) */\n      0x00\n      dup3\n      add\n      mload\n      dup2\n      0x00\n      add\n      sstore\n      0x20\n      dup3\n      add\n      mload\n      dup2\n      0x01\n      add\n      sstore\n      swap1\n      pop\n      pop\n        /* \"contracts/wallet44.sol\":732:738  report */\n      0x00\n        /* \"contracts/wallet44.sol\":732:750  report[msg.sender] */\n      dup1\n        /* \"contracts/wallet44.sol\":739:749  msg.sender */\n      caller\n        /* \"contracts/wallet44.sol\":732:750  report[msg.sender] */\n      0xffffffffffffffffffffffffffffffffffffffff\n      and\n      0xffffffffffffffffffffffffffffffffffffffff\n      and\n      dup2\n      mstore\n      0x20\n      add\n      swap1\n      dup2\n      mstore\n      0x20\n      add\n      0x00\n      keccak256\n        /* \"contracts/wallet44.sol\":732:766  report[msg.sender].numtransactions */\n      0x01\n      add\n      0x00\n        /* \"contracts/wallet44.sol\":732:768  report[msg.sender].numtransactions++ */\n      dup2\n      sload\n      dup1\n      swap3\n      swap2\n      swap1\n      tag_24\n      swap1\n      tag_25\n      jump\t// in\n    tag_24:\n      swap2\n      swap1\n      pop\n      sstore\n      pop\n        /* \"contracts/wallet44.sol\":523:775  function deposit() public payable {... */\n      jump\t// out\n        /* \"contracts/wallet44.sol\":785:1094  function withdraw(address payable to , uint amount) public payable  {... */\n    tag_17:\n        /* \"contracts/wallet44.sol\":896:902  amount */\n      dup1\n        /* \"contracts/wallet44.sol\":863:869  report */\n      0x00\n        /* \"contracts/wallet44.sol\":863:881  report[msg.sender] */\n      dup1\n        /* \"contracts/wallet44.sol\":870:880  msg.sender */\n      caller\n        /* \"contracts/wallet44.sol\":863:881  report[msg.sender] */\n      0xffffffffffffffffffffffffffffffffffffffff\n      and\n      0xffffffffffffffffffffffffffffffffffffffff\n      and\n      dup2\n      mstore\n      0x20\n      add\n      swap1\n      dup2\n      mstore\n      0x20\n      add\n      0x00\n      keccak256\n        /* \"contracts/wallet44.sol\":863:892  report[msg.sender].totBalance */\n      0x00\n      add\n      0x00\n        /* \"contracts/wallet44.sol\":863:902  report[msg.sender].totBalance -= amount */\n      dup3\n      dup3\n      sload\n      tag_27\n      swap2\n      swap1\n      tag_28\n      jump\t// in\n    tag_27:\n      swap3\n      pop\n      pop\n      dup2\n      swap1\n      sstore\n      pop\n        /* \"contracts/wallet44.sol\":977:1015  Transaction(msg.value,block.timestamp) */\n      mload(0x40)\n      dup1\n      0x40\n      add\n      0x40\n      mstore\n      dup1\n        /* \"contracts/wallet44.sol\":989:998  msg.value */\n      callvalue\n        /* \"contracts/wallet44.sol\":977:1015  Transaction(msg.value,block.timestamp) */\n      dup2\n      mstore\n      0x20\n      add\n        /* \"contracts/wallet44.sol\":999:1014  block.timestamp */\n      timestamp\n        /* \"contracts/wallet44.sol\":977:1015  Transaction(msg.value,block.timestamp) */\n      dup2\n      mstore\n      pop\n        /* \"contracts/wallet44.sol\":912:918  report */\n      0x00\n        /* \"contracts/wallet44.sol\":912:930  report[msg.sender] */\n      dup1\n        /* \"contracts/wallet44.sol\":919:929  msg.sender */\n      caller\n        /* \"contracts/wallet44.sol\":912:930  report[msg.sender] */\n      0xffffffffffffffffffffffffffffffffffffffff\n      and\n      0xffffffffffffffffffffffffffffffffffffffff\n      and\n      dup2\n      mstore\n      0x20\n      add\n      swap1\n      dup2\n      mstore\n      0x20\n      add\n      0x00\n      keccak256\n        /* \"contracts/wallet44.sol\":912:940  report[msg.sender].withdrwas */\n      0x04\n      add\n        /* \"contracts/wallet44.sol\":912:973  report[msg.sender].withdrwas[report[msg.sender].numwithdraws] */\n      0x00\n        /* \"contracts/wallet44.sol\":941:947  report */\n      dup1\n        /* \"contracts/wallet44.sol\":941:959  report[msg.sender] */\n      0x00\n        /* \"contracts/wallet44.sol\":948:958  msg.sender */\n      caller\n        /* \"contracts/wallet44.sol\":941:959  report[msg.sender] */\n      0xffffffffffffffffffffffffffffffffffffffff\n      and\n      0xffffffffffffffffffffffffffffffffffffffff\n      and\n      dup2\n      mstore\n      0x20\n      add\n      swap1\n      dup2\n      mstore\n      0x20\n      add\n      0x00\n      keccak256\n        /* \"contracts/wallet44.sol\":941:972  report[msg.sender].numwithdraws */\n      0x03\n      add\n      sload\n        /* \"contracts/wallet44.sol\":912:973  report[msg.sender].withdrwas[report[msg.sender].numwithdraws] */\n      dup2\n      mstore\n      0x20\n      add\n      swap1\n      dup2\n      mstore\n      0x20\n      add\n      0x00\n      keccak256\n        /* \"contracts/wallet44.sol\":912:1015  report[msg.sender].withdrwas[report[msg.sender].numwithdraws] =  Transaction(msg.value,block.timestamp) */\n      0x00\n      dup3\n      add\n      mload\n      dup2\n      0x00\n      add\n      sstore\n      0x20\n      dup3\n      add\n      mload\n      dup2\n      0x01\n      add\n      sstore\n      swap1\n      pop\n      pop\n        /* \"contracts/wallet44.sol\":1025:1031  report */\n      0x00\n        /* \"contracts/wallet44.sol\":1025:1043  report[msg.sender] */\n      dup1\n        /* \"contracts/wallet44.sol\":1032:1042  msg.sender */\n      caller\n        /* \"contracts/wallet44.sol\":1025:1043  report[msg.sender] */\n      0xffffffffffffffffffffffffffffffffffffffff\n      and\n      0xffffffffffffffffffffffffffffffffffffffff\n      and\n      dup2\n      mstore\n      0x20\n      add\n      swap1\n      dup2\n      mstore\n      0x20\n      add\n      0x00\n      keccak256\n        /* \"contracts/wallet44.sol\":1025:1056  report[msg.sender].numwithdraws */\n      0x03\n      add\n      0x00\n        /* \"contracts/wallet44.sol\":1025:1058  report[msg.sender].numwithdraws++ */\n      dup2\n      sload\n      dup1\n      swap3\n      swap2\n      swap1\n      tag_29\n      swap1\n      tag_25\n      jump\t// in\n    tag_29:\n      swap2\n      swap1\n      pop\n      sstore\n      pop\n        /* \"contracts/wallet44.sol\":1068:1070  to */\n      dup2\n        /* \"contracts/wallet44.sol\":1068:1079  to.transfer */\n      0xffffffffffffffffffffffffffffffffffffffff\n      and\n        /* \"contracts/wallet44.sol\":1068:1087  to.transfer(amount) */\n      0x08fc\n        /* \"contracts/wallet44.sol\":1080:1086  amount */\n      dup3\n        /* \"contracts/wallet44.sol\":1068:1087  to.transfer(amount) */\n      swap1\n      dup2\n      iszero\n      mul\n      swap1\n      mload(0x40)\n      0x00\n      mload(0x40)\n      dup1\n      dup4\n      sub\n      dup2\n      dup6\n      dup9\n      dup9\n      call\n      swap4\n      pop\n      pop\n      pop\n      pop\n      iszero\n      dup1\n      iszero\n      tag_31\n      jumpi\n      returndatasize\n      0x00\n      dup1\n      returndatacopy\n      revert(0x00, returndatasize)\n    tag_31:\n      pop\n        /* \"contracts/wallet44.sol\":785:1094  function withdraw(address payable to , uint amount) public payable  {... */\n      pop\n      pop\n      jump\t// out\n    tag_19:\n      mload(0x40)\n      dup1\n      0x40\n      add\n      0x40\n      mstore\n      dup1\n      0x00\n      dup2\n      mstore\n      0x20\n      add\n      0x00\n      dup2\n      mstore\n      pop\n      swap1\n      jump\t// out\n        /* \"#utility.yul\":88:205   */\n    tag_33:\n        /* \"#utility.yul\":197:198   */\n      0x00\n        /* \"#utility.yul\":194:195   */\n      dup1\n        /* \"#utility.yul\":187:199   */\n      revert\n        /* \"#utility.yul\":334:460   */\n    tag_35:\n        /* \"#utility.yul\":371:378   */\n      0x00\n        /* \"#utility.yul\":411:453   */\n      0xffffffffffffffffffffffffffffffffffffffff\n        /* \"#utility.yul\":404:409   */\n      dup3\n        /* \"#utility.yul\":400:454   */\n      and\n        /* \"#utility.yul\":389:454   */\n      swap1\n      pop\n        /* \"#utility.yul\":334:460   */\n      swap2\n      swap1\n      pop\n      jump\t// out\n        /* \"#utility.yul\":466:562   */\n    tag_36:\n        /* \"#utility.yul\":503:510   */\n      0x00\n        /* \"#utility.yul\":532:556   */\n      tag_54\n        /* \"#utility.yul\":550:555   */\n      dup3\n        /* \"#utility.yul\":532:556   */\n      tag_35\n      jump\t// in\n    tag_54:\n        /* \"#utility.yul\":521:556   */\n      swap1\n      pop\n        /* \"#utility.yul\":466:562   */\n      swap2\n      swap1\n      pop\n      jump\t// out\n        /* \"#utility.yul\":568:690   */\n    tag_37:\n        /* \"#utility.yul\":641:665   */\n      tag_56\n        /* \"#utility.yul\":659:664   */\n      dup2\n        /* \"#utility.yul\":641:665   */\n      tag_36\n      jump\t// in\n    tag_56:\n        /* \"#utility.yul\":634:639   */\n      dup2\n        /* \"#utility.yul\":631:666   */\n      eq\n        /* \"#utility.yul\":621:684   */\n      tag_57\n      jumpi\n        /* \"#utility.yul\":680:681   */\n      0x00\n        /* \"#utility.yul\":677:678   */\n      dup1\n        /* \"#utility.yul\":670:682   */\n      revert\n        /* \"#utility.yul\":621:684   */\n    tag_57:\n        /* \"#utility.yul\":568:690   */\n      pop\n      jump\t// out\n        /* \"#utility.yul\":696:835   */\n    tag_38:\n        /* \"#utility.yul\":742:747   */\n      0x00\n        /* \"#utility.yul\":780:786   */\n      dup2\n        /* \"#utility.yul\":767:787   */\n      calldataload\n        /* \"#utility.yul\":758:787   */\n      swap1\n      pop\n        /* \"#utility.yul\":796:829   */\n      tag_59\n        /* \"#utility.yul\":823:828   */\n      dup2\n        /* \"#utility.yul\":796:829   */\n      tag_37\n      jump\t// in\n    tag_59:\n        /* \"#utility.yul\":696:835   */\n      swap3\n      swap2\n      pop\n      pop\n      jump\t// out\n        /* \"#utility.yul\":841:918   */\n    tag_39:\n        /* \"#utility.yul\":878:885   */\n      0x00\n        /* \"#utility.yul\":907:912   */\n      dup2\n        /* \"#utility.yul\":896:912   */\n      swap1\n      pop\n        /* \"#utility.yul\":841:918   */\n      swap2\n      swap1\n      pop\n      jump\t// out\n        /* \"#utility.yul\":924:1046   */\n    tag_40:\n        /* \"#utility.yul\":997:1021   */\n      tag_62\n        /* \"#utility.yul\":1015:1020   */\n      dup2\n        /* \"#utility.yul\":997:1021   */\n      tag_39\n      jump\t// in\n    tag_62:\n        /* \"#utility.yul\":990:995   */\n      dup2\n        /* \"#utility.yul\":987:1022   */\n      eq\n        /* \"#utility.yul\":977:1040   */\n      tag_63\n      jumpi\n        /* \"#utility.yul\":1036:1037   */\n      0x00\n        /* \"#utility.yul\":1033:1034   */\n      dup1\n        /* \"#utility.yul\":1026:1038   */\n      revert\n        /* \"#utility.yul\":977:1040   */\n    tag_63:\n        /* \"#utility.yul\":924:1046   */\n      pop\n      jump\t// out\n        /* \"#utility.yul\":1052:1191   */\n    tag_41:\n        /* \"#utility.yul\":1098:1103   */\n      0x00\n        /* \"#utility.yul\":1136:1142   */\n      dup2\n        /* \"#utility.yul\":1123:1143   */\n      calldataload\n        /* \"#utility.yul\":1114:1143   */\n      swap1\n      pop\n        /* \"#utility.yul\":1152:1185   */\n      tag_65\n        /* \"#utility.yul\":1179:1184   */\n      dup2\n        /* \"#utility.yul\":1152:1185   */\n      tag_40\n      jump\t// in\n    tag_65:\n        /* \"#utility.yul\":1052:1191   */\n      swap3\n      swap2\n      pop\n      pop\n      jump\t// out\n        /* \"#utility.yul\":1197:1671   */\n    tag_8:\n        /* \"#utility.yul\":1265:1271   */\n      0x00\n        /* \"#utility.yul\":1273:1279   */\n      dup1\n        /* \"#utility.yul\":1322:1324   */\n      0x40\n        /* \"#utility.yul\":1310:1319   */\n      dup4\n        /* \"#utility.yul\":1301:1308   */\n      dup6\n        /* \"#utility.yul\":1297:1320   */\n      sub\n        /* \"#utility.yul\":1293:1325   */\n      slt\n        /* \"#utility.yul\":1290:1409   */\n      iszero\n      tag_67\n      jumpi\n        /* \"#utility.yul\":1328:1407   */\n      tag_68\n      tag_33\n      jump\t// in\n    tag_68:\n        /* \"#utility.yul\":1290:1409   */\n    tag_67:\n        /* \"#utility.yul\":1448:1449   */\n      0x00\n        /* \"#utility.yul\":1473:1526   */\n      tag_69\n        /* \"#utility.yul\":1518:1525   */\n      dup6\n        /* \"#utility.yul\":1509:1515   */\n      dup3\n        /* \"#utility.yul\":1498:1507   */\n      dup7\n        /* \"#utility.yul\":1494:1516   */\n      add\n        /* \"#utility.yul\":1473:1526   */\n      tag_38\n      jump\t// in\n    tag_69:\n        /* \"#utility.yul\":1463:1526   */\n      swap3\n      pop\n        /* \"#utility.yul\":1419:1536   */\n      pop\n        /* \"#utility.yul\":1575:1577   */\n      0x20\n        /* \"#utility.yul\":1601:1654   */\n      tag_70\n        /* \"#utility.yul\":1646:1653   */\n      dup6\n        /* \"#utility.yul\":1637:1643   */\n      dup3\n        /* \"#utility.yul\":1626:1635   */\n      dup7\n        /* \"#utility.yul\":1622:1644   */\n      add\n        /* \"#utility.yul\":1601:1654   */\n      tag_41\n      jump\t// in\n    tag_70:\n        /* \"#utility.yul\":1591:1654   */\n      swap2\n      pop\n        /* \"#utility.yul\":1546:1664   */\n      pop\n        /* \"#utility.yul\":1197:1671   */\n      swap3\n      pop\n      swap3\n      swap1\n      pop\n      jump\t// out\n        /* \"#utility.yul\":1677:1785   */\n    tag_42:\n        /* \"#utility.yul\":1754:1778   */\n      tag_72\n        /* \"#utility.yul\":1772:1777   */\n      dup2\n        /* \"#utility.yul\":1754:1778   */\n      tag_39\n      jump\t// in\n    tag_72:\n        /* \"#utility.yul\":1749:1752   */\n      dup3\n        /* \"#utility.yul\":1742:1779   */\n      mstore\n        /* \"#utility.yul\":1677:1785   */\n      pop\n      pop\n      jump\t// out\n        /* \"#utility.yul\":1853:2369   */\n    tag_43:\n        /* \"#utility.yul\":2002:2006   */\n      0x40\n        /* \"#utility.yul\":1997:2000   */\n      dup3\n        /* \"#utility.yul\":1993:2007   */\n      add\n        /* \"#utility.yul\":2091:2095   */\n      0x00\n        /* \"#utility.yul\":2084:2089   */\n      dup3\n        /* \"#utility.yul\":2080:2096   */\n      add\n        /* \"#utility.yul\":2074:2097   */\n      mload\n        /* \"#utility.yul\":2110:2173   */\n      tag_74\n        /* \"#utility.yul\":2167:2171   */\n      0x00\n        /* \"#utility.yul\":2162:2165   */\n      dup6\n        /* \"#utility.yul\":2158:2172   */\n      add\n        /* \"#utility.yul\":2144:2156   */\n      dup3\n        /* \"#utility.yul\":2110:2173   */\n      tag_42\n      jump\t// in\n    tag_74:\n        /* \"#utility.yul\":2017:2183   */\n      pop\n        /* \"#utility.yul\":2270:2274   */\n      0x20\n        /* \"#utility.yul\":2263:2268   */\n      dup3\n        /* \"#utility.yul\":2259:2275   */\n      add\n        /* \"#utility.yul\":2253:2276   */\n      mload\n        /* \"#utility.yul\":2289:2352   */\n      tag_75\n        /* \"#utility.yul\":2346:2350   */\n      0x20\n        /* \"#utility.yul\":2341:2344   */\n      dup6\n        /* \"#utility.yul\":2337:2351   */\n      add\n        /* \"#utility.yul\":2323:2335   */\n      dup3\n        /* \"#utility.yul\":2289:2352   */\n      tag_42\n      jump\t// in\n    tag_75:\n        /* \"#utility.yul\":2193:2362   */\n      pop\n        /* \"#utility.yul\":1971:2369   */\n      pop\n        /* \"#utility.yul\":1853:2369   */\n      pop\n      pop\n      jump\t// out\n        /* \"#utility.yul\":2375:2701   */\n    tag_11:\n        /* \"#utility.yul\":2520:2524   */\n      0x00\n        /* \"#utility.yul\":2558:2560   */\n      0x40\n        /* \"#utility.yul\":2547:2556   */\n      dup3\n        /* \"#utility.yul\":2543:2561   */\n      add\n        /* \"#utility.yul\":2535:2561   */\n      swap1\n      pop\n        /* \"#utility.yul\":2571:2694   */\n      tag_77\n        /* \"#utility.yul\":2691:2692   */\n      0x00\n        /* \"#utility.yul\":2680:2689   */\n      dup4\n        /* \"#utility.yul\":2676:2693   */\n      add\n        /* \"#utility.yul\":2667:2673   */\n      dup5\n        /* \"#utility.yul\":2571:2694   */\n      tag_43\n      jump\t// in\n    tag_77:\n        /* \"#utility.yul\":2375:2701   */\n      swap3\n      swap2\n      pop\n      pop\n      jump\t// out\n        /* \"#utility.yul\":2707:2811   */\n    tag_44:\n        /* \"#utility.yul\":2752:2759   */\n      0x00\n        /* \"#utility.yul\":2781:2805   */\n      tag_79\n        /* \"#utility.yul\":2799:2804   */\n      dup3\n        /* \"#utility.yul\":2781:2805   */\n      tag_35\n      jump\t// in\n    tag_79:\n        /* \"#utility.yul\":2770:2805   */\n      swap1\n      pop\n        /* \"#utility.yul\":2707:2811   */\n      swap2\n      swap1\n      pop\n      jump\t// out\n        /* \"#utility.yul\":2817:2955   */\n    tag_45:\n        /* \"#utility.yul\":2898:2930   */\n      tag_81\n        /* \"#utility.yul\":2924:2929   */\n      dup2\n        /* \"#utility.yul\":2898:2930   */\n      tag_44\n      jump\t// in\n    tag_81:\n        /* \"#utility.yul\":2891:2896   */\n      dup2\n        /* \"#utility.yul\":2888:2931   */\n      eq\n        /* \"#utility.yul\":2878:2949   */\n      tag_82\n      jumpi\n        /* \"#utility.yul\":2945:2946   */\n      0x00\n        /* \"#utility.yul\":2942:2943   */\n      dup1\n        /* \"#utility.yul\":2935:2947   */\n      revert\n        /* \"#utility.yul\":2878:2949   */\n    tag_82:\n        /* \"#utility.yul\":2817:2955   */\n      pop\n      jump\t// out\n        /* \"#utility.yul\":2961:3116   */\n    tag_46:\n        /* \"#utility.yul\":3015:3020   */\n      0x00\n        /* \"#utility.yul\":3053:3059   */\n      dup2\n        /* \"#utility.yul\":3040:3060   */\n      calldataload\n        /* \"#utility.yul\":3031:3060   */\n      swap1\n      pop\n        /* \"#utility.yul\":3069:3110   */\n      tag_84\n        /* \"#utility.yul\":3104:3109   */\n      dup2\n        /* \"#utility.yul\":3069:3110   */\n      tag_45\n      jump\t// in\n    tag_84:\n        /* \"#utility.yul\":2961:3116   */\n      swap3\n      swap2\n      pop\n      pop\n      jump\t// out\n        /* \"#utility.yul\":3122:3612   */\n    tag_16:\n        /* \"#utility.yul\":3198:3204   */\n      0x00\n        /* \"#utility.yul\":3206:3212   */\n      dup1\n        /* \"#utility.yul\":3255:3257   */\n      0x40\n        /* \"#utility.yul\":3243:3252   */\n      dup4\n        /* \"#utility.yul\":3234:3241   */\n      dup6\n        /* \"#utility.yul\":3230:3253   */\n      sub\n        /* \"#utility.yul\":3226:3258   */\n      slt\n        /* \"#utility.yul\":3223:3342   */\n      iszero\n      tag_86\n      jumpi\n        /* \"#utility.yul\":3261:3340   */\n      tag_87\n      tag_33\n      jump\t// in\n    tag_87:\n        /* \"#utility.yul\":3223:3342   */\n    tag_86:\n        /* \"#utility.yul\":3381:3382   */\n      0x00\n        /* \"#utility.yul\":3406:3467   */\n      tag_88\n        /* \"#utility.yul\":3459:3466   */\n      dup6\n        /* \"#utility.yul\":3450:3456   */\n      dup3\n        /* \"#utility.yul\":3439:3448   */\n      dup7\n        /* \"#utility.yul\":3435:3457   */\n      add\n        /* \"#utility.yul\":3406:3467   */\n      tag_46\n      jump\t// in\n    tag_88:\n        /* \"#utility.yul\":3396:3467   */\n      swap3\n      pop\n        /* \"#utility.yul\":3352:3477   */\n      pop\n        /* \"#utility.yul\":3516:3518   */\n      0x20\n        /* \"#utility.yul\":3542:3595   */\n      tag_89\n        /* \"#utility.yul\":3587:3594   */\n      dup6\n        /* \"#utility.yul\":3578:3584   */\n      dup3\n        /* \"#utility.yul\":3567:3576   */\n      dup7\n        /* \"#utility.yul\":3563:3585   */\n      add\n        /* \"#utility.yul\":3542:3595   */\n      tag_41\n      jump\t// in\n    tag_89:\n        /* \"#utility.yul\":3532:3595   */\n      swap2\n      pop\n        /* \"#utility.yul\":3487:3605   */\n      pop\n        /* \"#utility.yul\":3122:3612   */\n      swap3\n      pop\n      swap3\n      swap1\n      pop\n      jump\t// out\n        /* \"#utility.yul\":3618:3798   */\n    tag_47:\n        /* \"#utility.yul\":3666:3743   */\n      0x4e487b7100000000000000000000000000000000000000000000000000000000\n        /* \"#utility.yul\":3663:3664   */\n      0x00\n        /* \"#utility.yul\":3656:3744   */\n      mstore\n        /* \"#utility.yul\":3763:3767   */\n      0x11\n        /* \"#utility.yul\":3760:3761   */\n      0x04\n        /* \"#utility.yul\":3753:3768   */\n      mstore\n        /* \"#utility.yul\":3787:3791   */\n      0x24\n        /* \"#utility.yul\":3784:3785   */\n      0x00\n        /* \"#utility.yul\":3777:3792   */\n      revert\n        /* \"#utility.yul\":3804:4109   */\n    tag_23:\n        /* \"#utility.yul\":3844:3847   */\n      0x00\n        /* \"#utility.yul\":3863:3883   */\n      tag_92\n        /* \"#utility.yul\":3881:3882   */\n      dup3\n        /* \"#utility.yul\":3863:3883   */\n      tag_39\n      jump\t// in\n    tag_92:\n        /* \"#utility.yul\":3858:3883   */\n      swap2\n      pop\n        /* \"#utility.yul\":3897:3917   */\n      tag_93\n        /* \"#utility.yul\":3915:3916   */\n      dup4\n        /* \"#utility.yul\":3897:3917   */\n      tag_39\n      jump\t// in\n    tag_93:\n        /* \"#utility.yul\":3892:3917   */\n      swap3\n      pop\n        /* \"#utility.yul\":4051:4052   */\n      dup3\n        /* \"#utility.yul\":3983:4049   */\n      0xffffffffffffffffffffffffffffffffffffffffffffffffffffffffffffffff\n        /* \"#utility.yul\":3979:4053   */\n      sub\n        /* \"#utility.yul\":3976:3977   */\n      dup3\n        /* \"#utility.yul\":3973:4054   */\n      gt\n        /* \"#utility.yul\":3970:4077   */\n      iszero\n      tag_94\n      jumpi\n        /* \"#utility.yul\":4057:4075   */\n      tag_95\n      tag_47\n      jump\t// in\n    tag_95:\n        /* \"#utility.yul\":3970:4077   */\n    tag_94:\n        /* \"#utility.yul\":4101:4102   */\n      dup3\n        /* \"#utility.yul\":4098:4099   */\n      dup3\n        /* \"#utility.yul\":4094:4103   */\n      add\n        /* \"#utility.yul\":4087:4103   */\n      swap1\n      pop\n        /* \"#utility.yul\":3804:4109   */\n      swap3\n      swap2\n      pop\n      pop\n      jump\t// out\n        /* \"#utility.yul\":4115:4348   */\n    tag_25:\n        /* \"#utility.yul\":4154:4157   */\n      0x00\n        /* \"#utility.yul\":4177:4201   */\n      tag_97\n        /* \"#utility.yul\":4195:4200   */\n      dup3\n        /* \"#utility.yul\":4177:4201   */\n      tag_39\n      jump\t// in\n    tag_97:\n        /* \"#utility.yul\":4168:4201   */\n      swap2\n      pop\n        /* \"#utility.yul\":4223:4289   */\n      0xffffffffffffffffffffffffffffffffffffffffffffffffffffffffffffffff\n        /* \"#utility.yul\":4216:4221   */\n      dup3\n        /* \"#utility.yul\":4213:4290   */\n      sub\n        /* \"#utility.yul\":4210:4313   */\n      tag_98\n      jumpi\n        /* \"#utility.yul\":4293:4311   */\n      tag_99\n      tag_47\n      jump\t// in\n    tag_99:\n        /* \"#utility.yul\":4210:4313   */\n    tag_98:\n        /* \"#utility.yul\":4340:4341   */\n      0x01\n        /* \"#utility.yul\":4333:4338   */\n      dup3\n        /* \"#utility.yul\":4329:4342   */\n      add\n        /* \"#utility.yul\":4322:4342   */\n      swap1\n      pop\n        /* \"#utility.yul\":4115:4348   */\n      swap2\n      swap1\n      pop\n      jump\t// out\n        /* \"#utility.yul\":4354:4545   */\n    tag_28:\n        /* \"#utility.yul\":4394:4398   */\n      0x00\n        /* \"#utility.yul\":4414:4434   */\n      tag_101\n        /* \"#utility.yul\":4432:4433   */\n      dup3\n        /* \"#utility.yul\":4414:4434   */\n      tag_39\n      jump\t// in\n    tag_101:\n        /* \"#utility.yul\":4409:4434   */\n      swap2\n      pop\n        /* \"#utility.yul\":4448:4468   */\n      tag_102\n        /* \"#utility.yul\":4466:4467   */\n      dup4\n        /* \"#utility.yul\":4448:4468   */\n      tag_39\n      jump\t// in\n    tag_102:\n        /* \"#utility.yul\":4443:4468   */\n      swap3\n      pop\n        /* \"#utility.yul\":4487:4488   */\n      dup3\n        /* \"#utility.yul\":4484:4485   */\n      dup3\n        /* \"#utility.yul\":4481:4489   */\n      lt\n        /* \"#utility.yul\":4478:4512   */\n      iszero\n      tag_103\n      jumpi\n        /* \"#utility.yul\":4492:4510   */\n      tag_104\n      tag_47\n      jump\t// in\n    tag_104:\n        /* \"#utility.yul\":4478:4512   */\n    tag_103:\n        /* \"#utility.yul\":4537:4538   */\n      dup3\n        /* \"#utility.yul\":4534:4535   */\n      dup3\n        /* \"#utility.yul\":4530:4539   */\n      sub\n        /* \"#utility.yul\":4522:4539   */\n      swap1\n      pop\n        /* \"#utility.yul\":4354:4545   */\n      swap3\n      swap2\n      pop\n      pop\n      jump\t// out\n\n    auxdata: 0xa264697066735822122008f02ff1ca5432aec7d5d463a5e3c1bfef1d30cf85f8988893a7f171868e38f564736f6c634300080f0033\n}\n",
				"bytecode": {
					"linkReferences": {},
					"object": "608060405234801561001057600080fd5b50610747806100206000396000f3fe6080604052600436106100345760003560e01c80636d1837e214610039578063d0e30db014610076578063f3fef3a314610080575b600080fd5b34801561004557600080fd5b50610060600480360381019061005b91906104f9565b61009c565b60405161006d9190610577565b60405180910390f35b61007e61011d565b005b61009a600480360381019061009591906105d0565b61028d565b005b6100a4610446565b6000808473ffffffffffffffffffffffffffffffffffffffff1673ffffffffffffffffffffffffffffffffffffffff168152602001908152602001600020600201600083815260200190815260200160002060405180604001604052908160008201548152602001600182015481525050905092915050565b346000803373ffffffffffffffffffffffffffffffffffffffff1673ffffffffffffffffffffffffffffffffffffffff168152602001908152602001600020600001600082825461016e919061063f565b925050819055506040518060400160405280348152602001428152506000803373ffffffffffffffffffffffffffffffffffffffff1673ffffffffffffffffffffffffffffffffffffffff16815260200190815260200160002060020160008060003373ffffffffffffffffffffffffffffffffffffffff1673ffffffffffffffffffffffffffffffffffffffff16815260200190815260200160002060010154815260200190815260200160002060008201518160000155602082015181600101559050506000803373ffffffffffffffffffffffffffffffffffffffff1673ffffffffffffffffffffffffffffffffffffffff168152602001908152602001600020600101600081548092919061028690610695565b9190505550565b806000803373ffffffffffffffffffffffffffffffffffffffff1673ffffffffffffffffffffffffffffffffffffffff16815260200190815260200160002060000160008282546102de91906106dd565b925050819055506040518060400160405280348152602001428152506000803373ffffffffffffffffffffffffffffffffffffffff1673ffffffffffffffffffffffffffffffffffffffff16815260200190815260200160002060040160008060003373ffffffffffffffffffffffffffffffffffffffff1673ffffffffffffffffffffffffffffffffffffffff16815260200190815260200160002060030154815260200190815260200160002060008201518160000155602082015181600101559050506000803373ffffffffffffffffffffffffffffffffffffffff1673ffffffffffffffffffffffffffffffffffffffff16815260200190815260200160002060030160008154809291906103f690610695565b91905055508173ffffffffffffffffffffffffffffffffffffffff166108fc829081150290604051600060405180830381858888f19350505050158015610441573d6000803e3d6000fd5b505050565b604051806040016040528060008152602001600081525090565b600080fd5b600073ffffffffffffffffffffffffffffffffffffffff82169050919050565b600061049082610465565b9050919050565b6104a081610485565b81146104ab57600080fd5b50565b6000813590506104bd81610497565b92915050565b6000819050919050565b6104d6816104c3565b81146104e157600080fd5b50565b6000813590506104f3816104cd565b92915050565b600080604083850312156105105761050f610460565b5b600061051e858286016104ae565b925050602061052f858286016104e4565b9150509250929050565b610542816104c3565b82525050565b60408201600082015161055e6000850182610539565b5060208201516105716020850182610539565b50505050565b600060408201905061058c6000830184610548565b92915050565b600061059d82610465565b9050919050565b6105ad81610592565b81146105b857600080fd5b50565b6000813590506105ca816105a4565b92915050565b600080604083850312156105e7576105e6610460565b5b60006105f5858286016105bb565b9250506020610606858286016104e4565b9150509250929050565b7f4e487b7100000000000000000000000000000000000000000000000000000000600052601160045260246000fd5b600061064a826104c3565b9150610655836104c3565b9250827fffffffffffffffffffffffffffffffffffffffffffffffffffffffffffffffff0382111561068a57610689610610565b5b828201905092915050565b60006106a0826104c3565b91507fffffffffffffffffffffffffffffffffffffffffffffffffffffffffffffffff82036106d2576106d1610610565b5b600182019050919050565b60006106e8826104c3565b91506106f3836104c3565b92508282101561070657610705610610565b5b82820390509291505056fea264697066735822122008f02ff1ca5432aec7d5d463a5e3c1bfef1d30cf85f8988893a7f171868e38f564736f6c634300080f0033",
					"opcodes": "PUSH1 0x80 PUSH1 0x40 MSTORE CALLVALUE DUP1 ISZERO PUSH2 0x10 JUMPI PUSH1 0x0 DUP1 REVERT JUMPDEST POP PUSH2 0x747 DUP1 PUSH2 0x20 PUSH1 0x0 CODECOPY PUSH1 0x0 RETURN INVALID PUSH1 0x80 PUSH1 0x40 MSTORE PUSH1 0x4 CALLDATASIZE LT PUSH2 0x34 JUMPI PUSH1 0x0 CALLDATALOAD PUSH1 0xE0 SHR DUP1 PUSH4 0x6D1837E2 EQ PUSH2 0x39 JUMPI DUP1 PUSH4 0xD0E30DB0 EQ PUSH2 0x76 JUMPI DUP1 PUSH4 0xF3FEF3A3 EQ PUSH2 0x80 JUMPI JUMPDEST PUSH1 0x0 DUP1 REVERT JUMPDEST CALLVALUE DUP1 ISZERO PUSH2 0x45 JUMPI PUSH1 0x0 DUP1 REVERT JUMPDEST POP PUSH2 0x60 PUSH1 0x4 DUP1 CALLDATASIZE SUB DUP2 ADD SWAP1 PUSH2 0x5B SWAP2 SWAP1 PUSH2 0x4F9 JUMP JUMPDEST PUSH2 0x9C JUMP JUMPDEST PUSH1 0x40 MLOAD PUSH2 0x6D SWAP2 SWAP1 PUSH2 0x577 JUMP JUMPDEST PUSH1 0x40 MLOAD DUP1 SWAP2 SUB SWAP1 RETURN JUMPDEST PUSH2 0x7E PUSH2 0x11D JUMP JUMPDEST STOP JUMPDEST PUSH2 0x9A PUSH1 0x4 DUP1 CALLDATASIZE SUB DUP2 ADD SWAP1 PUSH2 0x95 SWAP2 SWAP1 PUSH2 0x5D0 JUMP JUMPDEST PUSH2 0x28D JUMP JUMPDEST STOP JUMPDEST PUSH2 0xA4 PUSH2 0x446 JUMP JUMPDEST PUSH1 0x0 DUP1 DUP5 PUSH20 0xFFFFFFFFFFFFFFFFFFFFFFFFFFFFFFFFFFFFFFFF AND PUSH20 0xFFFFFFFFFFFFFFFFFFFFFFFFFFFFFFFFFFFFFFFF AND DUP2 MSTORE PUSH1 0x20 ADD SWAP1 DUP2 MSTORE PUSH1 0x20 ADD PUSH1 0x0 KECCAK256 PUSH1 0x2 ADD PUSH1 0x0 DUP4 DUP2 MSTORE PUSH1 0x20 ADD SWAP1 DUP2 MSTORE PUSH1 0x20 ADD PUSH1 0x0 KECCAK256 PUSH1 0x40 MLOAD DUP1 PUSH1 0x40 ADD PUSH1 0x40 MSTORE SWAP1 DUP2 PUSH1 0x0 DUP3 ADD SLOAD DUP2 MSTORE PUSH1 0x20 ADD PUSH1 0x1 DUP3 ADD SLOAD DUP2 MSTORE POP POP SWAP1 POP SWAP3 SWAP2 POP POP JUMP JUMPDEST CALLVALUE PUSH1 0x0 DUP1 CALLER PUSH20 0xFFFFFFFFFFFFFFFFFFFFFFFFFFFFFFFFFFFFFFFF AND PUSH20 0xFFFFFFFFFFFFFFFFFFFFFFFFFFFFFFFFFFFFFFFF AND DUP2 MSTORE PUSH1 0x20 ADD SWAP1 DUP2 MSTORE PUSH1 0x20 ADD PUSH1 0x0 KECCAK256 PUSH1 0x0 ADD PUSH1 0x0 DUP3 DUP3 SLOAD PUSH2 0x16E SWAP2 SWAP1 PUSH2 0x63F JUMP JUMPDEST SWAP3 POP POP DUP2 SWAP1 SSTORE POP PUSH1 0x40 MLOAD DUP1 PUSH1 0x40 ADD PUSH1 0x40 MSTORE DUP1 CALLVALUE DUP2 MSTORE PUSH1 0x20 ADD TIMESTAMP DUP2 MSTORE POP PUSH1 0x0 DUP1 CALLER PUSH20 0xFFFFFFFFFFFFFFFFFFFFFFFFFFFFFFFFFFFFFFFF AND PUSH20 0xFFFFFFFFFFFFFFFFFFFFFFFFFFFFFFFFFFFFFFFF AND DUP2 MSTORE PUSH1 0x20 ADD SWAP1 DUP2 MSTORE PUSH1 0x20 ADD PUSH1 0x0 KECCAK256 PUSH1 0x2 ADD PUSH1 0x0 DUP1 PUSH1 0x0 CALLER PUSH20 0xFFFFFFFFFFFFFFFFFFFFFFFFFFFFFFFFFFFFFFFF AND PUSH20 0xFFFFFFFFFFFFFFFFFFFFFFFFFFFFFFFFFFFFFFFF AND DUP2 MSTORE PUSH1 0x20 ADD SWAP1 DUP2 MSTORE PUSH1 0x20 ADD PUSH1 0x0 KECCAK256 PUSH1 0x1 ADD SLOAD DUP2 MSTORE PUSH1 0x20 ADD SWAP1 DUP2 MSTORE PUSH1 0x20 ADD PUSH1 0x0 KECCAK256 PUSH1 0x0 DUP3 ADD MLOAD DUP2 PUSH1 0x0 ADD SSTORE PUSH1 0x20 DUP3 ADD MLOAD DUP2 PUSH1 0x1 ADD SSTORE SWAP1 POP POP PUSH1 0x0 DUP1 CALLER PUSH20 0xFFFFFFFFFFFFFFFFFFFFFFFFFFFFFFFFFFFFFFFF AND PUSH20 0xFFFFFFFFFFFFFFFFFFFFFFFFFFFFFFFFFFFFFFFF AND DUP2 MSTORE PUSH1 0x20 ADD SWAP1 DUP2 MSTORE PUSH1 0x20 ADD PUSH1 0x0 KECCAK256 PUSH1 0x1 ADD PUSH1 0x0 DUP2 SLOAD DUP1 SWAP3 SWAP2 SWAP1 PUSH2 0x286 SWAP1 PUSH2 0x695 JUMP JUMPDEST SWAP2 SWAP1 POP SSTORE POP JUMP JUMPDEST DUP1 PUSH1 0x0 DUP1 CALLER PUSH20 0xFFFFFFFFFFFFFFFFFFFFFFFFFFFFFFFFFFFFFFFF AND PUSH20 0xFFFFFFFFFFFFFFFFFFFFFFFFFFFFFFFFFFFFFFFF AND DUP2 MSTORE PUSH1 0x20 ADD SWAP1 DUP2 MSTORE PUSH1 0x20 ADD PUSH1 0x0 KECCAK256 PUSH1 0x0 ADD PUSH1 0x0 DUP3 DUP3 SLOAD PUSH2 0x2DE SWAP2 SWAP1 PUSH2 0x6DD JUMP JUMPDEST SWAP3 POP POP DUP2 SWAP1 SSTORE POP PUSH1 0x40 MLOAD DUP1 PUSH1 0x40 ADD PUSH1 0x40 MSTORE DUP1 CALLVALUE DUP2 MSTORE PUSH1 0x20 ADD TIMESTAMP DUP2 MSTORE POP PUSH1 0x0 DUP1 CALLER PUSH20 0xFFFFFFFFFFFFFFFFFFFFFFFFFFFFFFFFFFFFFFFF AND PUSH20 0xFFFFFFFFFFFFFFFFFFFFFFFFFFFFFFFFFFFFFFFF AND DUP2 MSTORE PUSH1 0x20 ADD SWAP1 DUP2 MSTORE PUSH1 0x20 ADD PUSH1 0x0 KECCAK256 PUSH1 0x4 ADD PUSH1 0x0 DUP1 PUSH1 0x0 CALLER PUSH20 0xFFFFFFFFFFFFFFFFFFFFFFFFFFFFFFFFFFFFFFFF AND PUSH20 0xFFFFFFFFFFFFFFFFFFFFFFFFFFFFFFFFFFFFFFFF AND DUP2 MSTORE PUSH1 0x20 ADD SWAP1 DUP2 MSTORE PUSH1 0x20 ADD PUSH1 0x0 KECCAK256 PUSH1 0x3 ADD SLOAD DUP2 MSTORE PUSH1 0x20 ADD SWAP1 DUP2 MSTORE PUSH1 0x20 ADD PUSH1 0x0 KECCAK256 PUSH1 0x0 DUP3 ADD MLOAD DUP2 PUSH1 0x0 ADD SSTORE PUSH1 0x20 DUP3 ADD MLOAD DUP2 PUSH1 0x1 ADD SSTORE SWAP1 POP POP PUSH1 0x0 DUP1 CALLER PUSH20 0xFFFFFFFFFFFFFFFFFFFFFFFFFFFFFFFFFFFFFFFF AND PUSH20 0xFFFFFFFFFFFFFFFFFFFFFFFFFFFFFFFFFFFFFFFF AND DUP2 MSTORE PUSH1 0x20 ADD SWAP1 DUP2 MSTORE PUSH1 0x20 ADD PUSH1 0x0 KECCAK256 PUSH1 0x3 ADD PUSH1 0x0 DUP2 SLOAD DUP1 SWAP3 SWAP2 SWAP1 PUSH2 0x3F6 SWAP1 PUSH2 0x695 JUMP JUMPDEST SWAP2 SWAP1 POP SSTORE POP DUP2 PUSH20 0xFFFFFFFFFFFFFFFFFFFFFFFFFFFFFFFFFFFFFFFF AND PUSH2 0x8FC DUP3 SWAP1 DUP2 ISZERO MUL SWAP1 PUSH1 0x40 MLOAD PUSH1 0x0 PUSH1 0x40 MLOAD DUP1 DUP4 SUB DUP2 DUP6 DUP9 DUP9 CALL SWAP4 POP POP POP POP ISZERO DUP1 ISZERO PUSH2 0x441 JUMPI RETURNDATASIZE PUSH1 0x0 DUP1 RETURNDATACOPY RETURNDATASIZE PUSH1 0x0 REVERT JUMPDEST POP POP POP JUMP JUMPDEST PUSH1 0x40 MLOAD DUP1 PUSH1 0x40 ADD PUSH1 0x40 MSTORE DUP1 PUSH1 0x0 DUP2 MSTORE PUSH1 0x20 ADD PUSH1 0x0 DUP2 MSTORE POP SWAP1 JUMP JUMPDEST PUSH1 0x0 DUP1 REVERT JUMPDEST PUSH1 0x0 PUSH20 0xFFFFFFFFFFFFFFFFFFFFFFFFFFFFFFFFFFFFFFFF DUP3 AND SWAP1 POP SWAP2 SWAP1 POP JUMP JUMPDEST PUSH1 0x0 PUSH2 0x490 DUP3 PUSH2 0x465 JUMP JUMPDEST SWAP1 POP SWAP2 SWAP1 POP JUMP JUMPDEST PUSH2 0x4A0 DUP2 PUSH2 0x485 JUMP JUMPDEST DUP2 EQ PUSH2 0x4AB JUMPI PUSH1 0x0 DUP1 REVERT JUMPDEST POP JUMP JUMPDEST PUSH1 0x0 DUP2 CALLDATALOAD SWAP1 POP PUSH2 0x4BD DUP2 PUSH2 0x497 JUMP JUMPDEST SWAP3 SWAP2 POP POP JUMP JUMPDEST PUSH1 0x0 DUP2 SWAP1 POP SWAP2 SWAP1 POP JUMP JUMPDEST PUSH2 0x4D6 DUP2 PUSH2 0x4C3 JUMP JUMPDEST DUP2 EQ PUSH2 0x4E1 JUMPI PUSH1 0x0 DUP1 REVERT JUMPDEST POP JUMP JUMPDEST PUSH1 0x0 DUP2 CALLDATALOAD SWAP1 POP PUSH2 0x4F3 DUP2 PUSH2 0x4CD JUMP JUMPDEST SWAP3 SWAP2 POP POP JUMP JUMPDEST PUSH1 0x0 DUP1 PUSH1 0x40 DUP4 DUP6 SUB SLT ISZERO PUSH2 0x510 JUMPI PUSH2 0x50F PUSH2 0x460 JUMP JUMPDEST JUMPDEST PUSH1 0x0 PUSH2 0x51E DUP6 DUP3 DUP7 ADD PUSH2 0x4AE JUMP JUMPDEST SWAP3 POP POP PUSH1 0x20 PUSH2 0x52F DUP6 DUP3 DUP7 ADD PUSH2 0x4E4 JUMP JUMPDEST SWAP2 POP POP SWAP3 POP SWAP3 SWAP1 POP JUMP JUMPDEST PUSH2 0x542 DUP2 PUSH2 0x4C3 JUMP JUMPDEST DUP3 MSTORE POP POP JUMP JUMPDEST PUSH1 0x40 DUP3 ADD PUSH1 0x0 DUP3 ADD MLOAD PUSH2 0x55E PUSH1 0x0 DUP6 ADD DUP3 PUSH2 0x539 JUMP JUMPDEST POP PUSH1 0x20 DUP3 ADD MLOAD PUSH2 0x571 PUSH1 0x20 DUP6 ADD DUP3 PUSH2 0x539 JUMP JUMPDEST POP POP POP POP JUMP JUMPDEST PUSH1 0x0 PUSH1 0x40 DUP3 ADD SWAP1 POP PUSH2 0x58C PUSH1 0x0 DUP4 ADD DUP5 PUSH2 0x548 JUMP JUMPDEST SWAP3 SWAP2 POP POP JUMP JUMPDEST PUSH1 0x0 PUSH2 0x59D DUP3 PUSH2 0x465 JUMP JUMPDEST SWAP1 POP SWAP2 SWAP1 POP JUMP JUMPDEST PUSH2 0x5AD DUP2 PUSH2 0x592 JUMP JUMPDEST DUP2 EQ PUSH2 0x5B8 JUMPI PUSH1 0x0 DUP1 REVERT JUMPDEST POP JUMP JUMPDEST PUSH1 0x0 DUP2 CALLDATALOAD SWAP1 POP PUSH2 0x5CA DUP2 PUSH2 0x5A4 JUMP JUMPDEST SWAP3 SWAP2 POP POP JUMP JUMPDEST PUSH1 0x0 DUP1 PUSH1 0x40 DUP4 DUP6 SUB SLT ISZERO PUSH2 0x5E7 JUMPI PUSH2 0x5E6 PUSH2 0x460 JUMP JUMPDEST JUMPDEST PUSH1 0x0 PUSH2 0x5F5 DUP6 DUP3 DUP7 ADD PUSH2 0x5BB JUMP JUMPDEST SWAP3 POP POP PUSH1 0x20 PUSH2 0x606 DUP6 DUP3 DUP7 ADD PUSH2 0x4E4 JUMP JUMPDEST SWAP2 POP POP SWAP3 POP SWAP3 SWAP1 POP JUMP JUMPDEST PUSH32 0x4E487B7100000000000000000000000000000000000000000000000000000000 PUSH1 0x0 MSTORE PUSH1 0x11 PUSH1 0x4 MSTORE PUSH1 0x24 PUSH1 0x0 REVERT JUMPDEST PUSH1 0x0 PUSH2 0x64A DUP3 PUSH2 0x4C3 JUMP JUMPDEST SWAP2 POP PUSH2 0x655 DUP4 PUSH2 0x4C3 JUMP JUMPDEST SWAP3 POP DUP3 PUSH32 0xFFFFFFFFFFFFFFFFFFFFFFFFFFFFFFFFFFFFFFFFFFFFFFFFFFFFFFFFFFFFFFFF SUB DUP3 GT ISZERO PUSH2 0x68A JUMPI PUSH2 0x689 PUSH2 0x610 JUMP JUMPDEST JUMPDEST DUP3 DUP3 ADD SWAP1 POP SWAP3 SWAP2 POP POP JUMP JUMPDEST PUSH1 0x0 PUSH2 0x6A0 DUP3 PUSH2 0x4C3 JUMP JUMPDEST SWAP2 POP PUSH32 0xFFFFFFFFFFFFFFFFFFFFFFFFFFFFFFFFFFFFFFFFFFFFFFFFFFFFFFFFFFFFFFFF DUP3 SUB PUSH2 0x6D2 JUMPI PUSH2 0x6D1 PUSH2 0x610 JUMP JUMPDEST JUMPDEST PUSH1 0x1 DUP3 ADD SWAP1 POP SWAP2 SWAP1 POP JUMP JUMPDEST PUSH1 0x0 PUSH2 0x6E8 DUP3 PUSH2 0x4C3 JUMP JUMPDEST SWAP2 POP PUSH2 0x6F3 DUP4 PUSH2 0x4C3 JUMP JUMPDEST SWAP3 POP DUP3 DUP3 LT ISZERO PUSH2 0x706 JUMPI PUSH2 0x705 PUSH2 0x610 JUMP JUMPDEST JUMPDEST DUP3 DUP3 SUB SWAP1 POP SWAP3 SWAP2 POP POP JUMP INVALID LOG2 PUSH5 0x6970667358 0x22 SLT KECCAK256 ADDMOD CREATE 0x2F CALL 0xCA SLOAD ORIGIN 0xAE 0xC7 0xD5 0xD4 PUSH4 0xA5E3C1BF 0xEF SAR ADDRESS 0xCF DUP6 0xF8 SWAP9 DUP9 SWAP4 0xA7 CALL PUSH18 0x868E38F564736F6C634300080F0033000000 "
				},
				"gasEstimates": {
					"creation": {
						"codeDepositCost": "372600",
						"executionCost": "411",
						"totalCost": "373011"
					},
					"external": {
						"deposit()": "infinite",
						"getbalance(address,uint256)": "infinite",
						"withdraw(address,uint256)": "infinite"
					}
				},
				"methodIdentifiers": {
					"deposit()": "d0e30db0",
					"getbalance(address,uint256)": "6d1837e2",
					"withdraw(address,uint256)": "f3fef3a3"
				}
			},
			"storageLayout": {
				"storage": [
					{
						"astId": 28,
						"contract": "contracts/wallet44.sol:Wallet",
						"label": "report",
						"offset": 0,
						"slot": "0",
						"type": "t_mapping(t_address,t_struct(Balance)23_storage)"
					}
				],
				"types": {
					"t_address": {
						"encoding": "inplace",
						"label": "address",
						"numberOfBytes": "20"
					},
					"t_mapping(t_address,t_struct(Balance)23_storage)": {
						"encoding": "mapping",
						"key": "t_address",
						"label": "mapping(address => struct Wallet.Balance)",
						"numberOfBytes": "32",
						"value": "t_struct(Balance)23_storage"
					},
					"t_mapping(t_uint256,t_struct(Transaction)6_storage)": {
						"encoding": "mapping",
						"key": "t_uint256",
						"label": "mapping(uint256 => struct Wallet.Transaction)",
						"numberOfBytes": "32",
						"value": "t_struct(Transaction)6_storage"
					},
					"t_struct(Balance)23_storage": {
						"encoding": "inplace",
						"label": "struct Wallet.Balance",
						"members": [
							{
								"astId": 8,
								"contract": "contracts/wallet44.sol:Wallet",
								"label": "totBalance",
								"offset": 0,
								"slot": "0",
								"type": "t_uint256"
							},
							{
								"astId": 10,
								"contract": "contracts/wallet44.sol:Wallet",
								"label": "numtransactions",
								"offset": 0,
								"slot": "1",
								"type": "t_uint256"
							},
							{
								"astId": 15,
								"contract": "contracts/wallet44.sol:Wallet",
								"label": "deposit",
								"offset": 0,
								"slot": "2",
								"type": "t_mapping(t_uint256,t_struct(Transaction)6_storage)"
							},
							{
								"astId": 17,
								"contract": "contracts/wallet44.sol:Wallet",
								"label": "numwithdraws",
								"offset": 0,
								"slot": "3",
								"type": "t_uint256"
							},
							{
								"astId": 22,
								"contract": "contracts/wallet44.sol:Wallet",
								"label": "withdrwas",
								"offset": 0,
								"slot": "4",
								"type": "t_mapping(t_uint256,t_struct(Transaction)6_storage)"
							}
						],
						"numberOfBytes": "160"
					},
					"t_struct(Transaction)6_storage": {
						"encoding": "inplace",
						"label": "struct Wallet.Transaction",
						"members": [
							{
								"astId": 3,
								"contract": "contracts/wallet44.sol:Wallet",
								"label": "amount",
								"offset": 0,
								"slot": "0",
								"type": "t_uint256"
							},
							{
								"astId": 5,
								"contract": "contracts/wallet44.sol:Wallet",
								"label": "timestemp",
								"offset": 0,
								"slot": "1",
								"type": "t_uint256"
							}
						],
						"numberOfBytes": "64"
					},
					"t_uint256": {
						"encoding": "inplace",
						"label": "uint256",
						"numberOfBytes": "32"
					}
				}
			},
			"userdoc": {
				"kind": "user",
				"methods": {},
				"version": 1
			}
		}
	}
}