{
	"contracts/TryCath.sol": {
		"ErrorHandle": {
			"abi": [
				{
					"anonymous": false,
					"inputs": [
						{
							"indexed": false,
							"internalType": "string",
							"name": "message",
							"type": "string"
						}
					],
					"name": "LogError",
					"type": "event"
				},
				{
					"inputs": [],
					"name": "cathError",
					"outputs": [],
					"stateMutability": "nonpayable",
					"type": "function"
				}
			],
			"devdoc": {
				"kind": "dev",
				"methods": {},
				"version": 1
			},
			"evm": {
				"assembly": "    /* \"contracts/TryCath.sol\":263:520  contract ErrorHandle{... */\n  mstore(0x40, 0x80)\n  callvalue\n  dup1\n  iszero\n  tag_1\n  jumpi\n  0x00\n  dup1\n  revert\ntag_1:\n  pop\n  dataSize(sub_0)\n  dup1\n  dataOffset(sub_0)\n  0x00\n  codecopy\n  0x00\n  return\nstop\n\nsub_0: assembly {\n        /* \"contracts/TryCath.sol\":263:520  contract ErrorHandle{... */\n      mstore(0x40, 0x80)\n      callvalue\n      dup1\n      iszero\n      tag_1\n      jumpi\n      0x00\n      dup1\n      revert\n    tag_1:\n      pop\n      jumpi(tag_2, lt(calldatasize, 0x04))\n      shr(0xe0, calldataload(0x00))\n      dup1\n      0x2952d745\n      eq\n      tag_3\n      jumpi\n    tag_2:\n      0x00\n      dup1\n      revert\n        /* \"contracts/TryCath.sol\":326:518  function cathError() public {... */\n    tag_3:\n      tag_4\n      tag_5\n      jump\t// in\n    tag_4:\n      stop\n    tag_5:\n        /* \"contracts/TryCath.sol\":364:378  ErrorTryCath a */\n      0x00\n        /* \"contracts/TryCath.sol\":381:399  new ErrorTryCath() */\n      mload(0x40)\n      tag_7\n      swap1\n      tag_8\n      jump\t// in\n    tag_7:\n      mload(0x40)\n      dup1\n      swap2\n      sub\n      swap1\n      0x00\n      create\n      dup1\n      iszero\n      dup1\n      iszero\n      tag_9\n      jumpi\n      returndatasize\n      0x00\n      dup1\n      returndatacopy\n      revert(0x00, returndatasize)\n    tag_9:\n      pop\n        /* \"contracts/TryCath.sol\":364:399  ErrorTryCath a = new ErrorTryCath() */\n      swap1\n      pop\n        /* \"contracts/TryCath.sol\":413:414  a */\n      dup1\n        /* \"contracts/TryCath.sol\":413:421  a.aError */\n      0xffffffffffffffffffffffffffffffffffffffff\n      and\n      0xf442a72f\n        /* \"contracts/TryCath.sol\":413:423  a.aError() */\n      mload(0x40)\n      dup2\n      0xffffffff\n      and\n      0xe0\n      shl\n      dup2\n      mstore\n      0x04\n      add\n      0x00\n      mload(0x40)\n      dup1\n      dup4\n      sub\n      dup2\n      dup7\n      dup1\n      extcodesize\n      iszero\n      dup1\n      iszero\n      tag_10\n      jumpi\n      0x00\n      dup1\n      revert\n    tag_10:\n      pop\n      gas\n      staticcall\n      swap3\n      pop\n      pop\n      pop\n      dup1\n      iszero\n      tag_11\n      jumpi\n      pop\n      0x01\n    tag_11:\n        /* \"contracts/TryCath.sol\":409:512  try a.aError(){... */\n      tag_12\n      jumpi\n      tag_16\n      tag_17\n      jump\t// in\n    tag_16:\n      dup1\n      0x08c379a0\n      sub\n      tag_15\n      jumpi\n      pop\n      tag_18\n      tag_19\n      jump\t// in\n    tag_18:\n      dup1\n      tag_20\n      jumpi\n      pop\n      jump(tag_14)\n    tag_20:\n        /* \"contracts/TryCath.sol\":484:501  LogError(message) */\n      0xc35a0ec6603ff0b5966d7ca053a5f0984a70aad58a9a0ecb1349308815a4151a\n        /* \"contracts/TryCath.sol\":493:500  message */\n      dup2\n        /* \"contracts/TryCath.sol\":484:501  LogError(message) */\n      mload(0x40)\n      tag_21\n      swap2\n      swap1\n      tag_22\n      jump\t// in\n    tag_21:\n      mload(0x40)\n      dup1\n      swap2\n      sub\n      swap1\n      log1\n        /* \"contracts/TryCath.sol\":435:512  catch Error(string memory message){... */\n      pop\n        /* \"contracts/TryCath.sol\":409:512  try a.aError(){... */\n      jump(tag_13)\n    tag_15:\n      pop\n    tag_14:\n      returndatasize\n      0x00\n      dup1\n      returndatacopy\n      revert(0x00, returndatasize)\n    tag_13:\n      jump(tag_23)\n    tag_12:\n    tag_23:\n        /* \"contracts/TryCath.sol\":354:518  {... */\n      pop\n        /* \"contracts/TryCath.sol\":326:518  function cathError() public {... */\n      jump\t// out\n    tag_8:\n      dataSize(sub_0)\n      dup1\n      dataOffset(sub_0)\n      dup4\n      codecopy\n      add\n      swap1\n      jump\t// out\n        /* \"#utility.yul\":7:113   */\n    tag_24:\n        /* \"#utility.yul\":51:59   */\n      0x00\n        /* \"#utility.yul\":100:105   */\n      dup2\n        /* \"#utility.yul\":95:98   */\n      0xe0\n        /* \"#utility.yul\":91:106   */\n      shr\n        /* \"#utility.yul\":70:106   */\n      swap1\n      pop\n        /* \"#utility.yul\":7:113   */\n      swap2\n      swap1\n      pop\n      jump\t// out\n        /* \"#utility.yul\":119:302   */\n    tag_17:\n        /* \"#utility.yul\":154:157   */\n      0x00\n        /* \"#utility.yul\":192:193   */\n      0x03\n        /* \"#utility.yul\":174:190   */\n      returndatasize\n        /* \"#utility.yul\":171:194   */\n      gt\n        /* \"#utility.yul\":168:296   */\n      iszero\n      tag_36\n      jumpi\n        /* \"#utility.yul\":230:231   */\n      0x04\n        /* \"#utility.yul\":227:228   */\n      0x00\n        /* \"#utility.yul\":224:225   */\n      dup1\n        /* \"#utility.yul\":209:232   */\n      returndatacopy\n        /* \"#utility.yul\":252:286   */\n      tag_37\n        /* \"#utility.yul\":283:284   */\n      0x00\n        /* \"#utility.yul\":277:285   */\n      mload\n        /* \"#utility.yul\":252:286   */\n      tag_24\n      jump\t// in\n    tag_37:\n        /* \"#utility.yul\":245:286   */\n      swap1\n      pop\n        /* \"#utility.yul\":168:296   */\n    tag_36:\n        /* \"#utility.yul\":119:302   */\n      swap1\n      jump\t// out\n        /* \"#utility.yul\":308:383   */\n    tag_25:\n        /* \"#utility.yul\":341:347   */\n      0x00\n        /* \"#utility.yul\":374:376   */\n      0x40\n        /* \"#utility.yul\":368:377   */\n      mload\n        /* \"#utility.yul\":358:377   */\n      swap1\n      pop\n        /* \"#utility.yul\":308:383   */\n      swap1\n      jump\t// out\n        /* \"#utility.yul\":389:491   */\n    tag_26:\n        /* \"#utility.yul\":430:436   */\n      0x00\n        /* \"#utility.yul\":481:483   */\n      0x1f\n        /* \"#utility.yul\":477:484   */\n      not\n        /* \"#utility.yul\":472:474   */\n      0x1f\n        /* \"#utility.yul\":465:470   */\n      dup4\n        /* \"#utility.yul\":461:475   */\n      add\n        /* \"#utility.yul\":457:485   */\n      and\n        /* \"#utility.yul\":447:485   */\n      swap1\n      pop\n        /* \"#utility.yul\":389:491   */\n      swap2\n      swap1\n      pop\n      jump\t// out\n        /* \"#utility.yul\":497:677   */\n    tag_27:\n        /* \"#utility.yul\":545:622   */\n      0x4e487b7100000000000000000000000000000000000000000000000000000000\n        /* \"#utility.yul\":542:543   */\n      0x00\n        /* \"#utility.yul\":535:623   */\n      mstore\n        /* \"#utility.yul\":642:646   */\n      0x41\n        /* \"#utility.yul\":639:640   */\n      0x04\n        /* \"#utility.yul\":632:647   */\n      mstore\n        /* \"#utility.yul\":666:670   */\n      0x24\n        /* \"#utility.yul\":663:664   */\n      0x00\n        /* \"#utility.yul\":656:671   */\n      revert\n        /* \"#utility.yul\":683:964   */\n    tag_28:\n        /* \"#utility.yul\":766:793   */\n      tag_42\n        /* \"#utility.yul\":788:792   */\n      dup3\n        /* \"#utility.yul\":766:793   */\n      tag_26\n      jump\t// in\n    tag_42:\n        /* \"#utility.yul\":758:764   */\n      dup2\n        /* \"#utility.yul\":754:794   */\n      add\n        /* \"#utility.yul\":896:902   */\n      dup2\n        /* \"#utility.yul\":884:894   */\n      dup2\n        /* \"#utility.yul\":881:903   */\n      lt\n        /* \"#utility.yul\":860:878   */\n      0xffffffffffffffff\n        /* \"#utility.yul\":848:858   */\n      dup3\n        /* \"#utility.yul\":845:879   */\n      gt\n        /* \"#utility.yul\":842:904   */\n      or\n        /* \"#utility.yul\":839:927   */\n      iszero\n      tag_43\n      jumpi\n        /* \"#utility.yul\":907:925   */\n      tag_44\n      tag_27\n      jump\t// in\n    tag_44:\n        /* \"#utility.yul\":839:927   */\n    tag_43:\n        /* \"#utility.yul\":947:957   */\n      dup1\n        /* \"#utility.yul\":943:945   */\n      0x40\n        /* \"#utility.yul\":936:958   */\n      mstore\n        /* \"#utility.yul\":726:964   */\n      pop\n        /* \"#utility.yul\":683:964   */\n      pop\n      pop\n      jump\t// out\n        /* \"#utility.yul\":970:1681   */\n    tag_19:\n        /* \"#utility.yul\":1009:1012   */\n      0x00\n        /* \"#utility.yul\":1047:1051   */\n      0x44\n        /* \"#utility.yul\":1029:1045   */\n      returndatasize\n        /* \"#utility.yul\":1026:1052   */\n      lt\n        /* \"#utility.yul\":1055:1060   */\n      tag_45\n        /* \"#utility.yul\":1023:1062   */\n      jumpi\n        /* \"#utility.yul\":1084:1104   */\n      tag_47\n      tag_25\n      jump\t// in\n    tag_47:\n        /* \"#utility.yul\":1159:1160   */\n      0x04\n        /* \"#utility.yul\":1141:1157   */\n      returndatasize\n        /* \"#utility.yul\":1137:1161   */\n      sub\n        /* \"#utility.yul\":1134:1135   */\n      0x04\n        /* \"#utility.yul\":1128:1132   */\n      dup3\n        /* \"#utility.yul\":1113:1162   */\n      returndatacopy\n        /* \"#utility.yul\":1192:1196   */\n      dup1\n        /* \"#utility.yul\":1186:1197   */\n      mload\n        /* \"#utility.yul\":1291:1307   */\n      returndatasize\n        /* \"#utility.yul\":1284:1288   */\n      0x24\n        /* \"#utility.yul\":1276:1282   */\n      dup3\n        /* \"#utility.yul\":1272:1289   */\n      add\n        /* \"#utility.yul\":1269:1308   */\n      gt\n        /* \"#utility.yul\":1236:1254   */\n      0xffffffffffffffff\n        /* \"#utility.yul\":1228:1234   */\n      dup3\n        /* \"#utility.yul\":1225:1255   */\n      gt\n        /* \"#utility.yul\":1209:1322   */\n      or\n        /* \"#utility.yul\":1206:1352   */\n      iszero\n      tag_48\n      jumpi\n        /* \"#utility.yul\":1337:1342   */\n      pop\n      pop\n      jump(tag_45)\n        /* \"#utility.yul\":1206:1352   */\n    tag_48:\n        /* \"#utility.yul\":1383:1389   */\n      dup1\n        /* \"#utility.yul\":1377:1381   */\n      dup3\n        /* \"#utility.yul\":1373:1390   */\n      add\n        /* \"#utility.yul\":1419:1422   */\n      dup1\n        /* \"#utility.yul\":1413:1423   */\n      mload\n        /* \"#utility.yul\":1446:1464   */\n      0xffffffffffffffff\n        /* \"#utility.yul\":1438:1444   */\n      dup2\n        /* \"#utility.yul\":1435:1465   */\n      gt\n        /* \"#utility.yul\":1432:1475   */\n      iszero\n      tag_49\n      jumpi\n        /* \"#utility.yul\":1468:1473   */\n      pop\n      pop\n      pop\n      pop\n      jump(tag_45)\n        /* \"#utility.yul\":1432:1475   */\n    tag_49:\n        /* \"#utility.yul\":1516:1522   */\n      dup1\n        /* \"#utility.yul\":1509:1513   */\n      0x20\n        /* \"#utility.yul\":1504:1507   */\n      dup4\n        /* \"#utility.yul\":1500:1514   */\n      add\n        /* \"#utility.yul\":1496:1523   */\n      add\n        /* \"#utility.yul\":1575:1576   */\n      0x04\n        /* \"#utility.yul\":1557:1573   */\n      returndatasize\n        /* \"#utility.yul\":1553:1577   */\n      sub\n        /* \"#utility.yul\":1547:1551   */\n      dup6\n        /* \"#utility.yul\":1543:1578   */\n      add\n        /* \"#utility.yul\":1538:1541   */\n      dup2\n        /* \"#utility.yul\":1535:1579   */\n      gt\n        /* \"#utility.yul\":1532:1589   */\n      iszero\n      tag_50\n      jumpi\n        /* \"#utility.yul\":1582:1587   */\n      pop\n      pop\n      pop\n      pop\n      pop\n      jump(tag_45)\n        /* \"#utility.yul\":1532:1589   */\n    tag_50:\n        /* \"#utility.yul\":1599:1656   */\n      tag_51\n        /* \"#utility.yul\":1647:1653   */\n      dup3\n        /* \"#utility.yul\":1641:1645   */\n      0x20\n        /* \"#utility.yul\":1637:1654   */\n      add\n        /* \"#utility.yul\":1629:1635   */\n      dup6\n        /* \"#utility.yul\":1625:1655   */\n      add\n        /* \"#utility.yul\":1619:1623   */\n      dup7\n        /* \"#utility.yul\":1599:1656   */\n      tag_28\n      jump\t// in\n    tag_51:\n        /* \"#utility.yul\":1672:1675   */\n      dup3\n        /* \"#utility.yul\":1665:1675   */\n      swap6\n      pop\n        /* \"#utility.yul\":1013:1681   */\n      pop\n      pop\n      pop\n      pop\n      pop\n        /* \"#utility.yul\":970:1681   */\n    tag_45:\n      swap1\n      jump\t// out\n        /* \"#utility.yul\":1687:1786   */\n    tag_29:\n        /* \"#utility.yul\":1739:1745   */\n      0x00\n        /* \"#utility.yul\":1773:1778   */\n      dup2\n        /* \"#utility.yul\":1767:1779   */\n      mload\n        /* \"#utility.yul\":1757:1779   */\n      swap1\n      pop\n        /* \"#utility.yul\":1687:1786   */\n      swap2\n      swap1\n      pop\n      jump\t// out\n        /* \"#utility.yul\":1792:1961   */\n    tag_30:\n        /* \"#utility.yul\":1876:1887   */\n      0x00\n        /* \"#utility.yul\":1910:1916   */\n      dup3\n        /* \"#utility.yul\":1905:1908   */\n      dup3\n        /* \"#utility.yul\":1898:1917   */\n      mstore\n        /* \"#utility.yul\":1950:1954   */\n      0x20\n        /* \"#utility.yul\":1945:1948   */\n      dup3\n        /* \"#utility.yul\":1941:1955   */\n      add\n        /* \"#utility.yul\":1926:1955   */\n      swap1\n      pop\n        /* \"#utility.yul\":1792:1961   */\n      swap3\n      swap2\n      pop\n      pop\n      jump\t// out\n        /* \"#utility.yul\":1967:2274   */\n    tag_31:\n        /* \"#utility.yul\":2035:2036   */\n      0x00\n        /* \"#utility.yul\":2045:2158   */\n    tag_55:\n        /* \"#utility.yul\":2059:2065   */\n      dup4\n        /* \"#utility.yul\":2056:2057   */\n      dup2\n        /* \"#utility.yul\":2053:2066   */\n      lt\n        /* \"#utility.yul\":2045:2158   */\n      iszero\n      tag_57\n      jumpi\n        /* \"#utility.yul\":2144:2145   */\n      dup1\n        /* \"#utility.yul\":2139:2142   */\n      dup3\n        /* \"#utility.yul\":2135:2146   */\n      add\n        /* \"#utility.yul\":2129:2147   */\n      mload\n        /* \"#utility.yul\":2125:2126   */\n      dup2\n        /* \"#utility.yul\":2120:2123   */\n      dup5\n        /* \"#utility.yul\":2116:2127   */\n      add\n        /* \"#utility.yul\":2109:2148   */\n      mstore\n        /* \"#utility.yul\":2081:2083   */\n      0x20\n        /* \"#utility.yul\":2078:2079   */\n      dup2\n        /* \"#utility.yul\":2074:2084   */\n      add\n        /* \"#utility.yul\":2069:2084   */\n      swap1\n      pop\n        /* \"#utility.yul\":2045:2158   */\n      jump(tag_55)\n    tag_57:\n        /* \"#utility.yul\":2176:2182   */\n      dup4\n        /* \"#utility.yul\":2173:2174   */\n      dup2\n        /* \"#utility.yul\":2170:2183   */\n      gt\n        /* \"#utility.yul\":2167:2268   */\n      iszero\n      tag_58\n      jumpi\n        /* \"#utility.yul\":2256:2257   */\n      0x00\n        /* \"#utility.yul\":2247:2253   */\n      dup5\n        /* \"#utility.yul\":2242:2245   */\n      dup5\n        /* \"#utility.yul\":2238:2254   */\n      add\n        /* \"#utility.yul\":2231:2258   */\n      mstore\n        /* \"#utility.yul\":2167:2268   */\n    tag_58:\n        /* \"#utility.yul\":2016:2274   */\n      pop\n        /* \"#utility.yul\":1967:2274   */\n      pop\n      pop\n      pop\n      jump\t// out\n        /* \"#utility.yul\":2280:2644   */\n    tag_32:\n        /* \"#utility.yul\":2368:2371   */\n      0x00\n        /* \"#utility.yul\":2396:2435   */\n      tag_60\n        /* \"#utility.yul\":2429:2434   */\n      dup3\n        /* \"#utility.yul\":2396:2435   */\n      tag_29\n      jump\t// in\n    tag_60:\n        /* \"#utility.yul\":2451:2522   */\n      tag_61\n        /* \"#utility.yul\":2515:2521   */\n      dup2\n        /* \"#utility.yul\":2510:2513   */\n      dup6\n        /* \"#utility.yul\":2451:2522   */\n      tag_30\n      jump\t// in\n    tag_61:\n        /* \"#utility.yul\":2444:2522   */\n      swap4\n      pop\n        /* \"#utility.yul\":2531:2583   */\n      tag_62\n        /* \"#utility.yul\":2576:2582   */\n      dup2\n        /* \"#utility.yul\":2571:2574   */\n      dup6\n        /* \"#utility.yul\":2564:2568   */\n      0x20\n        /* \"#utility.yul\":2557:2562   */\n      dup7\n        /* \"#utility.yul\":2553:2569   */\n      add\n        /* \"#utility.yul\":2531:2583   */\n      tag_31\n      jump\t// in\n    tag_62:\n        /* \"#utility.yul\":2608:2637   */\n      tag_63\n        /* \"#utility.yul\":2630:2636   */\n      dup2\n        /* \"#utility.yul\":2608:2637   */\n      tag_26\n      jump\t// in\n    tag_63:\n        /* \"#utility.yul\":2603:2606   */\n      dup5\n        /* \"#utility.yul\":2599:2638   */\n      add\n        /* \"#utility.yul\":2592:2638   */\n      swap2\n      pop\n        /* \"#utility.yul\":2372:2644   */\n      pop\n        /* \"#utility.yul\":2280:2644   */\n      swap3\n      swap2\n      pop\n      pop\n      jump\t// out\n        /* \"#utility.yul\":2650:2963   */\n    tag_22:\n        /* \"#utility.yul\":2763:2767   */\n      0x00\n        /* \"#utility.yul\":2801:2803   */\n      0x20\n        /* \"#utility.yul\":2790:2799   */\n      dup3\n        /* \"#utility.yul\":2786:2804   */\n      add\n        /* \"#utility.yul\":2778:2804   */\n      swap1\n      pop\n        /* \"#utility.yul\":2850:2859   */\n      dup2\n        /* \"#utility.yul\":2844:2848   */\n      dup2\n        /* \"#utility.yul\":2840:2860   */\n      sub\n        /* \"#utility.yul\":2836:2837   */\n      0x00\n        /* \"#utility.yul\":2825:2834   */\n      dup4\n        /* \"#utility.yul\":2821:2838   */\n      add\n        /* \"#utility.yul\":2814:2861   */\n      mstore\n        /* \"#utility.yul\":2878:2956   */\n      tag_65\n        /* \"#utility.yul\":2951:2955   */\n      dup2\n        /* \"#utility.yul\":2942:2948   */\n      dup5\n        /* \"#utility.yul\":2878:2956   */\n      tag_32\n      jump\t// in\n    tag_65:\n        /* \"#utility.yul\":2870:2956   */\n      swap1\n      pop\n        /* \"#utility.yul\":2650:2963   */\n      swap3\n      swap2\n      pop\n      pop\n      jump\t// out\n    stop\n\n    sub_0: assembly {\n            /* \"contracts/TryCath.sol\":25:261  contract ErrorTryCath {... */\n          mstore(0x40, 0x80)\n          callvalue\n          dup1\n          iszero\n          tag_1\n          jumpi\n          0x00\n          dup1\n          revert\n        tag_1:\n          pop\n          dataSize(sub_0)\n          dup1\n          dataOffset(sub_0)\n          0x00\n          codecopy\n          0x00\n          return\n        stop\n\n        sub_0: assembly {\n                /* \"contracts/TryCath.sol\":25:261  contract ErrorTryCath {... */\n              mstore(0x40, 0x80)\n              callvalue\n              dup1\n              iszero\n              tag_1\n              jumpi\n              0x00\n              dup1\n              revert\n            tag_1:\n              pop\n              jumpi(tag_2, lt(calldatasize, 0x04))\n              shr(0xe0, calldataload(0x00))\n              dup1\n              0xf442a72f\n              eq\n              tag_3\n              jumpi\n            tag_2:\n              0x00\n              dup1\n              revert\n                /* \"contracts/TryCath.sol\":92:259  function aError() public pure {... */\n            tag_3:\n              tag_4\n              tag_5\n              jump\t// in\n            tag_4:\n              stop\n            tag_5:\n                /* \"contracts/TryCath.sol\":139:202  CustomError(\"Error call it function\",\"Error call it function2\") */\n              mload(0x40)\n              0x3068a42d00000000000000000000000000000000000000000000000000000000\n              dup2\n              mstore\n              0x04\n              add\n              tag_7\n              swap1\n              tag_8\n              jump\t// in\n            tag_7:\n              mload(0x40)\n              dup1\n              swap2\n              sub\n              swap1\n              revert\n                /* \"#utility.yul\":7:176   */\n            tag_12:\n                /* \"#utility.yul\":91:102   */\n              0x00\n                /* \"#utility.yul\":125:131   */\n              dup3\n                /* \"#utility.yul\":120:123   */\n              dup3\n                /* \"#utility.yul\":113:132   */\n              mstore\n                /* \"#utility.yul\":165:169   */\n              0x20\n                /* \"#utility.yul\":160:163   */\n              dup3\n                /* \"#utility.yul\":156:170   */\n              add\n                /* \"#utility.yul\":141:170   */\n              swap1\n              pop\n                /* \"#utility.yul\":7:176   */\n              swap3\n              swap2\n              pop\n              pop\n              jump\t// out\n                /* \"#utility.yul\":182:354   */\n            tag_13:\n                /* \"#utility.yul\":322:346   */\n              0x4572726f722063616c6c2069742066756e6374696f6e00000000000000000000\n                /* \"#utility.yul\":318:319   */\n              0x00\n                /* \"#utility.yul\":310:316   */\n              dup3\n                /* \"#utility.yul\":306:320   */\n              add\n                /* \"#utility.yul\":299:347   */\n              mstore\n                /* \"#utility.yul\":182:354   */\n              pop\n              jump\t// out\n                /* \"#utility.yul\":360:726   */\n            tag_14:\n                /* \"#utility.yul\":502:505   */\n              0x00\n                /* \"#utility.yul\":523:590   */\n              tag_23\n                /* \"#utility.yul\":587:589   */\n              0x16\n                /* \"#utility.yul\":582:585   */\n              dup4\n                /* \"#utility.yul\":523:590   */\n              tag_12\n              jump\t// in\n            tag_23:\n                /* \"#utility.yul\":516:590   */\n              swap2\n              pop\n                /* \"#utility.yul\":599:692   */\n              tag_24\n                /* \"#utility.yul\":688:691   */\n              dup3\n                /* \"#utility.yul\":599:692   */\n              tag_13\n              jump\t// in\n            tag_24:\n                /* \"#utility.yul\":717:719   */\n              0x20\n                /* \"#utility.yul\":712:715   */\n              dup3\n                /* \"#utility.yul\":708:720   */\n              add\n                /* \"#utility.yul\":701:720   */\n              swap1\n              pop\n                /* \"#utility.yul\":360:726   */\n              swap2\n              swap1\n              pop\n              jump\t// out\n                /* \"#utility.yul\":732:905   */\n            tag_15:\n                /* \"#utility.yul\":872:897   */\n              0x4572726f722063616c6c2069742066756e6374696f6e32000000000000000000\n                /* \"#utility.yul\":868:869   */\n              0x00\n                /* \"#utility.yul\":860:866   */\n              dup3\n                /* \"#utility.yul\":856:870   */\n              add\n                /* \"#utility.yul\":849:898   */\n              mstore\n                /* \"#utility.yul\":732:905   */\n              pop\n              jump\t// out\n                /* \"#utility.yul\":911:1277   */\n            tag_16:\n                /* \"#utility.yul\":1053:1056   */\n              0x00\n                /* \"#utility.yul\":1074:1141   */\n              tag_27\n                /* \"#utility.yul\":1138:1140   */\n              0x17\n                /* \"#utility.yul\":1133:1136   */\n              dup4\n                /* \"#utility.yul\":1074:1141   */\n              tag_12\n              jump\t// in\n            tag_27:\n                /* \"#utility.yul\":1067:1141   */\n              swap2\n              pop\n                /* \"#utility.yul\":1150:1243   */\n              tag_28\n                /* \"#utility.yul\":1239:1242   */\n              dup3\n                /* \"#utility.yul\":1150:1243   */\n              tag_15\n              jump\t// in\n            tag_28:\n                /* \"#utility.yul\":1268:1270   */\n              0x20\n                /* \"#utility.yul\":1263:1266   */\n              dup3\n                /* \"#utility.yul\":1259:1271   */\n              add\n                /* \"#utility.yul\":1252:1271   */\n              swap1\n              pop\n                /* \"#utility.yul\":911:1277   */\n              swap2\n              swap1\n              pop\n              jump\t// out\n                /* \"#utility.yul\":1283:2009   */\n            tag_8:\n                /* \"#utility.yul\":1550:1554   */\n              0x00\n                /* \"#utility.yul\":1588:1590   */\n              0x40\n                /* \"#utility.yul\":1577:1586   */\n              dup3\n                /* \"#utility.yul\":1573:1591   */\n              add\n                /* \"#utility.yul\":1565:1591   */\n              swap1\n              pop\n                /* \"#utility.yul\":1637:1646   */\n              dup2\n                /* \"#utility.yul\":1631:1635   */\n              dup2\n                /* \"#utility.yul\":1627:1647   */\n              sub\n                /* \"#utility.yul\":1623:1624   */\n              0x00\n                /* \"#utility.yul\":1612:1621   */\n              dup4\n                /* \"#utility.yul\":1608:1625   */\n              add\n                /* \"#utility.yul\":1601:1648   */\n              mstore\n                /* \"#utility.yul\":1665:1796   */\n              tag_30\n                /* \"#utility.yul\":1791:1795   */\n              dup2\n                /* \"#utility.yul\":1665:1796   */\n              tag_14\n              jump\t// in\n            tag_30:\n                /* \"#utility.yul\":1657:1796   */\n              swap1\n              pop\n                /* \"#utility.yul\":1843:1852   */\n              dup2\n                /* \"#utility.yul\":1837:1841   */\n              dup2\n                /* \"#utility.yul\":1833:1853   */\n              sub\n                /* \"#utility.yul\":1828:1830   */\n              0x20\n                /* \"#utility.yul\":1817:1826   */\n              dup4\n                /* \"#utility.yul\":1813:1831   */\n              add\n                /* \"#utility.yul\":1806:1854   */\n              mstore\n                /* \"#utility.yul\":1871:2002   */\n              tag_31\n                /* \"#utility.yul\":1997:2001   */\n              dup2\n                /* \"#utility.yul\":1871:2002   */\n              tag_16\n              jump\t// in\n            tag_31:\n                /* \"#utility.yul\":1863:2002   */\n              swap1\n              pop\n                /* \"#utility.yul\":1283:2009   */\n              swap2\n              swap1\n              pop\n              jump\t// out\n\n            auxdata: 0xa26469706673582212206d1d2106f32ab5961e16f0db6125ae468faf8b76cbfb3581411245be11ab326564736f6c634300080f0033\n        }\n    }\n\n    auxdata: 0xa264697066735822122019ed6cc85439c4ba5f7d347ed87a028b01ac299c03f40e261a2a6309f111fa6764736f6c634300080f0033\n}\n",
				"bytecode": {
					"linkReferences": {},
					"object": "608060405234801561001057600080fd5b50610509806100206000396000f3fe608060405234801561001057600080fd5b506004361061002b5760003560e01c80632952d74514610030575b600080fd5b61003861003a565b005b60006040516100489061013b565b604051809103906000f080158015610064573d6000803e3d6000fd5b5090508073ffffffffffffffffffffffffffffffffffffffff1663f442a72f6040518163ffffffff1660e01b815260040160006040518083038186803b1580156100ad57600080fd5b505afa9250505080156100be575060015b610137576100ca610155565b806308c379a00361012657506100de6101f2565b806100e95750610128565b7fc35a0ec6603ff0b5966d7ca053a5f0984a70aad58a9a0ecb1349308815a4151a81604051610118919061030a565b60405180910390a150610132565b505b3d6000803e3d6000fd5b610138565b5b50565b6101a78061032d83390190565b60008160e01c9050919050565b600060033d11156101745760046000803e610171600051610148565b90505b90565b6000604051905090565b6000601f19601f8301169050919050565b7f4e487b7100000000000000000000000000000000000000000000000000000000600052604160045260246000fd5b6101ca82610181565b810181811067ffffffffffffffff821117156101e9576101e8610192565b5b80604052505050565b600060443d1061027f57610204610177565b60043d036004823e80513d602482011167ffffffffffffffff8211171561022c57505061027f565b808201805167ffffffffffffffff81111561024a575050505061027f565b80602083010160043d03850181111561026757505050505061027f565b610276826020018501866101c1565b82955050505050505b90565b600081519050919050565b600082825260208201905092915050565b60005b838110156102bc5780820151818401526020810190506102a1565b838111156102cb576000848401525b50505050565b60006102dc82610282565b6102e6818561028d565b93506102f681856020860161029e565b6102ff81610181565b840191505092915050565b6000602082019050818103600083015261032481846102d1565b90509291505056fe608060405234801561001057600080fd5b50610187806100206000396000f3fe608060405234801561001057600080fd5b506004361061002b5760003560e01c8063f442a72f14610030575b600080fd5b61003861003a565b005b6040517f3068a42d00000000000000000000000000000000000000000000000000000000815260040161006c9061011e565b60405180910390fd5b600082825260208201905092915050565b7f4572726f722063616c6c2069742066756e6374696f6e00000000000000000000600082015250565b60006100bc601683610075565b91506100c782610086565b602082019050919050565b7f4572726f722063616c6c2069742066756e6374696f6e32000000000000000000600082015250565b6000610108601783610075565b9150610113826100d2565b602082019050919050565b60006040820190508181036000830152610137816100af565b9050818103602083015261014a816100fb565b905091905056fea26469706673582212206d1d2106f32ab5961e16f0db6125ae468faf8b76cbfb3581411245be11ab326564736f6c634300080f0033a264697066735822122019ed6cc85439c4ba5f7d347ed87a028b01ac299c03f40e261a2a6309f111fa6764736f6c634300080f0033",
					"opcodes": "PUSH1 0x80 PUSH1 0x40 MSTORE CALLVALUE DUP1 ISZERO PUSH2 0x10 JUMPI PUSH1 0x0 DUP1 REVERT JUMPDEST POP PUSH2 0x509 DUP1 PUSH2 0x20 PUSH1 0x0 CODECOPY PUSH1 0x0 RETURN INVALID PUSH1 0x80 PUSH1 0x40 MSTORE CALLVALUE DUP1 ISZERO PUSH2 0x10 JUMPI PUSH1 0x0 DUP1 REVERT JUMPDEST POP PUSH1 0x4 CALLDATASIZE LT PUSH2 0x2B JUMPI PUSH1 0x0 CALLDATALOAD PUSH1 0xE0 SHR DUP1 PUSH4 0x2952D745 EQ PUSH2 0x30 JUMPI JUMPDEST PUSH1 0x0 DUP1 REVERT JUMPDEST PUSH2 0x38 PUSH2 0x3A JUMP JUMPDEST STOP JUMPDEST PUSH1 0x0 PUSH1 0x40 MLOAD PUSH2 0x48 SWAP1 PUSH2 0x13B JUMP JUMPDEST PUSH1 0x40 MLOAD DUP1 SWAP2 SUB SWAP1 PUSH1 0x0 CREATE DUP1 ISZERO DUP1 ISZERO PUSH2 0x64 JUMPI RETURNDATASIZE PUSH1 0x0 DUP1 RETURNDATACOPY RETURNDATASIZE PUSH1 0x0 REVERT JUMPDEST POP SWAP1 POP DUP1 PUSH20 0xFFFFFFFFFFFFFFFFFFFFFFFFFFFFFFFFFFFFFFFF AND PUSH4 0xF442A72F PUSH1 0x40 MLOAD DUP2 PUSH4 0xFFFFFFFF AND PUSH1 0xE0 SHL DUP2 MSTORE PUSH1 0x4 ADD PUSH1 0x0 PUSH1 0x40 MLOAD DUP1 DUP4 SUB DUP2 DUP7 DUP1 EXTCODESIZE ISZERO DUP1 ISZERO PUSH2 0xAD JUMPI PUSH1 0x0 DUP1 REVERT JUMPDEST POP GAS STATICCALL SWAP3 POP POP POP DUP1 ISZERO PUSH2 0xBE JUMPI POP PUSH1 0x1 JUMPDEST PUSH2 0x137 JUMPI PUSH2 0xCA PUSH2 0x155 JUMP JUMPDEST DUP1 PUSH4 0x8C379A0 SUB PUSH2 0x126 JUMPI POP PUSH2 0xDE PUSH2 0x1F2 JUMP JUMPDEST DUP1 PUSH2 0xE9 JUMPI POP PUSH2 0x128 JUMP JUMPDEST PUSH32 0xC35A0EC6603FF0B5966D7CA053A5F0984A70AAD58A9A0ECB1349308815A4151A DUP2 PUSH1 0x40 MLOAD PUSH2 0x118 SWAP2 SWAP1 PUSH2 0x30A JUMP JUMPDEST PUSH1 0x40 MLOAD DUP1 SWAP2 SUB SWAP1 LOG1 POP PUSH2 0x132 JUMP JUMPDEST POP JUMPDEST RETURNDATASIZE PUSH1 0x0 DUP1 RETURNDATACOPY RETURNDATASIZE PUSH1 0x0 REVERT JUMPDEST PUSH2 0x138 JUMP JUMPDEST JUMPDEST POP JUMP JUMPDEST PUSH2 0x1A7 DUP1 PUSH2 0x32D DUP4 CODECOPY ADD SWAP1 JUMP JUMPDEST PUSH1 0x0 DUP2 PUSH1 0xE0 SHR SWAP1 POP SWAP2 SWAP1 POP JUMP JUMPDEST PUSH1 0x0 PUSH1 0x3 RETURNDATASIZE GT ISZERO PUSH2 0x174 JUMPI PUSH1 0x4 PUSH1 0x0 DUP1 RETURNDATACOPY PUSH2 0x171 PUSH1 0x0 MLOAD PUSH2 0x148 JUMP JUMPDEST SWAP1 POP JUMPDEST SWAP1 JUMP JUMPDEST PUSH1 0x0 PUSH1 0x40 MLOAD SWAP1 POP SWAP1 JUMP JUMPDEST PUSH1 0x0 PUSH1 0x1F NOT PUSH1 0x1F DUP4 ADD AND SWAP1 POP SWAP2 SWAP1 POP JUMP JUMPDEST PUSH32 0x4E487B7100000000000000000000000000000000000000000000000000000000 PUSH1 0x0 MSTORE PUSH1 0x41 PUSH1 0x4 MSTORE PUSH1 0x24 PUSH1 0x0 REVERT JUMPDEST PUSH2 0x1CA DUP3 PUSH2 0x181 JUMP JUMPDEST DUP2 ADD DUP2 DUP2 LT PUSH8 0xFFFFFFFFFFFFFFFF DUP3 GT OR ISZERO PUSH2 0x1E9 JUMPI PUSH2 0x1E8 PUSH2 0x192 JUMP JUMPDEST JUMPDEST DUP1 PUSH1 0x40 MSTORE POP POP POP JUMP JUMPDEST PUSH1 0x0 PUSH1 0x44 RETURNDATASIZE LT PUSH2 0x27F JUMPI PUSH2 0x204 PUSH2 0x177 JUMP JUMPDEST PUSH1 0x4 RETURNDATASIZE SUB PUSH1 0x4 DUP3 RETURNDATACOPY DUP1 MLOAD RETURNDATASIZE PUSH1 0x24 DUP3 ADD GT PUSH8 0xFFFFFFFFFFFFFFFF DUP3 GT OR ISZERO PUSH2 0x22C JUMPI POP POP PUSH2 0x27F JUMP JUMPDEST DUP1 DUP3 ADD DUP1 MLOAD PUSH8 0xFFFFFFFFFFFFFFFF DUP2 GT ISZERO PUSH2 0x24A JUMPI POP POP POP POP PUSH2 0x27F JUMP JUMPDEST DUP1 PUSH1 0x20 DUP4 ADD ADD PUSH1 0x4 RETURNDATASIZE SUB DUP6 ADD DUP2 GT ISZERO PUSH2 0x267 JUMPI POP POP POP POP POP PUSH2 0x27F JUMP JUMPDEST PUSH2 0x276 DUP3 PUSH1 0x20 ADD DUP6 ADD DUP7 PUSH2 0x1C1 JUMP JUMPDEST DUP3 SWAP6 POP POP POP POP POP POP JUMPDEST SWAP1 JUMP JUMPDEST PUSH1 0x0 DUP2 MLOAD SWAP1 POP SWAP2 SWAP1 POP JUMP JUMPDEST PUSH1 0x0 DUP3 DUP3 MSTORE PUSH1 0x20 DUP3 ADD SWAP1 POP SWAP3 SWAP2 POP POP JUMP JUMPDEST PUSH1 0x0 JUMPDEST DUP4 DUP2 LT ISZERO PUSH2 0x2BC JUMPI DUP1 DUP3 ADD MLOAD DUP2 DUP5 ADD MSTORE PUSH1 0x20 DUP2 ADD SWAP1 POP PUSH2 0x2A1 JUMP JUMPDEST DUP4 DUP2 GT ISZERO PUSH2 0x2CB JUMPI PUSH1 0x0 DUP5 DUP5 ADD MSTORE JUMPDEST POP POP POP POP JUMP JUMPDEST PUSH1 0x0 PUSH2 0x2DC DUP3 PUSH2 0x282 JUMP JUMPDEST PUSH2 0x2E6 DUP2 DUP6 PUSH2 0x28D JUMP JUMPDEST SWAP4 POP PUSH2 0x2F6 DUP2 DUP6 PUSH1 0x20 DUP7 ADD PUSH2 0x29E JUMP JUMPDEST PUSH2 0x2FF DUP2 PUSH2 0x181 JUMP JUMPDEST DUP5 ADD SWAP2 POP POP SWAP3 SWAP2 POP POP JUMP JUMPDEST PUSH1 0x0 PUSH1 0x20 DUP3 ADD SWAP1 POP DUP2 DUP2 SUB PUSH1 0x0 DUP4 ADD MSTORE PUSH2 0x324 DUP2 DUP5 PUSH2 0x2D1 JUMP JUMPDEST SWAP1 POP SWAP3 SWAP2 POP POP JUMP INVALID PUSH1 0x80 PUSH1 0x40 MSTORE CALLVALUE DUP1 ISZERO PUSH2 0x10 JUMPI PUSH1 0x0 DUP1 REVERT JUMPDEST POP PUSH2 0x187 DUP1 PUSH2 0x20 PUSH1 0x0 CODECOPY PUSH1 0x0 RETURN INVALID PUSH1 0x80 PUSH1 0x40 MSTORE CALLVALUE DUP1 ISZERO PUSH2 0x10 JUMPI PUSH1 0x0 DUP1 REVERT JUMPDEST POP PUSH1 0x4 CALLDATASIZE LT PUSH2 0x2B JUMPI PUSH1 0x0 CALLDATALOAD PUSH1 0xE0 SHR DUP1 PUSH4 0xF442A72F EQ PUSH2 0x30 JUMPI JUMPDEST PUSH1 0x0 DUP1 REVERT JUMPDEST PUSH2 0x38 PUSH2 0x3A JUMP JUMPDEST STOP JUMPDEST PUSH1 0x40 MLOAD PUSH32 0x3068A42D00000000000000000000000000000000000000000000000000000000 DUP2 MSTORE PUSH1 0x4 ADD PUSH2 0x6C SWAP1 PUSH2 0x11E JUMP JUMPDEST PUSH1 0x40 MLOAD DUP1 SWAP2 SUB SWAP1 REVERT JUMPDEST PUSH1 0x0 DUP3 DUP3 MSTORE PUSH1 0x20 DUP3 ADD SWAP1 POP SWAP3 SWAP2 POP POP JUMP JUMPDEST PUSH32 0x4572726F722063616C6C2069742066756E6374696F6E00000000000000000000 PUSH1 0x0 DUP3 ADD MSTORE POP JUMP JUMPDEST PUSH1 0x0 PUSH2 0xBC PUSH1 0x16 DUP4 PUSH2 0x75 JUMP JUMPDEST SWAP2 POP PUSH2 0xC7 DUP3 PUSH2 0x86 JUMP JUMPDEST PUSH1 0x20 DUP3 ADD SWAP1 POP SWAP2 SWAP1 POP JUMP JUMPDEST PUSH32 0x4572726F722063616C6C2069742066756E6374696F6E32000000000000000000 PUSH1 0x0 DUP3 ADD MSTORE POP JUMP JUMPDEST PUSH1 0x0 PUSH2 0x108 PUSH1 0x17 DUP4 PUSH2 0x75 JUMP JUMPDEST SWAP2 POP PUSH2 0x113 DUP3 PUSH2 0xD2 JUMP JUMPDEST PUSH1 0x20 DUP3 ADD SWAP1 POP SWAP2 SWAP1 POP JUMP JUMPDEST PUSH1 0x0 PUSH1 0x40 DUP3 ADD SWAP1 POP DUP2 DUP2 SUB PUSH1 0x0 DUP4 ADD MSTORE PUSH2 0x137 DUP2 PUSH2 0xAF JUMP JUMPDEST SWAP1 POP DUP2 DUP2 SUB PUSH1 0x20 DUP4 ADD MSTORE PUSH2 0x14A DUP2 PUSH2 0xFB JUMP JUMPDEST SWAP1 POP SWAP2 SWAP1 POP JUMP INVALID LOG2 PUSH5 0x6970667358 0x22 SLT KECCAK256 PUSH14 0x1D2106F32AB5961E16F0DB6125AE CHAINID DUP16 0xAF DUP12 PUSH23 0xCBFB3581411245BE11AB326564736F6C634300080F0033 LOG2 PUSH5 0x6970667358 0x22 SLT KECCAK256 NOT 0xED PUSH13 0xC85439C4BA5F7D347ED87A028B ADD 0xAC 0x29 SWAP13 SUB DELEGATECALL 0xE 0x26 BYTE 0x2A PUSH4 0x9F111FA PUSH8 0x64736F6C63430008 0xF STOP CALLER "
				},
				"gasEstimates": {
					"creation": {
						"codeDepositCost": "257800",
						"executionCost": "300",
						"totalCost": "258100"
					},
					"external": {
						"cathError()": "infinite"
					}
				},
				"methodIdentifiers": {
					"cathError()": "2952d745"
				}
			},
			"storageLayout": {
				"storage": [],
				"types": null
			},
			"userdoc": {
				"kind": "user",
				"methods": {},
				"version": 1
			}
		}
	}
}