{
	"contracts/FullWallet.sol": {
		"Wallet": {
			"abi": [
				{
					"inputs": [],
					"stateMutability": "nonpayable",
					"type": "constructor"
				},
				{
					"inputs": [
						{
							"internalType": "address",
							"name": "_from",
							"type": "address"
						}
					],
					"name": "denySending",
					"outputs": [],
					"stateMutability": "nonpayable",
					"type": "function"
				},
				{
					"inputs": [
						{
							"internalType": "address payable",
							"name": "newOwner",
							"type": "address"
						}
					],
					"name": "newOwnerfunc",
					"outputs": [],
					"stateMutability": "nonpayable",
					"type": "function"
				},
				{
					"inputs": [],
					"name": "owner",
					"outputs": [
						{
							"internalType": "address payable",
							"name": "",
							"type": "address"
						}
					],
					"stateMutability": "view",
					"type": "function"
				},
				{
					"inputs": [
						{
							"internalType": "address",
							"name": "_from",
							"type": "address"
						},
						{
							"internalType": "uint256",
							"name": "_amount",
							"type": "uint256"
						}
					],
					"name": "setAllowance",
					"outputs": [],
					"stateMutability": "nonpayable",
					"type": "function"
				},
				{
					"inputs": [
						{
							"internalType": "address payable",
							"name": "_to",
							"type": "address"
						},
						{
							"internalType": "uint256",
							"name": "_amount",
							"type": "uint256"
						},
						{
							"internalType": "bytes",
							"name": "payload",
							"type": "bytes"
						}
					],
					"name": "transfer",
					"outputs": [
						{
							"internalType": "bytes",
							"name": "",
							"type": "bytes"
						}
					],
					"stateMutability": "nonpayable",
					"type": "function"
				},
				{
					"stateMutability": "payable",
					"type": "receive"
				}
			],
			"devdoc": {
				"kind": "dev",
				"methods": {},
				"version": 1
			},
			"evm": {
				"assembly": "    /* \"contracts/FullWallet.sol\":25:1866  contract Wallet {... */\n  mstore(0x40, 0x80)\n    /* \"contracts/FullWallet.sol\":302:359  constructor(){... */\n  callvalue\n  dup1\n  iszero\n  tag_1\n  jumpi\n  0x00\n  dup1\n  revert\ntag_1:\n  pop\n    /* \"contracts/FullWallet.sol\":341:351  msg.sender */\n  caller\n    /* \"contracts/FullWallet.sol\":325:330  owner */\n  0x00\n  dup1\n    /* \"contracts/FullWallet.sol\":325:352  owner = payable(msg.sender) */\n  0x0100\n  exp\n  dup2\n  sload\n  dup2\n  0xffffffffffffffffffffffffffffffffffffffff\n  mul\n  not\n  and\n  swap1\n  dup4\n  0xffffffffffffffffffffffffffffffffffffffff\n  and\n  mul\n  or\n  swap1\n  sstore\n  pop\n    /* \"contracts/FullWallet.sol\":25:1866  contract Wallet {... */\n  dataSize(sub_0)\n  dup1\n  dataOffset(sub_0)\n  0x00\n  codecopy\n  0x00\n  return\nstop\n\nsub_0: assembly {\n        /* \"contracts/FullWallet.sol\":25:1866  contract Wallet {... */\n      mstore(0x40, 0x80)\n      jumpi(tag_1, lt(calldatasize, 0x04))\n      shr(0xe0, calldataload(0x00))\n      dup1\n      0x310ec4a7\n      eq\n      tag_3\n      jumpi\n      dup1\n      0x6fe9dc71\n      eq\n      tag_4\n      jumpi\n      dup1\n      0x7673de53\n      eq\n      tag_5\n      jumpi\n      dup1\n      0x8da5cb5b\n      eq\n      tag_6\n      jumpi\n      dup1\n      0xbe45fd62\n      eq\n      tag_7\n      jumpi\n      jump(tag_2)\n    tag_1:\n      jumpi(tag_2, calldatasize)\n      stop\n    tag_2:\n      0x00\n      dup1\n      revert\n        /* \"contracts/FullWallet.sol\":745:959  function setAllowance(address _from, uint _amount) public {... */\n    tag_3:\n      callvalue\n      dup1\n      iszero\n      tag_10\n      jumpi\n      0x00\n      dup1\n      revert\n    tag_10:\n      pop\n      tag_11\n      0x04\n      dup1\n      calldatasize\n      sub\n      dup2\n      add\n      swap1\n      tag_12\n      swap2\n      swap1\n      tag_13\n      jump\t// in\n    tag_12:\n      tag_14\n      jump\t// in\n    tag_11:\n      stop\n        /* \"contracts/FullWallet.sol\":364:736  function newOwnerfunc(address payable newOwner) public{... */\n    tag_4:\n      callvalue\n      dup1\n      iszero\n      tag_15\n      jumpi\n      0x00\n      dup1\n      revert\n    tag_15:\n      pop\n      tag_16\n      0x04\n      dup1\n      calldatasize\n      sub\n      dup2\n      add\n      swap1\n      tag_17\n      swap2\n      swap1\n      tag_18\n      jump\t// in\n    tag_17:\n      tag_19\n      jump\t// in\n    tag_16:\n      stop\n        /* \"contracts/FullWallet.sol\":965:1129  function denySending(address _from) public {... */\n    tag_5:\n      callvalue\n      dup1\n      iszero\n      tag_20\n      jumpi\n      0x00\n      dup1\n      revert\n    tag_20:\n      pop\n      tag_21\n      0x04\n      dup1\n      calldatasize\n      sub\n      dup2\n      add\n      swap1\n      tag_22\n      swap2\n      swap1\n      tag_23\n      jump\t// in\n    tag_22:\n      tag_24\n      jump\t// in\n    tag_21:\n      stop\n        /* \"contracts/FullWallet.sol\":47:75  address payable public owner */\n    tag_6:\n      callvalue\n      dup1\n      iszero\n      tag_25\n      jumpi\n      0x00\n      dup1\n      revert\n    tag_25:\n      pop\n      tag_26\n      tag_27\n      jump\t// in\n    tag_26:\n      mload(0x40)\n      tag_28\n      swap2\n      swap1\n      tag_29\n      jump\t// in\n    tag_28:\n      mload(0x40)\n      dup1\n      swap2\n      sub\n      swap1\n      return\n        /* \"contracts/FullWallet.sol\":1134:1829  function transfer(address payable _to, uint _amount, bytes memory payload) public returns (bytes memory) {... */\n    tag_7:\n      callvalue\n      dup1\n      iszero\n      tag_30\n      jumpi\n      0x00\n      dup1\n      revert\n    tag_30:\n      pop\n      tag_31\n      0x04\n      dup1\n      calldatasize\n      sub\n      dup2\n      add\n      swap1\n      tag_32\n      swap2\n      swap1\n      tag_33\n      jump\t// in\n    tag_32:\n      tag_34\n      jump\t// in\n    tag_31:\n      mload(0x40)\n      tag_35\n      swap2\n      swap1\n      tag_36\n      jump\t// in\n    tag_35:\n      mload(0x40)\n      dup1\n      swap2\n      sub\n      swap1\n      return\n        /* \"contracts/FullWallet.sol\":745:959  function setAllowance(address _from, uint _amount) public {... */\n    tag_14:\n        /* \"contracts/FullWallet.sol\":835:840  owner */\n      0x00\n      dup1\n      sload\n      swap1\n      0x0100\n      exp\n      swap1\n      div\n      0xffffffffffffffffffffffffffffffffffffffff\n      and\n        /* \"contracts/FullWallet.sol\":821:840  msg.sender == owner */\n      0xffffffffffffffffffffffffffffffffffffffff\n      and\n        /* \"contracts/FullWallet.sol\":821:831  msg.sender */\n      caller\n        /* \"contracts/FullWallet.sol\":821:840  msg.sender == owner */\n      0xffffffffffffffffffffffffffffffffffffffff\n      and\n      eq\n        /* \"contracts/FullWallet.sol\":813:877  require(msg.sender == owner, \"You are not the owner, aborting!\") */\n      tag_38\n      jumpi\n      mload(0x40)\n      0x08c379a000000000000000000000000000000000000000000000000000000000\n      dup2\n      mstore\n      0x04\n      add\n      tag_39\n      swap1\n      tag_40\n      jump\t// in\n    tag_39:\n      mload(0x40)\n      dup1\n      swap2\n      sub\n      swap1\n      revert\n    tag_38:\n        /* \"contracts/FullWallet.sol\":906:913  _amount */\n      dup1\n        /* \"contracts/FullWallet.sol\":887:896  allowance */\n      0x03\n        /* \"contracts/FullWallet.sol\":887:903  allowance[_from] */\n      0x00\n        /* \"contracts/FullWallet.sol\":897:902  _from */\n      dup5\n        /* \"contracts/FullWallet.sol\":887:903  allowance[_from] */\n      0xffffffffffffffffffffffffffffffffffffffff\n      and\n      0xffffffffffffffffffffffffffffffffffffffff\n      and\n      dup2\n      mstore\n      0x20\n      add\n      swap1\n      dup2\n      mstore\n      0x20\n      add\n      0x00\n      keccak256\n        /* \"contracts/FullWallet.sol\":887:913  allowance[_from] = _amount */\n      dup2\n      swap1\n      sstore\n      pop\n        /* \"contracts/FullWallet.sol\":948:952  true */\n      0x01\n        /* \"contracts/FullWallet.sol\":923:938  allowtoTransfer */\n      0x04\n        /* \"contracts/FullWallet.sol\":923:945  allowtoTransfer[_from] */\n      0x00\n        /* \"contracts/FullWallet.sol\":939:944  _from */\n      dup5\n        /* \"contracts/FullWallet.sol\":923:945  allowtoTransfer[_from] */\n      0xffffffffffffffffffffffffffffffffffffffff\n      and\n      0xffffffffffffffffffffffffffffffffffffffff\n      and\n      dup2\n      mstore\n      0x20\n      add\n      swap1\n      dup2\n      mstore\n      0x20\n      add\n      0x00\n      keccak256\n      0x00\n        /* \"contracts/FullWallet.sol\":923:952  allowtoTransfer[_from] = true */\n      0x0100\n      exp\n      dup2\n      sload\n      dup2\n      0xff\n      mul\n      not\n      and\n      swap1\n      dup4\n      iszero\n      iszero\n      mul\n      or\n      swap1\n      sstore\n      pop\n        /* \"contracts/FullWallet.sol\":745:959  function setAllowance(address _from, uint _amount) public {... */\n      pop\n      pop\n      jump\t// out\n        /* \"contracts/FullWallet.sol\":364:736  function newOwnerfunc(address payable newOwner) public{... */\n    tag_19:\n        /* \"contracts/FullWallet.sol\":436:444  guardian */\n      0x02\n        /* \"contracts/FullWallet.sol\":436:456  guardian[msg.sender] */\n      0x00\n        /* \"contracts/FullWallet.sol\":445:455  msg.sender */\n      caller\n        /* \"contracts/FullWallet.sol\":436:456  guardian[msg.sender] */\n      0xffffffffffffffffffffffffffffffffffffffff\n      and\n      0xffffffffffffffffffffffffffffffffffffffff\n      and\n      dup2\n      mstore\n      0x20\n      add\n      swap1\n      dup2\n      mstore\n      0x20\n      add\n      0x00\n      keccak256\n      0x00\n      swap1\n      sload\n      swap1\n      0x0100\n      exp\n      swap1\n      div\n      0xff\n      and\n        /* \"contracts/FullWallet.sol\":428:490  require(guardian[msg.sender], \"You are no guardian, aborting\") */\n      tag_42\n      jumpi\n      mload(0x40)\n      0x08c379a000000000000000000000000000000000000000000000000000000000\n      dup2\n      mstore\n      0x04\n      add\n      tag_43\n      swap1\n      tag_44\n      jump\t// in\n    tag_43:\n      mload(0x40)\n      dup1\n      swap2\n      sub\n      swap1\n      revert\n    tag_42:\n        /* \"contracts/FullWallet.sol\":517:525  newOwner */\n      dup1\n        /* \"contracts/FullWallet.sol\":504:525  nextOwner != newOwner */\n      0xffffffffffffffffffffffffffffffffffffffff\n      and\n        /* \"contracts/FullWallet.sol\":504:513  nextOwner */\n      0x01\n      0x00\n      swap1\n      sload\n      swap1\n      0x0100\n      exp\n      swap1\n      div\n      0xffffffffffffffffffffffffffffffffffffffff\n      and\n        /* \"contracts/FullWallet.sol\":504:525  nextOwner != newOwner */\n      0xffffffffffffffffffffffffffffffffffffffff\n      and\n      eq\n        /* \"contracts/FullWallet.sol\":500:601  if (nextOwner != newOwner){... */\n      tag_45\n      jumpi\n        /* \"contracts/FullWallet.sol\":548:556  newOwner */\n      dup1\n        /* \"contracts/FullWallet.sol\":536:545  nextOwner */\n      0x01\n      0x00\n        /* \"contracts/FullWallet.sol\":536:556  nextOwner = newOwner */\n      0x0100\n      exp\n      dup2\n      sload\n      dup2\n      0xffffffffffffffffffffffffffffffffffffffff\n      mul\n      not\n      and\n      swap1\n      dup4\n      0xffffffffffffffffffffffffffffffffffffffff\n      and\n      mul\n      or\n      swap1\n      sstore\n      pop\n        /* \"contracts/FullWallet.sol\":588:589  0 */\n      0x00\n        /* \"contracts/FullWallet.sol\":566:585  guardiansResetCount */\n      0x05\n        /* \"contracts/FullWallet.sol\":566:589  guardiansResetCount = 0 */\n      dup2\n      swap1\n      sstore\n      pop\n        /* \"contracts/FullWallet.sol\":500:601  if (nextOwner != newOwner){... */\n    tag_45:\n        /* \"contracts/FullWallet.sol\":293:294  3 */\n      0x03\n        /* \"contracts/FullWallet.sol\":613:632  guardiansResetCount */\n      sload(0x05)\n        /* \"contracts/FullWallet.sol\":613:641  guardiansResetCount >= count */\n      lt\n        /* \"contracts/FullWallet.sol\":610:730  if(guardiansResetCount >= count) {... */\n      tag_46\n      jumpi\n        /* \"contracts/FullWallet.sol\":665:674  nextOwner */\n      0x01\n      0x00\n      swap1\n      sload\n      swap1\n      0x0100\n      exp\n      swap1\n      div\n      0xffffffffffffffffffffffffffffffffffffffff\n      and\n        /* \"contracts/FullWallet.sol\":657:662  owner */\n      0x00\n      dup1\n        /* \"contracts/FullWallet.sol\":657:674  owner = nextOwner */\n      0x0100\n      exp\n      dup2\n      sload\n      dup2\n      0xffffffffffffffffffffffffffffffffffffffff\n      mul\n      not\n      and\n      swap1\n      dup4\n      0xffffffffffffffffffffffffffffffffffffffff\n      and\n      mul\n      or\n      swap1\n      sstore\n      pop\n        /* \"contracts/FullWallet.sol\":716:717  0 */\n      0x00\n        /* \"contracts/FullWallet.sol\":688:697  nextOwner */\n      0x01\n      0x00\n        /* \"contracts/FullWallet.sol\":688:719  nextOwner = payable(address(0)) */\n      0x0100\n      exp\n      dup2\n      sload\n      dup2\n      0xffffffffffffffffffffffffffffffffffffffff\n      mul\n      not\n      and\n      swap1\n      dup4\n      0xffffffffffffffffffffffffffffffffffffffff\n      and\n      mul\n      or\n      swap1\n      sstore\n      pop\n        /* \"contracts/FullWallet.sol\":610:730  if(guardiansResetCount >= count) {... */\n    tag_46:\n        /* \"contracts/FullWallet.sol\":364:736  function newOwnerfunc(address payable newOwner) public{... */\n      pop\n      jump\t// out\n        /* \"contracts/FullWallet.sol\":965:1129  function denySending(address _from) public {... */\n    tag_24:\n        /* \"contracts/FullWallet.sol\":1040:1045  owner */\n      0x00\n      dup1\n      sload\n      swap1\n      0x0100\n      exp\n      swap1\n      div\n      0xffffffffffffffffffffffffffffffffffffffff\n      and\n        /* \"contracts/FullWallet.sol\":1026:1045  msg.sender == owner */\n      0xffffffffffffffffffffffffffffffffffffffff\n      and\n        /* \"contracts/FullWallet.sol\":1026:1036  msg.sender */\n      caller\n        /* \"contracts/FullWallet.sol\":1026:1045  msg.sender == owner */\n      0xffffffffffffffffffffffffffffffffffffffff\n      and\n      eq\n        /* \"contracts/FullWallet.sol\":1018:1082  require(msg.sender == owner, \"You are not the owner, aborting!\") */\n      tag_48\n      jumpi\n      mload(0x40)\n      0x08c379a000000000000000000000000000000000000000000000000000000000\n      dup2\n      mstore\n      0x04\n      add\n      tag_49\n      swap1\n      tag_40\n      jump\t// in\n    tag_49:\n      mload(0x40)\n      dup1\n      swap2\n      sub\n      swap1\n      revert\n    tag_48:\n        /* \"contracts/FullWallet.sol\":1117:1122  false */\n      0x00\n        /* \"contracts/FullWallet.sol\":1092:1107  allowtoTransfer */\n      0x04\n        /* \"contracts/FullWallet.sol\":1092:1114  allowtoTransfer[_from] */\n      0x00\n        /* \"contracts/FullWallet.sol\":1108:1113  _from */\n      dup4\n        /* \"contracts/FullWallet.sol\":1092:1114  allowtoTransfer[_from] */\n      0xffffffffffffffffffffffffffffffffffffffff\n      and\n      0xffffffffffffffffffffffffffffffffffffffff\n      and\n      dup2\n      mstore\n      0x20\n      add\n      swap1\n      dup2\n      mstore\n      0x20\n      add\n      0x00\n      keccak256\n      0x00\n        /* \"contracts/FullWallet.sol\":1092:1122  allowtoTransfer[_from] = false */\n      0x0100\n      exp\n      dup2\n      sload\n      dup2\n      0xff\n      mul\n      not\n      and\n      swap1\n      dup4\n      iszero\n      iszero\n      mul\n      or\n      swap1\n      sstore\n      pop\n        /* \"contracts/FullWallet.sol\":965:1129  function denySending(address _from) public {... */\n      pop\n      jump\t// out\n        /* \"contracts/FullWallet.sol\":47:75  address payable public owner */\n    tag_27:\n      0x00\n      dup1\n      sload\n      swap1\n      0x0100\n      exp\n      swap1\n      div\n      0xffffffffffffffffffffffffffffffffffffffff\n      and\n      dup2\n      jump\t// out\n        /* \"contracts/FullWallet.sol\":1134:1829  function transfer(address payable _to, uint _amount, bytes memory payload) public returns (bytes memory) {... */\n    tag_34:\n        /* \"contracts/FullWallet.sol\":1225:1237  bytes memory */\n      0x60\n        /* \"contracts/FullWallet.sol\":1268:1289  address(this).balance */\n      selfbalance\n        /* \"contracts/FullWallet.sol\":1257:1264  _amount */\n      dup4\n        /* \"contracts/FullWallet.sol\":1257:1289  _amount <= address(this).balance */\n      gt\n      iszero\n        /* \"contracts/FullWallet.sol\":1249:1343  require(_amount <= address(this).balance, \"Can't send more than the contract owns, aborting.\") */\n      tag_51\n      jumpi\n      mload(0x40)\n      0x08c379a000000000000000000000000000000000000000000000000000000000\n      dup2\n      mstore\n      0x04\n      add\n      tag_52\n      swap1\n      tag_53\n      jump\t// in\n    tag_52:\n      mload(0x40)\n      dup1\n      swap2\n      sub\n      swap1\n      revert\n    tag_51:\n        /* \"contracts/FullWallet.sol\":1370:1375  owner */\n      0x00\n      dup1\n      sload\n      swap1\n      0x0100\n      exp\n      swap1\n      div\n      0xffffffffffffffffffffffffffffffffffffffff\n      and\n        /* \"contracts/FullWallet.sol\":1356:1375  msg.sender != owner */\n      0xffffffffffffffffffffffffffffffffffffffff\n      and\n        /* \"contracts/FullWallet.sol\":1356:1366  msg.sender */\n      caller\n        /* \"contracts/FullWallet.sol\":1356:1375  msg.sender != owner */\n      0xffffffffffffffffffffffffffffffffffffffff\n      and\n      eq\n        /* \"contracts/FullWallet.sol\":1353:1663  if(msg.sender != owner) {... */\n      tag_54\n      jumpi\n        /* \"contracts/FullWallet.sol\":1399:1414  allowtoTransfer */\n      0x04\n        /* \"contracts/FullWallet.sol\":1399:1426  allowtoTransfer[msg.sender] */\n      0x00\n        /* \"contracts/FullWallet.sol\":1415:1425  msg.sender */\n      caller\n        /* \"contracts/FullWallet.sol\":1399:1426  allowtoTransfer[msg.sender] */\n      0xffffffffffffffffffffffffffffffffffffffff\n      and\n      0xffffffffffffffffffffffffffffffffffffffff\n      and\n      dup2\n      mstore\n      0x20\n      add\n      swap1\n      dup2\n      mstore\n      0x20\n      add\n      0x00\n      keccak256\n      0x00\n      swap1\n      sload\n      swap1\n      0x0100\n      exp\n      swap1\n      div\n      0xff\n      and\n        /* \"contracts/FullWallet.sol\":1391:1485  require(allowtoTransfer[msg.sender], \"You are not allowed to send any transactions, aborting\") */\n      tag_55\n      jumpi\n      mload(0x40)\n      0x08c379a000000000000000000000000000000000000000000000000000000000\n      dup2\n      mstore\n      0x04\n      add\n      tag_56\n      swap1\n      tag_57\n      jump\t// in\n    tag_56:\n      mload(0x40)\n      dup1\n      swap2\n      sub\n      swap1\n      revert\n    tag_55:\n        /* \"contracts/FullWallet.sol\":1532:1539  _amount */\n      dup3\n        /* \"contracts/FullWallet.sol\":1507:1516  allowance */\n      0x03\n        /* \"contracts/FullWallet.sol\":1507:1528  allowance[msg.sender] */\n      0x00\n        /* \"contracts/FullWallet.sol\":1517:1527  msg.sender */\n      caller\n        /* \"contracts/FullWallet.sol\":1507:1528  allowance[msg.sender] */\n      0xffffffffffffffffffffffffffffffffffffffff\n      and\n      0xffffffffffffffffffffffffffffffffffffffff\n      and\n      dup2\n      mstore\n      0x20\n      add\n      swap1\n      dup2\n      mstore\n      0x20\n      add\n      0x00\n      keccak256\n      sload\n        /* \"contracts/FullWallet.sol\":1507:1539  allowance[msg.sender] >= _amount */\n      lt\n      iszero\n        /* \"contracts/FullWallet.sol\":1499:1605  require(allowance[msg.sender] >= _amount, \"You are trying to send more than you are allowed to, aborting\") */\n      tag_58\n      jumpi\n      mload(0x40)\n      0x08c379a000000000000000000000000000000000000000000000000000000000\n      dup2\n      mstore\n      0x04\n      add\n      tag_59\n      swap1\n      tag_60\n      jump\t// in\n    tag_59:\n      mload(0x40)\n      dup1\n      swap2\n      sub\n      swap1\n      revert\n    tag_58:\n        /* \"contracts/FullWallet.sol\":1644:1651  _amount */\n      dup3\n        /* \"contracts/FullWallet.sol\":1619:1628  allowance */\n      0x03\n        /* \"contracts/FullWallet.sol\":1619:1640  allowance[msg.sender] */\n      0x00\n        /* \"contracts/FullWallet.sol\":1629:1639  msg.sender */\n      caller\n        /* \"contracts/FullWallet.sol\":1619:1640  allowance[msg.sender] */\n      0xffffffffffffffffffffffffffffffffffffffff\n      and\n      0xffffffffffffffffffffffffffffffffffffffff\n      and\n      dup2\n      mstore\n      0x20\n      add\n      swap1\n      dup2\n      mstore\n      0x20\n      add\n      0x00\n      keccak256\n      0x00\n        /* \"contracts/FullWallet.sol\":1619:1651  allowance[msg.sender] -= _amount */\n      dup3\n      dup3\n      sload\n      tag_61\n      swap2\n      swap1\n      tag_62\n      jump\t// in\n    tag_61:\n      swap3\n      pop\n      pop\n      dup2\n      swap1\n      sstore\n      pop\n        /* \"contracts/FullWallet.sol\":1353:1663  if(msg.sender != owner) {... */\n    tag_54:\n        /* \"contracts/FullWallet.sol\":1674:1681  bool ok */\n      0x00\n        /* \"contracts/FullWallet.sol\":1684:1705  bytes memory response */\n      dup1\n        /* \"contracts/FullWallet.sol\":1709:1712  _to */\n      dup6\n        /* \"contracts/FullWallet.sol\":1709:1717  _to.call */\n      0xffffffffffffffffffffffffffffffffffffffff\n      and\n        /* \"contracts/FullWallet.sol\":1724:1731  _amount */\n      dup6\n        /* \"contracts/FullWallet.sol\":1733:1740  payload */\n      dup6\n        /* \"contracts/FullWallet.sol\":1709:1741  _to.call{value:_amount}(payload) */\n      mload(0x40)\n      tag_63\n      swap2\n      swap1\n      tag_64\n      jump\t// in\n    tag_63:\n      0x00\n      mload(0x40)\n      dup1\n      dup4\n      sub\n      dup2\n      dup6\n      dup8\n      gas\n      call\n      swap3\n      pop\n      pop\n      pop\n      returndatasize\n      dup1\n      0x00\n      dup2\n      eq\n      tag_67\n      jumpi\n      mload(0x40)\n      swap2\n      pop\n      and(add(returndatasize, 0x3f), not(0x1f))\n      dup3\n      add\n      0x40\n      mstore\n      returndatasize\n      dup3\n      mstore\n      returndatasize\n      0x00\n      0x20\n      dup5\n      add\n      returndatacopy\n      jump(tag_66)\n    tag_67:\n      0x60\n      swap2\n      pop\n    tag_66:\n      pop\n        /* \"contracts/FullWallet.sol\":1673:1741  (bool ok , bytes memory response) = _to.call{value:_amount}(payload) */\n      swap2\n      pop\n      swap2\n      pop\n        /* \"contracts/FullWallet.sol\":1759:1761  ok */\n      dup2\n        /* \"contracts/FullWallet.sol\":1751:1794  require(ok, \"Transaction failed, aborting\") */\n      tag_68\n      jumpi\n      mload(0x40)\n      0x08c379a000000000000000000000000000000000000000000000000000000000\n      dup2\n      mstore\n      0x04\n      add\n      tag_69\n      swap1\n      tag_70\n      jump\t// in\n    tag_69:\n      mload(0x40)\n      dup1\n      swap2\n      sub\n      swap1\n      revert\n    tag_68:\n        /* \"contracts/FullWallet.sol\":1811:1819  response */\n      dup1\n        /* \"contracts/FullWallet.sol\":1804:1819  return response */\n      swap3\n      pop\n      pop\n      pop\n        /* \"contracts/FullWallet.sol\":1134:1829  function transfer(address payable _to, uint _amount, bytes memory payload) public returns (bytes memory) {... */\n      swap4\n      swap3\n      pop\n      pop\n      pop\n      jump\t// out\n        /* \"#utility.yul\":7:82   */\n    tag_71:\n        /* \"#utility.yul\":40:46   */\n      0x00\n        /* \"#utility.yul\":73:75   */\n      0x40\n        /* \"#utility.yul\":67:76   */\n      mload\n        /* \"#utility.yul\":57:76   */\n      swap1\n      pop\n        /* \"#utility.yul\":7:82   */\n      swap1\n      jump\t// out\n        /* \"#utility.yul\":88:205   */\n    tag_72:\n        /* \"#utility.yul\":197:198   */\n      0x00\n        /* \"#utility.yul\":194:195   */\n      dup1\n        /* \"#utility.yul\":187:199   */\n      revert\n        /* \"#utility.yul\":211:328   */\n    tag_73:\n        /* \"#utility.yul\":320:321   */\n      0x00\n        /* \"#utility.yul\":317:318   */\n      dup1\n        /* \"#utility.yul\":310:322   */\n      revert\n        /* \"#utility.yul\":334:460   */\n    tag_74:\n        /* \"#utility.yul\":371:378   */\n      0x00\n        /* \"#utility.yul\":411:453   */\n      0xffffffffffffffffffffffffffffffffffffffff\n        /* \"#utility.yul\":404:409   */\n      dup3\n        /* \"#utility.yul\":400:454   */\n      and\n        /* \"#utility.yul\":389:454   */\n      swap1\n      pop\n        /* \"#utility.yul\":334:460   */\n      swap2\n      swap1\n      pop\n      jump\t// out\n        /* \"#utility.yul\":466:562   */\n    tag_75:\n        /* \"#utility.yul\":503:510   */\n      0x00\n        /* \"#utility.yul\":532:556   */\n      tag_121\n        /* \"#utility.yul\":550:555   */\n      dup3\n        /* \"#utility.yul\":532:556   */\n      tag_74\n      jump\t// in\n    tag_121:\n        /* \"#utility.yul\":521:556   */\n      swap1\n      pop\n        /* \"#utility.yul\":466:562   */\n      swap2\n      swap1\n      pop\n      jump\t// out\n        /* \"#utility.yul\":568:690   */\n    tag_76:\n        /* \"#utility.yul\":641:665   */\n      tag_123\n        /* \"#utility.yul\":659:664   */\n      dup2\n        /* \"#utility.yul\":641:665   */\n      tag_75\n      jump\t// in\n    tag_123:\n        /* \"#utility.yul\":634:639   */\n      dup2\n        /* \"#utility.yul\":631:666   */\n      eq\n        /* \"#utility.yul\":621:684   */\n      tag_124\n      jumpi\n        /* \"#utility.yul\":680:681   */\n      0x00\n        /* \"#utility.yul\":677:678   */\n      dup1\n        /* \"#utility.yul\":670:682   */\n      revert\n        /* \"#utility.yul\":621:684   */\n    tag_124:\n        /* \"#utility.yul\":568:690   */\n      pop\n      jump\t// out\n        /* \"#utility.yul\":696:835   */\n    tag_77:\n        /* \"#utility.yul\":742:747   */\n      0x00\n        /* \"#utility.yul\":780:786   */\n      dup2\n        /* \"#utility.yul\":767:787   */\n      calldataload\n        /* \"#utility.yul\":758:787   */\n      swap1\n      pop\n        /* \"#utility.yul\":796:829   */\n      tag_126\n        /* \"#utility.yul\":823:828   */\n      dup2\n        /* \"#utility.yul\":796:829   */\n      tag_76\n      jump\t// in\n    tag_126:\n        /* \"#utility.yul\":696:835   */\n      swap3\n      swap2\n      pop\n      pop\n      jump\t// out\n        /* \"#utility.yul\":841:918   */\n    tag_78:\n        /* \"#utility.yul\":878:885   */\n      0x00\n        /* \"#utility.yul\":907:912   */\n      dup2\n        /* \"#utility.yul\":896:912   */\n      swap1\n      pop\n        /* \"#utility.yul\":841:918   */\n      swap2\n      swap1\n      pop\n      jump\t// out\n        /* \"#utility.yul\":924:1046   */\n    tag_79:\n        /* \"#utility.yul\":997:1021   */\n      tag_129\n        /* \"#utility.yul\":1015:1020   */\n      dup2\n        /* \"#utility.yul\":997:1021   */\n      tag_78\n      jump\t// in\n    tag_129:\n        /* \"#utility.yul\":990:995   */\n      dup2\n        /* \"#utility.yul\":987:1022   */\n      eq\n        /* \"#utility.yul\":977:1040   */\n      tag_130\n      jumpi\n        /* \"#utility.yul\":1036:1037   */\n      0x00\n        /* \"#utility.yul\":1033:1034   */\n      dup1\n        /* \"#utility.yul\":1026:1038   */\n      revert\n        /* \"#utility.yul\":977:1040   */\n    tag_130:\n        /* \"#utility.yul\":924:1046   */\n      pop\n      jump\t// out\n        /* \"#utility.yul\":1052:1191   */\n    tag_80:\n        /* \"#utility.yul\":1098:1103   */\n      0x00\n        /* \"#utility.yul\":1136:1142   */\n      dup2\n        /* \"#utility.yul\":1123:1143   */\n      calldataload\n        /* \"#utility.yul\":1114:1143   */\n      swap1\n      pop\n        /* \"#utility.yul\":1152:1185   */\n      tag_132\n        /* \"#utility.yul\":1179:1184   */\n      dup2\n        /* \"#utility.yul\":1152:1185   */\n      tag_79\n      jump\t// in\n    tag_132:\n        /* \"#utility.yul\":1052:1191   */\n      swap3\n      swap2\n      pop\n      pop\n      jump\t// out\n        /* \"#utility.yul\":1197:1671   */\n    tag_13:\n        /* \"#utility.yul\":1265:1271   */\n      0x00\n        /* \"#utility.yul\":1273:1279   */\n      dup1\n        /* \"#utility.yul\":1322:1324   */\n      0x40\n        /* \"#utility.yul\":1310:1319   */\n      dup4\n        /* \"#utility.yul\":1301:1308   */\n      dup6\n        /* \"#utility.yul\":1297:1320   */\n      sub\n        /* \"#utility.yul\":1293:1325   */\n      slt\n        /* \"#utility.yul\":1290:1409   */\n      iszero\n      tag_134\n      jumpi\n        /* \"#utility.yul\":1328:1407   */\n      tag_135\n      tag_72\n      jump\t// in\n    tag_135:\n        /* \"#utility.yul\":1290:1409   */\n    tag_134:\n        /* \"#utility.yul\":1448:1449   */\n      0x00\n        /* \"#utility.yul\":1473:1526   */\n      tag_136\n        /* \"#utility.yul\":1518:1525   */\n      dup6\n        /* \"#utility.yul\":1509:1515   */\n      dup3\n        /* \"#utility.yul\":1498:1507   */\n      dup7\n        /* \"#utility.yul\":1494:1516   */\n      add\n        /* \"#utility.yul\":1473:1526   */\n      tag_77\n      jump\t// in\n    tag_136:\n        /* \"#utility.yul\":1463:1526   */\n      swap3\n      pop\n        /* \"#utility.yul\":1419:1536   */\n      pop\n        /* \"#utility.yul\":1575:1577   */\n      0x20\n        /* \"#utility.yul\":1601:1654   */\n      tag_137\n        /* \"#utility.yul\":1646:1653   */\n      dup6\n        /* \"#utility.yul\":1637:1643   */\n      dup3\n        /* \"#utility.yul\":1626:1635   */\n      dup7\n        /* \"#utility.yul\":1622:1644   */\n      add\n        /* \"#utility.yul\":1601:1654   */\n      tag_80\n      jump\t// in\n    tag_137:\n        /* \"#utility.yul\":1591:1654   */\n      swap2\n      pop\n        /* \"#utility.yul\":1546:1664   */\n      pop\n        /* \"#utility.yul\":1197:1671   */\n      swap3\n      pop\n      swap3\n      swap1\n      pop\n      jump\t// out\n        /* \"#utility.yul\":1677:1781   */\n    tag_81:\n        /* \"#utility.yul\":1722:1729   */\n      0x00\n        /* \"#utility.yul\":1751:1775   */\n      tag_139\n        /* \"#utility.yul\":1769:1774   */\n      dup3\n        /* \"#utility.yul\":1751:1775   */\n      tag_74\n      jump\t// in\n    tag_139:\n        /* \"#utility.yul\":1740:1775   */\n      swap1\n      pop\n        /* \"#utility.yul\":1677:1781   */\n      swap2\n      swap1\n      pop\n      jump\t// out\n        /* \"#utility.yul\":1787:1925   */\n    tag_82:\n        /* \"#utility.yul\":1868:1900   */\n      tag_141\n        /* \"#utility.yul\":1894:1899   */\n      dup2\n        /* \"#utility.yul\":1868:1900   */\n      tag_81\n      jump\t// in\n    tag_141:\n        /* \"#utility.yul\":1861:1866   */\n      dup2\n        /* \"#utility.yul\":1858:1901   */\n      eq\n        /* \"#utility.yul\":1848:1919   */\n      tag_142\n      jumpi\n        /* \"#utility.yul\":1915:1916   */\n      0x00\n        /* \"#utility.yul\":1912:1913   */\n      dup1\n        /* \"#utility.yul\":1905:1917   */\n      revert\n        /* \"#utility.yul\":1848:1919   */\n    tag_142:\n        /* \"#utility.yul\":1787:1925   */\n      pop\n      jump\t// out\n        /* \"#utility.yul\":1931:2086   */\n    tag_83:\n        /* \"#utility.yul\":1985:1990   */\n      0x00\n        /* \"#utility.yul\":2023:2029   */\n      dup2\n        /* \"#utility.yul\":2010:2030   */\n      calldataload\n        /* \"#utility.yul\":2001:2030   */\n      swap1\n      pop\n        /* \"#utility.yul\":2039:2080   */\n      tag_144\n        /* \"#utility.yul\":2074:2079   */\n      dup2\n        /* \"#utility.yul\":2039:2080   */\n      tag_82\n      jump\t// in\n    tag_144:\n        /* \"#utility.yul\":1931:2086   */\n      swap3\n      swap2\n      pop\n      pop\n      jump\t// out\n        /* \"#utility.yul\":2092:2437   */\n    tag_18:\n        /* \"#utility.yul\":2159:2165   */\n      0x00\n        /* \"#utility.yul\":2208:2210   */\n      0x20\n        /* \"#utility.yul\":2196:2205   */\n      dup3\n        /* \"#utility.yul\":2187:2194   */\n      dup5\n        /* \"#utility.yul\":2183:2206   */\n      sub\n        /* \"#utility.yul\":2179:2211   */\n      slt\n        /* \"#utility.yul\":2176:2295   */\n      iszero\n      tag_146\n      jumpi\n        /* \"#utility.yul\":2214:2293   */\n      tag_147\n      tag_72\n      jump\t// in\n    tag_147:\n        /* \"#utility.yul\":2176:2295   */\n    tag_146:\n        /* \"#utility.yul\":2334:2335   */\n      0x00\n        /* \"#utility.yul\":2359:2420   */\n      tag_148\n        /* \"#utility.yul\":2412:2419   */\n      dup5\n        /* \"#utility.yul\":2403:2409   */\n      dup3\n        /* \"#utility.yul\":2392:2401   */\n      dup6\n        /* \"#utility.yul\":2388:2410   */\n      add\n        /* \"#utility.yul\":2359:2420   */\n      tag_83\n      jump\t// in\n    tag_148:\n        /* \"#utility.yul\":2349:2420   */\n      swap2\n      pop\n        /* \"#utility.yul\":2305:2430   */\n      pop\n        /* \"#utility.yul\":2092:2437   */\n      swap3\n      swap2\n      pop\n      pop\n      jump\t// out\n        /* \"#utility.yul\":2443:2772   */\n    tag_23:\n        /* \"#utility.yul\":2502:2508   */\n      0x00\n        /* \"#utility.yul\":2551:2553   */\n      0x20\n        /* \"#utility.yul\":2539:2548   */\n      dup3\n        /* \"#utility.yul\":2530:2537   */\n      dup5\n        /* \"#utility.yul\":2526:2549   */\n      sub\n        /* \"#utility.yul\":2522:2554   */\n      slt\n        /* \"#utility.yul\":2519:2638   */\n      iszero\n      tag_150\n      jumpi\n        /* \"#utility.yul\":2557:2636   */\n      tag_151\n      tag_72\n      jump\t// in\n    tag_151:\n        /* \"#utility.yul\":2519:2638   */\n    tag_150:\n        /* \"#utility.yul\":2677:2678   */\n      0x00\n        /* \"#utility.yul\":2702:2755   */\n      tag_152\n        /* \"#utility.yul\":2747:2754   */\n      dup5\n        /* \"#utility.yul\":2738:2744   */\n      dup3\n        /* \"#utility.yul\":2727:2736   */\n      dup6\n        /* \"#utility.yul\":2723:2745   */\n      add\n        /* \"#utility.yul\":2702:2755   */\n      tag_77\n      jump\t// in\n    tag_152:\n        /* \"#utility.yul\":2692:2755   */\n      swap2\n      pop\n        /* \"#utility.yul\":2648:2765   */\n      pop\n        /* \"#utility.yul\":2443:2772   */\n      swap3\n      swap2\n      pop\n      pop\n      jump\t// out\n        /* \"#utility.yul\":2778:2920   */\n    tag_84:\n        /* \"#utility.yul\":2881:2913   */\n      tag_154\n        /* \"#utility.yul\":2907:2912   */\n      dup2\n        /* \"#utility.yul\":2881:2913   */\n      tag_81\n      jump\t// in\n    tag_154:\n        /* \"#utility.yul\":2876:2879   */\n      dup3\n        /* \"#utility.yul\":2869:2914   */\n      mstore\n        /* \"#utility.yul\":2778:2920   */\n      pop\n      pop\n      jump\t// out\n        /* \"#utility.yul\":2926:3180   */\n    tag_29:\n        /* \"#utility.yul\":3035:3039   */\n      0x00\n        /* \"#utility.yul\":3073:3075   */\n      0x20\n        /* \"#utility.yul\":3062:3071   */\n      dup3\n        /* \"#utility.yul\":3058:3076   */\n      add\n        /* \"#utility.yul\":3050:3076   */\n      swap1\n      pop\n        /* \"#utility.yul\":3086:3173   */\n      tag_156\n        /* \"#utility.yul\":3170:3171   */\n      0x00\n        /* \"#utility.yul\":3159:3168   */\n      dup4\n        /* \"#utility.yul\":3155:3172   */\n      add\n        /* \"#utility.yul\":3146:3152   */\n      dup5\n        /* \"#utility.yul\":3086:3173   */\n      tag_84\n      jump\t// in\n    tag_156:\n        /* \"#utility.yul\":2926:3180   */\n      swap3\n      swap2\n      pop\n      pop\n      jump\t// out\n        /* \"#utility.yul\":3186:3303   */\n    tag_85:\n        /* \"#utility.yul\":3295:3296   */\n      0x00\n        /* \"#utility.yul\":3292:3293   */\n      dup1\n        /* \"#utility.yul\":3285:3297   */\n      revert\n        /* \"#utility.yul\":3309:3426   */\n    tag_86:\n        /* \"#utility.yul\":3418:3419   */\n      0x00\n        /* \"#utility.yul\":3415:3416   */\n      dup1\n        /* \"#utility.yul\":3408:3420   */\n      revert\n        /* \"#utility.yul\":3432:3534   */\n    tag_87:\n        /* \"#utility.yul\":3473:3479   */\n      0x00\n        /* \"#utility.yul\":3524:3526   */\n      0x1f\n        /* \"#utility.yul\":3520:3527   */\n      not\n        /* \"#utility.yul\":3515:3517   */\n      0x1f\n        /* \"#utility.yul\":3508:3513   */\n      dup4\n        /* \"#utility.yul\":3504:3518   */\n      add\n        /* \"#utility.yul\":3500:3528   */\n      and\n        /* \"#utility.yul\":3490:3528   */\n      swap1\n      pop\n        /* \"#utility.yul\":3432:3534   */\n      swap2\n      swap1\n      pop\n      jump\t// out\n        /* \"#utility.yul\":3540:3720   */\n    tag_88:\n        /* \"#utility.yul\":3588:3665   */\n      0x4e487b7100000000000000000000000000000000000000000000000000000000\n        /* \"#utility.yul\":3585:3586   */\n      0x00\n        /* \"#utility.yul\":3578:3666   */\n      mstore\n        /* \"#utility.yul\":3685:3689   */\n      0x41\n        /* \"#utility.yul\":3682:3683   */\n      0x04\n        /* \"#utility.yul\":3675:3690   */\n      mstore\n        /* \"#utility.yul\":3709:3713   */\n      0x24\n        /* \"#utility.yul\":3706:3707   */\n      0x00\n        /* \"#utility.yul\":3699:3714   */\n      revert\n        /* \"#utility.yul\":3726:4007   */\n    tag_89:\n        /* \"#utility.yul\":3809:3836   */\n      tag_162\n        /* \"#utility.yul\":3831:3835   */\n      dup3\n        /* \"#utility.yul\":3809:3836   */\n      tag_87\n      jump\t// in\n    tag_162:\n        /* \"#utility.yul\":3801:3807   */\n      dup2\n        /* \"#utility.yul\":3797:3837   */\n      add\n        /* \"#utility.yul\":3939:3945   */\n      dup2\n        /* \"#utility.yul\":3927:3937   */\n      dup2\n        /* \"#utility.yul\":3924:3946   */\n      lt\n        /* \"#utility.yul\":3903:3921   */\n      0xffffffffffffffff\n        /* \"#utility.yul\":3891:3901   */\n      dup3\n        /* \"#utility.yul\":3888:3922   */\n      gt\n        /* \"#utility.yul\":3885:3947   */\n      or\n        /* \"#utility.yul\":3882:3970   */\n      iszero\n      tag_163\n      jumpi\n        /* \"#utility.yul\":3950:3968   */\n      tag_164\n      tag_88\n      jump\t// in\n    tag_164:\n        /* \"#utility.yul\":3882:3970   */\n    tag_163:\n        /* \"#utility.yul\":3990:4000   */\n      dup1\n        /* \"#utility.yul\":3986:3988   */\n      0x40\n        /* \"#utility.yul\":3979:4001   */\n      mstore\n        /* \"#utility.yul\":3769:4007   */\n      pop\n        /* \"#utility.yul\":3726:4007   */\n      pop\n      pop\n      jump\t// out\n        /* \"#utility.yul\":4013:4142   */\n    tag_90:\n        /* \"#utility.yul\":4047:4053   */\n      0x00\n        /* \"#utility.yul\":4074:4094   */\n      tag_166\n      tag_71\n      jump\t// in\n    tag_166:\n        /* \"#utility.yul\":4064:4094   */\n      swap1\n      pop\n        /* \"#utility.yul\":4103:4136   */\n      tag_167\n        /* \"#utility.yul\":4131:4135   */\n      dup3\n        /* \"#utility.yul\":4123:4129   */\n      dup3\n        /* \"#utility.yul\":4103:4136   */\n      tag_89\n      jump\t// in\n    tag_167:\n        /* \"#utility.yul\":4013:4142   */\n      swap2\n      swap1\n      pop\n      jump\t// out\n        /* \"#utility.yul\":4148:4455   */\n    tag_91:\n        /* \"#utility.yul\":4209:4213   */\n      0x00\n        /* \"#utility.yul\":4299:4317   */\n      0xffffffffffffffff\n        /* \"#utility.yul\":4291:4297   */\n      dup3\n        /* \"#utility.yul\":4288:4318   */\n      gt\n        /* \"#utility.yul\":4285:4341   */\n      iszero\n      tag_169\n      jumpi\n        /* \"#utility.yul\":4321:4339   */\n      tag_170\n      tag_88\n      jump\t// in\n    tag_170:\n        /* \"#utility.yul\":4285:4341   */\n    tag_169:\n        /* \"#utility.yul\":4359:4388   */\n      tag_171\n        /* \"#utility.yul\":4381:4387   */\n      dup3\n        /* \"#utility.yul\":4359:4388   */\n      tag_87\n      jump\t// in\n    tag_171:\n        /* \"#utility.yul\":4351:4388   */\n      swap1\n      pop\n        /* \"#utility.yul\":4443:4447   */\n      0x20\n        /* \"#utility.yul\":4437:4441   */\n      dup2\n        /* \"#utility.yul\":4433:4448   */\n      add\n        /* \"#utility.yul\":4425:4448   */\n      swap1\n      pop\n        /* \"#utility.yul\":4148:4455   */\n      swap2\n      swap1\n      pop\n      jump\t// out\n        /* \"#utility.yul\":4461:4615   */\n    tag_92:\n        /* \"#utility.yul\":4545:4551   */\n      dup3\n        /* \"#utility.yul\":4540:4543   */\n      dup2\n        /* \"#utility.yul\":4535:4538   */\n      dup4\n        /* \"#utility.yul\":4522:4552   */\n      calldatacopy\n        /* \"#utility.yul\":4607:4608   */\n      0x00\n        /* \"#utility.yul\":4598:4604   */\n      dup4\n        /* \"#utility.yul\":4593:4596   */\n      dup4\n        /* \"#utility.yul\":4589:4605   */\n      add\n        /* \"#utility.yul\":4582:4609   */\n      mstore\n        /* \"#utility.yul\":4461:4615   */\n      pop\n      pop\n      pop\n      jump\t// out\n        /* \"#utility.yul\":4621:5031   */\n    tag_93:\n        /* \"#utility.yul\":4698:4703   */\n      0x00\n        /* \"#utility.yul\":4723:4788   */\n      tag_174\n        /* \"#utility.yul\":4739:4787   */\n      tag_175\n        /* \"#utility.yul\":4780:4786   */\n      dup5\n        /* \"#utility.yul\":4739:4787   */\n      tag_91\n      jump\t// in\n    tag_175:\n        /* \"#utility.yul\":4723:4788   */\n      tag_90\n      jump\t// in\n    tag_174:\n        /* \"#utility.yul\":4714:4788   */\n      swap1\n      pop\n        /* \"#utility.yul\":4811:4817   */\n      dup3\n        /* \"#utility.yul\":4804:4809   */\n      dup2\n        /* \"#utility.yul\":4797:4818   */\n      mstore\n        /* \"#utility.yul\":4849:4853   */\n      0x20\n        /* \"#utility.yul\":4842:4847   */\n      dup2\n        /* \"#utility.yul\":4838:4854   */\n      add\n        /* \"#utility.yul\":4887:4890   */\n      dup5\n        /* \"#utility.yul\":4878:4884   */\n      dup5\n        /* \"#utility.yul\":4873:4876   */\n      dup5\n        /* \"#utility.yul\":4869:4885   */\n      add\n        /* \"#utility.yul\":4866:4891   */\n      gt\n        /* \"#utility.yul\":4863:4975   */\n      iszero\n      tag_176\n      jumpi\n        /* \"#utility.yul\":4894:4973   */\n      tag_177\n      tag_86\n      jump\t// in\n    tag_177:\n        /* \"#utility.yul\":4863:4975   */\n    tag_176:\n        /* \"#utility.yul\":4984:5025   */\n      tag_178\n        /* \"#utility.yul\":5018:5024   */\n      dup5\n        /* \"#utility.yul\":5013:5016   */\n      dup3\n        /* \"#utility.yul\":5008:5011   */\n      dup6\n        /* \"#utility.yul\":4984:5025   */\n      tag_92\n      jump\t// in\n    tag_178:\n        /* \"#utility.yul\":4704:5031   */\n      pop\n        /* \"#utility.yul\":4621:5031   */\n      swap4\n      swap3\n      pop\n      pop\n      pop\n      jump\t// out\n        /* \"#utility.yul\":5050:5388   */\n    tag_94:\n        /* \"#utility.yul\":5105:5110   */\n      0x00\n        /* \"#utility.yul\":5154:5157   */\n      dup3\n        /* \"#utility.yul\":5147:5151   */\n      0x1f\n        /* \"#utility.yul\":5139:5145   */\n      dup4\n        /* \"#utility.yul\":5135:5152   */\n      add\n        /* \"#utility.yul\":5131:5158   */\n      slt\n        /* \"#utility.yul\":5121:5243   */\n      tag_180\n      jumpi\n        /* \"#utility.yul\":5162:5241   */\n      tag_181\n      tag_85\n      jump\t// in\n    tag_181:\n        /* \"#utility.yul\":5121:5243   */\n    tag_180:\n        /* \"#utility.yul\":5279:5285   */\n      dup2\n        /* \"#utility.yul\":5266:5286   */\n      calldataload\n        /* \"#utility.yul\":5304:5382   */\n      tag_182\n        /* \"#utility.yul\":5378:5381   */\n      dup5\n        /* \"#utility.yul\":5370:5376   */\n      dup3\n        /* \"#utility.yul\":5363:5367   */\n      0x20\n        /* \"#utility.yul\":5355:5361   */\n      dup7\n        /* \"#utility.yul\":5351:5368   */\n      add\n        /* \"#utility.yul\":5304:5382   */\n      tag_93\n      jump\t// in\n    tag_182:\n        /* \"#utility.yul\":5295:5382   */\n      swap2\n      pop\n        /* \"#utility.yul\":5111:5388   */\n      pop\n        /* \"#utility.yul\":5050:5388   */\n      swap3\n      swap2\n      pop\n      pop\n      jump\t// out\n        /* \"#utility.yul\":5394:6207   */\n    tag_33:\n        /* \"#utility.yul\":5488:5494   */\n      0x00\n        /* \"#utility.yul\":5496:5502   */\n      dup1\n        /* \"#utility.yul\":5504:5510   */\n      0x00\n        /* \"#utility.yul\":5553:5555   */\n      0x60\n        /* \"#utility.yul\":5541:5550   */\n      dup5\n        /* \"#utility.yul\":5532:5539   */\n      dup7\n        /* \"#utility.yul\":5528:5551   */\n      sub\n        /* \"#utility.yul\":5524:5556   */\n      slt\n        /* \"#utility.yul\":5521:5640   */\n      iszero\n      tag_184\n      jumpi\n        /* \"#utility.yul\":5559:5638   */\n      tag_185\n      tag_72\n      jump\t// in\n    tag_185:\n        /* \"#utility.yul\":5521:5640   */\n    tag_184:\n        /* \"#utility.yul\":5679:5680   */\n      0x00\n        /* \"#utility.yul\":5704:5765   */\n      tag_186\n        /* \"#utility.yul\":5757:5764   */\n      dup7\n        /* \"#utility.yul\":5748:5754   */\n      dup3\n        /* \"#utility.yul\":5737:5746   */\n      dup8\n        /* \"#utility.yul\":5733:5755   */\n      add\n        /* \"#utility.yul\":5704:5765   */\n      tag_83\n      jump\t// in\n    tag_186:\n        /* \"#utility.yul\":5694:5765   */\n      swap4\n      pop\n        /* \"#utility.yul\":5650:5775   */\n      pop\n        /* \"#utility.yul\":5814:5816   */\n      0x20\n        /* \"#utility.yul\":5840:5893   */\n      tag_187\n        /* \"#utility.yul\":5885:5892   */\n      dup7\n        /* \"#utility.yul\":5876:5882   */\n      dup3\n        /* \"#utility.yul\":5865:5874   */\n      dup8\n        /* \"#utility.yul\":5861:5883   */\n      add\n        /* \"#utility.yul\":5840:5893   */\n      tag_80\n      jump\t// in\n    tag_187:\n        /* \"#utility.yul\":5830:5893   */\n      swap3\n      pop\n        /* \"#utility.yul\":5785:5903   */\n      pop\n        /* \"#utility.yul\":5970:5972   */\n      0x40\n        /* \"#utility.yul\":5959:5968   */\n      dup5\n        /* \"#utility.yul\":5955:5973   */\n      add\n        /* \"#utility.yul\":5942:5974   */\n      calldataload\n        /* \"#utility.yul\":6001:6019   */\n      0xffffffffffffffff\n        /* \"#utility.yul\":5993:5999   */\n      dup2\n        /* \"#utility.yul\":5990:6020   */\n      gt\n        /* \"#utility.yul\":5987:6104   */\n      iszero\n      tag_188\n      jumpi\n        /* \"#utility.yul\":6023:6102   */\n      tag_189\n      tag_73\n      jump\t// in\n    tag_189:\n        /* \"#utility.yul\":5987:6104   */\n    tag_188:\n        /* \"#utility.yul\":6128:6190   */\n      tag_190\n        /* \"#utility.yul\":6182:6189   */\n      dup7\n        /* \"#utility.yul\":6173:6179   */\n      dup3\n        /* \"#utility.yul\":6162:6171   */\n      dup8\n        /* \"#utility.yul\":6158:6180   */\n      add\n        /* \"#utility.yul\":6128:6190   */\n      tag_94\n      jump\t// in\n    tag_190:\n        /* \"#utility.yul\":6118:6190   */\n      swap2\n      pop\n        /* \"#utility.yul\":5913:6200   */\n      pop\n        /* \"#utility.yul\":5394:6207   */\n      swap3\n      pop\n      swap3\n      pop\n      swap3\n      jump\t// out\n        /* \"#utility.yul\":6213:6311   */\n    tag_95:\n        /* \"#utility.yul\":6264:6270   */\n      0x00\n        /* \"#utility.yul\":6298:6303   */\n      dup2\n        /* \"#utility.yul\":6292:6304   */\n      mload\n        /* \"#utility.yul\":6282:6304   */\n      swap1\n      pop\n        /* \"#utility.yul\":6213:6311   */\n      swap2\n      swap1\n      pop\n      jump\t// out\n        /* \"#utility.yul\":6317:6485   */\n    tag_96:\n        /* \"#utility.yul\":6400:6411   */\n      0x00\n        /* \"#utility.yul\":6434:6440   */\n      dup3\n        /* \"#utility.yul\":6429:6432   */\n      dup3\n        /* \"#utility.yul\":6422:6441   */\n      mstore\n        /* \"#utility.yul\":6474:6478   */\n      0x20\n        /* \"#utility.yul\":6469:6472   */\n      dup3\n        /* \"#utility.yul\":6465:6479   */\n      add\n        /* \"#utility.yul\":6450:6479   */\n      swap1\n      pop\n        /* \"#utility.yul\":6317:6485   */\n      swap3\n      swap2\n      pop\n      pop\n      jump\t// out\n        /* \"#utility.yul\":6491:6798   */\n    tag_97:\n        /* \"#utility.yul\":6559:6560   */\n      0x00\n        /* \"#utility.yul\":6569:6682   */\n    tag_194:\n        /* \"#utility.yul\":6583:6589   */\n      dup4\n        /* \"#utility.yul\":6580:6581   */\n      dup2\n        /* \"#utility.yul\":6577:6590   */\n      lt\n        /* \"#utility.yul\":6569:6682   */\n      iszero\n      tag_196\n      jumpi\n        /* \"#utility.yul\":6668:6669   */\n      dup1\n        /* \"#utility.yul\":6663:6666   */\n      dup3\n        /* \"#utility.yul\":6659:6670   */\n      add\n        /* \"#utility.yul\":6653:6671   */\n      mload\n        /* \"#utility.yul\":6649:6650   */\n      dup2\n        /* \"#utility.yul\":6644:6647   */\n      dup5\n        /* \"#utility.yul\":6640:6651   */\n      add\n        /* \"#utility.yul\":6633:6672   */\n      mstore\n        /* \"#utility.yul\":6605:6607   */\n      0x20\n        /* \"#utility.yul\":6602:6603   */\n      dup2\n        /* \"#utility.yul\":6598:6608   */\n      add\n        /* \"#utility.yul\":6593:6608   */\n      swap1\n      pop\n        /* \"#utility.yul\":6569:6682   */\n      jump(tag_194)\n    tag_196:\n        /* \"#utility.yul\":6700:6706   */\n      dup4\n        /* \"#utility.yul\":6697:6698   */\n      dup2\n        /* \"#utility.yul\":6694:6707   */\n      gt\n        /* \"#utility.yul\":6691:6792   */\n      iszero\n      tag_197\n      jumpi\n        /* \"#utility.yul\":6780:6781   */\n      0x00\n        /* \"#utility.yul\":6771:6777   */\n      dup5\n        /* \"#utility.yul\":6766:6769   */\n      dup5\n        /* \"#utility.yul\":6762:6778   */\n      add\n        /* \"#utility.yul\":6755:6782   */\n      mstore\n        /* \"#utility.yul\":6691:6792   */\n    tag_197:\n        /* \"#utility.yul\":6540:6798   */\n      pop\n        /* \"#utility.yul\":6491:6798   */\n      pop\n      pop\n      pop\n      jump\t// out\n        /* \"#utility.yul\":6804:7164   */\n    tag_98:\n        /* \"#utility.yul\":6890:6893   */\n      0x00\n        /* \"#utility.yul\":6918:6956   */\n      tag_199\n        /* \"#utility.yul\":6950:6955   */\n      dup3\n        /* \"#utility.yul\":6918:6956   */\n      tag_95\n      jump\t// in\n    tag_199:\n        /* \"#utility.yul\":6972:7042   */\n      tag_200\n        /* \"#utility.yul\":7035:7041   */\n      dup2\n        /* \"#utility.yul\":7030:7033   */\n      dup6\n        /* \"#utility.yul\":6972:7042   */\n      tag_96\n      jump\t// in\n    tag_200:\n        /* \"#utility.yul\":6965:7042   */\n      swap4\n      pop\n        /* \"#utility.yul\":7051:7103   */\n      tag_201\n        /* \"#utility.yul\":7096:7102   */\n      dup2\n        /* \"#utility.yul\":7091:7094   */\n      dup6\n        /* \"#utility.yul\":7084:7088   */\n      0x20\n        /* \"#utility.yul\":7077:7082   */\n      dup7\n        /* \"#utility.yul\":7073:7089   */\n      add\n        /* \"#utility.yul\":7051:7103   */\n      tag_97\n      jump\t// in\n    tag_201:\n        /* \"#utility.yul\":7128:7157   */\n      tag_202\n        /* \"#utility.yul\":7150:7156   */\n      dup2\n        /* \"#utility.yul\":7128:7157   */\n      tag_87\n      jump\t// in\n    tag_202:\n        /* \"#utility.yul\":7123:7126   */\n      dup5\n        /* \"#utility.yul\":7119:7158   */\n      add\n        /* \"#utility.yul\":7112:7158   */\n      swap2\n      pop\n        /* \"#utility.yul\":6894:7164   */\n      pop\n        /* \"#utility.yul\":6804:7164   */\n      swap3\n      swap2\n      pop\n      pop\n      jump\t// out\n        /* \"#utility.yul\":7170:7479   */\n    tag_36:\n        /* \"#utility.yul\":7281:7285   */\n      0x00\n        /* \"#utility.yul\":7319:7321   */\n      0x20\n        /* \"#utility.yul\":7308:7317   */\n      dup3\n        /* \"#utility.yul\":7304:7322   */\n      add\n        /* \"#utility.yul\":7296:7322   */\n      swap1\n      pop\n        /* \"#utility.yul\":7368:7377   */\n      dup2\n        /* \"#utility.yul\":7362:7366   */\n      dup2\n        /* \"#utility.yul\":7358:7378   */\n      sub\n        /* \"#utility.yul\":7354:7355   */\n      0x00\n        /* \"#utility.yul\":7343:7352   */\n      dup4\n        /* \"#utility.yul\":7339:7356   */\n      add\n        /* \"#utility.yul\":7332:7379   */\n      mstore\n        /* \"#utility.yul\":7396:7472   */\n      tag_204\n        /* \"#utility.yul\":7467:7471   */\n      dup2\n        /* \"#utility.yul\":7458:7464   */\n      dup5\n        /* \"#utility.yul\":7396:7472   */\n      tag_98\n      jump\t// in\n    tag_204:\n        /* \"#utility.yul\":7388:7472   */\n      swap1\n      pop\n        /* \"#utility.yul\":7170:7479   */\n      swap3\n      swap2\n      pop\n      pop\n      jump\t// out\n        /* \"#utility.yul\":7485:7654   */\n    tag_99:\n        /* \"#utility.yul\":7569:7580   */\n      0x00\n        /* \"#utility.yul\":7603:7609   */\n      dup3\n        /* \"#utility.yul\":7598:7601   */\n      dup3\n        /* \"#utility.yul\":7591:7610   */\n      mstore\n        /* \"#utility.yul\":7643:7647   */\n      0x20\n        /* \"#utility.yul\":7638:7641   */\n      dup3\n        /* \"#utility.yul\":7634:7648   */\n      add\n        /* \"#utility.yul\":7619:7648   */\n      swap1\n      pop\n        /* \"#utility.yul\":7485:7654   */\n      swap3\n      swap2\n      pop\n      pop\n      jump\t// out\n        /* \"#utility.yul\":7660:7842   */\n    tag_100:\n        /* \"#utility.yul\":7800:7834   */\n      0x596f7520617265206e6f7420746865206f776e65722c2061626f7274696e6721\n        /* \"#utility.yul\":7796:7797   */\n      0x00\n        /* \"#utility.yul\":7788:7794   */\n      dup3\n        /* \"#utility.yul\":7784:7798   */\n      add\n        /* \"#utility.yul\":7777:7835   */\n      mstore\n        /* \"#utility.yul\":7660:7842   */\n      pop\n      jump\t// out\n        /* \"#utility.yul\":7848:8214   */\n    tag_101:\n        /* \"#utility.yul\":7990:7993   */\n      0x00\n        /* \"#utility.yul\":8011:8078   */\n      tag_208\n        /* \"#utility.yul\":8075:8077   */\n      0x20\n        /* \"#utility.yul\":8070:8073   */\n      dup4\n        /* \"#utility.yul\":8011:8078   */\n      tag_99\n      jump\t// in\n    tag_208:\n        /* \"#utility.yul\":8004:8078   */\n      swap2\n      pop\n        /* \"#utility.yul\":8087:8180   */\n      tag_209\n        /* \"#utility.yul\":8176:8179   */\n      dup3\n        /* \"#utility.yul\":8087:8180   */\n      tag_100\n      jump\t// in\n    tag_209:\n        /* \"#utility.yul\":8205:8207   */\n      0x20\n        /* \"#utility.yul\":8200:8203   */\n      dup3\n        /* \"#utility.yul\":8196:8208   */\n      add\n        /* \"#utility.yul\":8189:8208   */\n      swap1\n      pop\n        /* \"#utility.yul\":7848:8214   */\n      swap2\n      swap1\n      pop\n      jump\t// out\n        /* \"#utility.yul\":8220:8639   */\n    tag_40:\n        /* \"#utility.yul\":8386:8390   */\n      0x00\n        /* \"#utility.yul\":8424:8426   */\n      0x20\n        /* \"#utility.yul\":8413:8422   */\n      dup3\n        /* \"#utility.yul\":8409:8427   */\n      add\n        /* \"#utility.yul\":8401:8427   */\n      swap1\n      pop\n        /* \"#utility.yul\":8473:8482   */\n      dup2\n        /* \"#utility.yul\":8467:8471   */\n      dup2\n        /* \"#utility.yul\":8463:8483   */\n      sub\n        /* \"#utility.yul\":8459:8460   */\n      0x00\n        /* \"#utility.yul\":8448:8457   */\n      dup4\n        /* \"#utility.yul\":8444:8461   */\n      add\n        /* \"#utility.yul\":8437:8484   */\n      mstore\n        /* \"#utility.yul\":8501:8632   */\n      tag_211\n        /* \"#utility.yul\":8627:8631   */\n      dup2\n        /* \"#utility.yul\":8501:8632   */\n      tag_101\n      jump\t// in\n    tag_211:\n        /* \"#utility.yul\":8493:8632   */\n      swap1\n      pop\n        /* \"#utility.yul\":8220:8639   */\n      swap2\n      swap1\n      pop\n      jump\t// out\n        /* \"#utility.yul\":8645:8824   */\n    tag_102:\n        /* \"#utility.yul\":8785:8816   */\n      0x596f7520617265206e6f20677561726469616e2c2061626f7274696e67000000\n        /* \"#utility.yul\":8781:8782   */\n      0x00\n        /* \"#utility.yul\":8773:8779   */\n      dup3\n        /* \"#utility.yul\":8769:8783   */\n      add\n        /* \"#utility.yul\":8762:8817   */\n      mstore\n        /* \"#utility.yul\":8645:8824   */\n      pop\n      jump\t// out\n        /* \"#utility.yul\":8830:9196   */\n    tag_103:\n        /* \"#utility.yul\":8972:8975   */\n      0x00\n        /* \"#utility.yul\":8993:9060   */\n      tag_214\n        /* \"#utility.yul\":9057:9059   */\n      0x1d\n        /* \"#utility.yul\":9052:9055   */\n      dup4\n        /* \"#utility.yul\":8993:9060   */\n      tag_99\n      jump\t// in\n    tag_214:\n        /* \"#utility.yul\":8986:9060   */\n      swap2\n      pop\n        /* \"#utility.yul\":9069:9162   */\n      tag_215\n        /* \"#utility.yul\":9158:9161   */\n      dup3\n        /* \"#utility.yul\":9069:9162   */\n      tag_102\n      jump\t// in\n    tag_215:\n        /* \"#utility.yul\":9187:9189   */\n      0x20\n        /* \"#utility.yul\":9182:9185   */\n      dup3\n        /* \"#utility.yul\":9178:9190   */\n      add\n        /* \"#utility.yul\":9171:9190   */\n      swap1\n      pop\n        /* \"#utility.yul\":8830:9196   */\n      swap2\n      swap1\n      pop\n      jump\t// out\n        /* \"#utility.yul\":9202:9621   */\n    tag_44:\n        /* \"#utility.yul\":9368:9372   */\n      0x00\n        /* \"#utility.yul\":9406:9408   */\n      0x20\n        /* \"#utility.yul\":9395:9404   */\n      dup3\n        /* \"#utility.yul\":9391:9409   */\n      add\n        /* \"#utility.yul\":9383:9409   */\n      swap1\n      pop\n        /* \"#utility.yul\":9455:9464   */\n      dup2\n        /* \"#utility.yul\":9449:9453   */\n      dup2\n        /* \"#utility.yul\":9445:9465   */\n      sub\n        /* \"#utility.yul\":9441:9442   */\n      0x00\n        /* \"#utility.yul\":9430:9439   */\n      dup4\n        /* \"#utility.yul\":9426:9443   */\n      add\n        /* \"#utility.yul\":9419:9466   */\n      mstore\n        /* \"#utility.yul\":9483:9614   */\n      tag_217\n        /* \"#utility.yul\":9609:9613   */\n      dup2\n        /* \"#utility.yul\":9483:9614   */\n      tag_103\n      jump\t// in\n    tag_217:\n        /* \"#utility.yul\":9475:9614   */\n      swap1\n      pop\n        /* \"#utility.yul\":9202:9621   */\n      swap2\n      swap1\n      pop\n      jump\t// out\n        /* \"#utility.yul\":9627:9863   */\n    tag_104:\n        /* \"#utility.yul\":9767:9801   */\n      0x43616e27742073656e64206d6f7265207468616e2074686520636f6e74726163\n        /* \"#utility.yul\":9763:9764   */\n      0x00\n        /* \"#utility.yul\":9755:9761   */\n      dup3\n        /* \"#utility.yul\":9751:9765   */\n      add\n        /* \"#utility.yul\":9744:9802   */\n      mstore\n        /* \"#utility.yul\":9836:9855   */\n      0x74206f776e732c2061626f7274696e672e000000000000000000000000000000\n        /* \"#utility.yul\":9831:9833   */\n      0x20\n        /* \"#utility.yul\":9823:9829   */\n      dup3\n        /* \"#utility.yul\":9819:9834   */\n      add\n        /* \"#utility.yul\":9812:9856   */\n      mstore\n        /* \"#utility.yul\":9627:9863   */\n      pop\n      jump\t// out\n        /* \"#utility.yul\":9869:10235   */\n    tag_105:\n        /* \"#utility.yul\":10011:10014   */\n      0x00\n        /* \"#utility.yul\":10032:10099   */\n      tag_220\n        /* \"#utility.yul\":10096:10098   */\n      0x31\n        /* \"#utility.yul\":10091:10094   */\n      dup4\n        /* \"#utility.yul\":10032:10099   */\n      tag_99\n      jump\t// in\n    tag_220:\n        /* \"#utility.yul\":10025:10099   */\n      swap2\n      pop\n        /* \"#utility.yul\":10108:10201   */\n      tag_221\n        /* \"#utility.yul\":10197:10200   */\n      dup3\n        /* \"#utility.yul\":10108:10201   */\n      tag_104\n      jump\t// in\n    tag_221:\n        /* \"#utility.yul\":10226:10228   */\n      0x40\n        /* \"#utility.yul\":10221:10224   */\n      dup3\n        /* \"#utility.yul\":10217:10229   */\n      add\n        /* \"#utility.yul\":10210:10229   */\n      swap1\n      pop\n        /* \"#utility.yul\":9869:10235   */\n      swap2\n      swap1\n      pop\n      jump\t// out\n        /* \"#utility.yul\":10241:10660   */\n    tag_53:\n        /* \"#utility.yul\":10407:10411   */\n      0x00\n        /* \"#utility.yul\":10445:10447   */\n      0x20\n        /* \"#utility.yul\":10434:10443   */\n      dup3\n        /* \"#utility.yul\":10430:10448   */\n      add\n        /* \"#utility.yul\":10422:10448   */\n      swap1\n      pop\n        /* \"#utility.yul\":10494:10503   */\n      dup2\n        /* \"#utility.yul\":10488:10492   */\n      dup2\n        /* \"#utility.yul\":10484:10504   */\n      sub\n        /* \"#utility.yul\":10480:10481   */\n      0x00\n        /* \"#utility.yul\":10469:10478   */\n      dup4\n        /* \"#utility.yul\":10465:10482   */\n      add\n        /* \"#utility.yul\":10458:10505   */\n      mstore\n        /* \"#utility.yul\":10522:10653   */\n      tag_223\n        /* \"#utility.yul\":10648:10652   */\n      dup2\n        /* \"#utility.yul\":10522:10653   */\n      tag_105\n      jump\t// in\n    tag_223:\n        /* \"#utility.yul\":10514:10653   */\n      swap1\n      pop\n        /* \"#utility.yul\":10241:10660   */\n      swap2\n      swap1\n      pop\n      jump\t// out\n        /* \"#utility.yul\":10666:10907   */\n    tag_106:\n        /* \"#utility.yul\":10806:10840   */\n      0x596f7520617265206e6f7420616c6c6f77656420746f2073656e6420616e7920\n        /* \"#utility.yul\":10802:10803   */\n      0x00\n        /* \"#utility.yul\":10794:10800   */\n      dup3\n        /* \"#utility.yul\":10790:10804   */\n      add\n        /* \"#utility.yul\":10783:10841   */\n      mstore\n        /* \"#utility.yul\":10875:10899   */\n      0x7472616e73616374696f6e732c2061626f7274696e6700000000000000000000\n        /* \"#utility.yul\":10870:10872   */\n      0x20\n        /* \"#utility.yul\":10862:10868   */\n      dup3\n        /* \"#utility.yul\":10858:10873   */\n      add\n        /* \"#utility.yul\":10851:10900   */\n      mstore\n        /* \"#utility.yul\":10666:10907   */\n      pop\n      jump\t// out\n        /* \"#utility.yul\":10913:11279   */\n    tag_107:\n        /* \"#utility.yul\":11055:11058   */\n      0x00\n        /* \"#utility.yul\":11076:11143   */\n      tag_226\n        /* \"#utility.yul\":11140:11142   */\n      0x36\n        /* \"#utility.yul\":11135:11138   */\n      dup4\n        /* \"#utility.yul\":11076:11143   */\n      tag_99\n      jump\t// in\n    tag_226:\n        /* \"#utility.yul\":11069:11143   */\n      swap2\n      pop\n        /* \"#utility.yul\":11152:11245   */\n      tag_227\n        /* \"#utility.yul\":11241:11244   */\n      dup3\n        /* \"#utility.yul\":11152:11245   */\n      tag_106\n      jump\t// in\n    tag_227:\n        /* \"#utility.yul\":11270:11272   */\n      0x40\n        /* \"#utility.yul\":11265:11268   */\n      dup3\n        /* \"#utility.yul\":11261:11273   */\n      add\n        /* \"#utility.yul\":11254:11273   */\n      swap1\n      pop\n        /* \"#utility.yul\":10913:11279   */\n      swap2\n      swap1\n      pop\n      jump\t// out\n        /* \"#utility.yul\":11285:11704   */\n    tag_57:\n        /* \"#utility.yul\":11451:11455   */\n      0x00\n        /* \"#utility.yul\":11489:11491   */\n      0x20\n        /* \"#utility.yul\":11478:11487   */\n      dup3\n        /* \"#utility.yul\":11474:11492   */\n      add\n        /* \"#utility.yul\":11466:11492   */\n      swap1\n      pop\n        /* \"#utility.yul\":11538:11547   */\n      dup2\n        /* \"#utility.yul\":11532:11536   */\n      dup2\n        /* \"#utility.yul\":11528:11548   */\n      sub\n        /* \"#utility.yul\":11524:11525   */\n      0x00\n        /* \"#utility.yul\":11513:11522   */\n      dup4\n        /* \"#utility.yul\":11509:11526   */\n      add\n        /* \"#utility.yul\":11502:11549   */\n      mstore\n        /* \"#utility.yul\":11566:11697   */\n      tag_229\n        /* \"#utility.yul\":11692:11696   */\n      dup2\n        /* \"#utility.yul\":11566:11697   */\n      tag_107\n      jump\t// in\n    tag_229:\n        /* \"#utility.yul\":11558:11697   */\n      swap1\n      pop\n        /* \"#utility.yul\":11285:11704   */\n      swap2\n      swap1\n      pop\n      jump\t// out\n        /* \"#utility.yul\":11710:11958   */\n    tag_108:\n        /* \"#utility.yul\":11850:11884   */\n      0x596f752061726520747279696e6720746f2073656e64206d6f7265207468616e\n        /* \"#utility.yul\":11846:11847   */\n      0x00\n        /* \"#utility.yul\":11838:11844   */\n      dup3\n        /* \"#utility.yul\":11834:11848   */\n      add\n        /* \"#utility.yul\":11827:11885   */\n      mstore\n        /* \"#utility.yul\":11919:11950   */\n      0x20796f752061726520616c6c6f77656420746f2c2061626f7274696e67000000\n        /* \"#utility.yul\":11914:11916   */\n      0x20\n        /* \"#utility.yul\":11906:11912   */\n      dup3\n        /* \"#utility.yul\":11902:11917   */\n      add\n        /* \"#utility.yul\":11895:11951   */\n      mstore\n        /* \"#utility.yul\":11710:11958   */\n      pop\n      jump\t// out\n        /* \"#utility.yul\":11964:12330   */\n    tag_109:\n        /* \"#utility.yul\":12106:12109   */\n      0x00\n        /* \"#utility.yul\":12127:12194   */\n      tag_232\n        /* \"#utility.yul\":12191:12193   */\n      0x3d\n        /* \"#utility.yul\":12186:12189   */\n      dup4\n        /* \"#utility.yul\":12127:12194   */\n      tag_99\n      jump\t// in\n    tag_232:\n        /* \"#utility.yul\":12120:12194   */\n      swap2\n      pop\n        /* \"#utility.yul\":12203:12296   */\n      tag_233\n        /* \"#utility.yul\":12292:12295   */\n      dup3\n        /* \"#utility.yul\":12203:12296   */\n      tag_108\n      jump\t// in\n    tag_233:\n        /* \"#utility.yul\":12321:12323   */\n      0x40\n        /* \"#utility.yul\":12316:12319   */\n      dup3\n        /* \"#utility.yul\":12312:12324   */\n      add\n        /* \"#utility.yul\":12305:12324   */\n      swap1\n      pop\n        /* \"#utility.yul\":11964:12330   */\n      swap2\n      swap1\n      pop\n      jump\t// out\n        /* \"#utility.yul\":12336:12755   */\n    tag_60:\n        /* \"#utility.yul\":12502:12506   */\n      0x00\n        /* \"#utility.yul\":12540:12542   */\n      0x20\n        /* \"#utility.yul\":12529:12538   */\n      dup3\n        /* \"#utility.yul\":12525:12543   */\n      add\n        /* \"#utility.yul\":12517:12543   */\n      swap1\n      pop\n        /* \"#utility.yul\":12589:12598   */\n      dup2\n        /* \"#utility.yul\":12583:12587   */\n      dup2\n        /* \"#utility.yul\":12579:12599   */\n      sub\n        /* \"#utility.yul\":12575:12576   */\n      0x00\n        /* \"#utility.yul\":12564:12573   */\n      dup4\n        /* \"#utility.yul\":12560:12577   */\n      add\n        /* \"#utility.yul\":12553:12600   */\n      mstore\n        /* \"#utility.yul\":12617:12748   */\n      tag_235\n        /* \"#utility.yul\":12743:12747   */\n      dup2\n        /* \"#utility.yul\":12617:12748   */\n      tag_109\n      jump\t// in\n    tag_235:\n        /* \"#utility.yul\":12609:12748   */\n      swap1\n      pop\n        /* \"#utility.yul\":12336:12755   */\n      swap2\n      swap1\n      pop\n      jump\t// out\n        /* \"#utility.yul\":12761:12941   */\n    tag_110:\n        /* \"#utility.yul\":12809:12886   */\n      0x4e487b7100000000000000000000000000000000000000000000000000000000\n        /* \"#utility.yul\":12806:12807   */\n      0x00\n        /* \"#utility.yul\":12799:12887   */\n      mstore\n        /* \"#utility.yul\":12906:12910   */\n      0x11\n        /* \"#utility.yul\":12903:12904   */\n      0x04\n        /* \"#utility.yul\":12896:12911   */\n      mstore\n        /* \"#utility.yul\":12930:12934   */\n      0x24\n        /* \"#utility.yul\":12927:12928   */\n      0x00\n        /* \"#utility.yul\":12920:12935   */\n      revert\n        /* \"#utility.yul\":12947:13138   */\n    tag_62:\n        /* \"#utility.yul\":12987:12991   */\n      0x00\n        /* \"#utility.yul\":13007:13027   */\n      tag_238\n        /* \"#utility.yul\":13025:13026   */\n      dup3\n        /* \"#utility.yul\":13007:13027   */\n      tag_78\n      jump\t// in\n    tag_238:\n        /* \"#utility.yul\":13002:13027   */\n      swap2\n      pop\n        /* \"#utility.yul\":13041:13061   */\n      tag_239\n        /* \"#utility.yul\":13059:13060   */\n      dup4\n        /* \"#utility.yul\":13041:13061   */\n      tag_78\n      jump\t// in\n    tag_239:\n        /* \"#utility.yul\":13036:13061   */\n      swap3\n      pop\n        /* \"#utility.yul\":13080:13081   */\n      dup3\n        /* \"#utility.yul\":13077:13078   */\n      dup3\n        /* \"#utility.yul\":13074:13082   */\n      lt\n        /* \"#utility.yul\":13071:13105   */\n      iszero\n      tag_240\n      jumpi\n        /* \"#utility.yul\":13085:13103   */\n      tag_241\n      tag_110\n      jump\t// in\n    tag_241:\n        /* \"#utility.yul\":13071:13105   */\n    tag_240:\n        /* \"#utility.yul\":13130:13131   */\n      dup3\n        /* \"#utility.yul\":13127:13128   */\n      dup3\n        /* \"#utility.yul\":13123:13132   */\n      sub\n        /* \"#utility.yul\":13115:13132   */\n      swap1\n      pop\n        /* \"#utility.yul\":12947:13138   */\n      swap3\n      swap2\n      pop\n      pop\n      jump\t// out\n        /* \"#utility.yul\":13144:13291   */\n    tag_111:\n        /* \"#utility.yul\":13245:13256   */\n      0x00\n        /* \"#utility.yul\":13282:13285   */\n      dup2\n        /* \"#utility.yul\":13267:13285   */\n      swap1\n      pop\n        /* \"#utility.yul\":13144:13291   */\n      swap3\n      swap2\n      pop\n      pop\n      jump\t// out\n        /* \"#utility.yul\":13297:13670   */\n    tag_112:\n        /* \"#utility.yul\":13401:13404   */\n      0x00\n        /* \"#utility.yul\":13429:13467   */\n      tag_244\n        /* \"#utility.yul\":13461:13466   */\n      dup3\n        /* \"#utility.yul\":13429:13467   */\n      tag_95\n      jump\t// in\n    tag_244:\n        /* \"#utility.yul\":13483:13571   */\n      tag_245\n        /* \"#utility.yul\":13564:13570   */\n      dup2\n        /* \"#utility.yul\":13559:13562   */\n      dup6\n        /* \"#utility.yul\":13483:13571   */\n      tag_111\n      jump\t// in\n    tag_245:\n        /* \"#utility.yul\":13476:13571   */\n      swap4\n      pop\n        /* \"#utility.yul\":13580:13632   */\n      tag_246\n        /* \"#utility.yul\":13625:13631   */\n      dup2\n        /* \"#utility.yul\":13620:13623   */\n      dup6\n        /* \"#utility.yul\":13613:13617   */\n      0x20\n        /* \"#utility.yul\":13606:13611   */\n      dup7\n        /* \"#utility.yul\":13602:13618   */\n      add\n        /* \"#utility.yul\":13580:13632   */\n      tag_97\n      jump\t// in\n    tag_246:\n        /* \"#utility.yul\":13657:13663   */\n      dup1\n        /* \"#utility.yul\":13652:13655   */\n      dup5\n        /* \"#utility.yul\":13648:13664   */\n      add\n        /* \"#utility.yul\":13641:13664   */\n      swap2\n      pop\n        /* \"#utility.yul\":13405:13670   */\n      pop\n        /* \"#utility.yul\":13297:13670   */\n      swap3\n      swap2\n      pop\n      pop\n      jump\t// out\n        /* \"#utility.yul\":13676:13947   */\n    tag_64:\n        /* \"#utility.yul\":13806:13809   */\n      0x00\n        /* \"#utility.yul\":13828:13921   */\n      tag_248\n        /* \"#utility.yul\":13917:13920   */\n      dup3\n        /* \"#utility.yul\":13908:13914   */\n      dup5\n        /* \"#utility.yul\":13828:13921   */\n      tag_112\n      jump\t// in\n    tag_248:\n        /* \"#utility.yul\":13821:13921   */\n      swap2\n      pop\n        /* \"#utility.yul\":13938:13941   */\n      dup2\n        /* \"#utility.yul\":13931:13941   */\n      swap1\n      pop\n        /* \"#utility.yul\":13676:13947   */\n      swap3\n      swap2\n      pop\n      pop\n      jump\t// out\n        /* \"#utility.yul\":13953:14131   */\n    tag_113:\n        /* \"#utility.yul\":14093:14123   */\n      0x5472616e73616374696f6e206661696c65642c2061626f7274696e6700000000\n        /* \"#utility.yul\":14089:14090   */\n      0x00\n        /* \"#utility.yul\":14081:14087   */\n      dup3\n        /* \"#utility.yul\":14077:14091   */\n      add\n        /* \"#utility.yul\":14070:14124   */\n      mstore\n        /* \"#utility.yul\":13953:14131   */\n      pop\n      jump\t// out\n        /* \"#utility.yul\":14137:14503   */\n    tag_114:\n        /* \"#utility.yul\":14279:14282   */\n      0x00\n        /* \"#utility.yul\":14300:14367   */\n      tag_251\n        /* \"#utility.yul\":14364:14366   */\n      0x1c\n        /* \"#utility.yul\":14359:14362   */\n      dup4\n        /* \"#utility.yul\":14300:14367   */\n      tag_99\n      jump\t// in\n    tag_251:\n        /* \"#utility.yul\":14293:14367   */\n      swap2\n      pop\n        /* \"#utility.yul\":14376:14469   */\n      tag_252\n        /* \"#utility.yul\":14465:14468   */\n      dup3\n        /* \"#utility.yul\":14376:14469   */\n      tag_113\n      jump\t// in\n    tag_252:\n        /* \"#utility.yul\":14494:14496   */\n      0x20\n        /* \"#utility.yul\":14489:14492   */\n      dup3\n        /* \"#utility.yul\":14485:14497   */\n      add\n        /* \"#utility.yul\":14478:14497   */\n      swap1\n      pop\n        /* \"#utility.yul\":14137:14503   */\n      swap2\n      swap1\n      pop\n      jump\t// out\n        /* \"#utility.yul\":14509:14928   */\n    tag_70:\n        /* \"#utility.yul\":14675:14679   */\n      0x00\n        /* \"#utility.yul\":14713:14715   */\n      0x20\n        /* \"#utility.yul\":14702:14711   */\n      dup3\n        /* \"#utility.yul\":14698:14716   */\n      add\n        /* \"#utility.yul\":14690:14716   */\n      swap1\n      pop\n        /* \"#utility.yul\":14762:14771   */\n      dup2\n        /* \"#utility.yul\":14756:14760   */\n      dup2\n        /* \"#utility.yul\":14752:14772   */\n      sub\n        /* \"#utility.yul\":14748:14749   */\n      0x00\n        /* \"#utility.yul\":14737:14746   */\n      dup4\n        /* \"#utility.yul\":14733:14750   */\n      add\n        /* \"#utility.yul\":14726:14773   */\n      mstore\n        /* \"#utility.yul\":14790:14921   */\n      tag_254\n        /* \"#utility.yul\":14916:14920   */\n      dup2\n        /* \"#utility.yul\":14790:14921   */\n      tag_114\n      jump\t// in\n    tag_254:\n        /* \"#utility.yul\":14782:14921   */\n      swap1\n      pop\n        /* \"#utility.yul\":14509:14928   */\n      swap2\n      swap1\n      pop\n      jump\t// out\n\n    auxdata: 0xa26469706673582212206e7b2e3625d931be43b5315e077af5d638c657e3224822f24abe18e40cdb629164736f6c634300080f0033\n}\n",
				"bytecode": {
					"linkReferences": {},
					"object": "608060405234801561001057600080fd5b50336000806101000a81548173ffffffffffffffffffffffffffffffffffffffff021916908373ffffffffffffffffffffffffffffffffffffffff16021790555061100e806100606000396000f3fe60806040526004361061004e5760003560e01c8063310ec4a71461005a5780636fe9dc71146100835780637673de53146100ac5780638da5cb5b146100d5578063be45fd621461010057610055565b3661005557005b600080fd5b34801561006657600080fd5b50610081600480360381019061007c91906108b6565b61013d565b005b34801561008f57600080fd5b506100aa60048036038101906100a59190610934565b61026b565b005b3480156100b857600080fd5b506100d360048036038101906100ce9190610961565b610448565b005b3480156100e157600080fd5b506100ea610531565b6040516100f7919061099d565b60405180910390f35b34801561010c57600080fd5b5061012760048036038101906101229190610afe565b610555565b6040516101349190610bf5565b60405180910390f35b60008054906101000a900473ffffffffffffffffffffffffffffffffffffffff1673ffffffffffffffffffffffffffffffffffffffff163373ffffffffffffffffffffffffffffffffffffffff16146101cb576040517f08c379a00000000000000000000000000000000000000000000000000000000081526004016101c290610c74565b60405180910390fd5b80600360008473ffffffffffffffffffffffffffffffffffffffff1673ffffffffffffffffffffffffffffffffffffffff168152602001908152602001600020819055506001600460008473ffffffffffffffffffffffffffffffffffffffff1673ffffffffffffffffffffffffffffffffffffffff16815260200190815260200160002060006101000a81548160ff0219169083151502179055505050565b600260003373ffffffffffffffffffffffffffffffffffffffff1673ffffffffffffffffffffffffffffffffffffffff16815260200190815260200160002060009054906101000a900460ff166102f7576040517f08c379a00000000000000000000000000000000000000000000000000000000081526004016102ee90610ce0565b60405180910390fd5b8073ffffffffffffffffffffffffffffffffffffffff16600160009054906101000a900473ffffffffffffffffffffffffffffffffffffffff1673ffffffffffffffffffffffffffffffffffffffff16146103965780600160006101000a81548173ffffffffffffffffffffffffffffffffffffffff021916908373ffffffffffffffffffffffffffffffffffffffff16021790555060006005819055505b60036005541061044557600160009054906101000a900473ffffffffffffffffffffffffffffffffffffffff166000806101000a81548173ffffffffffffffffffffffffffffffffffffffff021916908373ffffffffffffffffffffffffffffffffffffffff1602179055506000600160006101000a81548173ffffffffffffffffffffffffffffffffffffffff021916908373ffffffffffffffffffffffffffffffffffffffff1602179055505b50565b60008054906101000a900473ffffffffffffffffffffffffffffffffffffffff1673ffffffffffffffffffffffffffffffffffffffff163373ffffffffffffffffffffffffffffffffffffffff16146104d6576040517f08c379a00000000000000000000000000000000000000000000000000000000081526004016104cd90610c74565b60405180910390fd5b6000600460008373ffffffffffffffffffffffffffffffffffffffff1673ffffffffffffffffffffffffffffffffffffffff16815260200190815260200160002060006101000a81548160ff02191690831515021790555050565b60008054906101000a900473ffffffffffffffffffffffffffffffffffffffff1681565b60604783111561059a576040517f08c379a000000000000000000000000000000000000000000000000000000000815260040161059190610d72565b60405180910390fd5b60008054906101000a900473ffffffffffffffffffffffffffffffffffffffff1673ffffffffffffffffffffffffffffffffffffffff163373ffffffffffffffffffffffffffffffffffffffff161461075257600460003373ffffffffffffffffffffffffffffffffffffffff1673ffffffffffffffffffffffffffffffffffffffff16815260200190815260200160002060009054906101000a900460ff16610679576040517f08c379a000000000000000000000000000000000000000000000000000000000815260040161067090610e04565b60405180910390fd5b82600360003373ffffffffffffffffffffffffffffffffffffffff1673ffffffffffffffffffffffffffffffffffffffff1681526020019081526020016000205410156106fb576040517f08c379a00000000000000000000000000000000000000000000000000000000081526004016106f290610e96565b60405180910390fd5b82600360003373ffffffffffffffffffffffffffffffffffffffff1673ffffffffffffffffffffffffffffffffffffffff168152602001908152602001600020600082825461074a9190610ee5565b925050819055505b6000808573ffffffffffffffffffffffffffffffffffffffff16858560405161077b9190610f55565b60006040518083038185875af1925050503d80600081146107b8576040519150601f19603f3d011682016040523d82523d6000602084013e6107bd565b606091505b509150915081610802576040517f08c379a00000000000000000000000000000000000000000000000000000000081526004016107f990610fb8565b60405180910390fd5b80925050509392505050565b6000604051905090565b600080fd5b600080fd5b600073ffffffffffffffffffffffffffffffffffffffff82169050919050565b600061084d82610822565b9050919050565b61085d81610842565b811461086857600080fd5b50565b60008135905061087a81610854565b92915050565b6000819050919050565b61089381610880565b811461089e57600080fd5b50565b6000813590506108b08161088a565b92915050565b600080604083850312156108cd576108cc610818565b5b60006108db8582860161086b565b92505060206108ec858286016108a1565b9150509250929050565b600061090182610822565b9050919050565b610911816108f6565b811461091c57600080fd5b50565b60008135905061092e81610908565b92915050565b60006020828403121561094a57610949610818565b5b60006109588482850161091f565b91505092915050565b60006020828403121561097757610976610818565b5b60006109858482850161086b565b91505092915050565b610997816108f6565b82525050565b60006020820190506109b2600083018461098e565b92915050565b600080fd5b600080fd5b6000601f19601f8301169050919050565b7f4e487b7100000000000000000000000000000000000000000000000000000000600052604160045260246000fd5b610a0b826109c2565b810181811067ffffffffffffffff82111715610a2a57610a296109d3565b5b80604052505050565b6000610a3d61080e565b9050610a498282610a02565b919050565b600067ffffffffffffffff821115610a6957610a686109d3565b5b610a72826109c2565b9050602081019050919050565b82818337600083830152505050565b6000610aa1610a9c84610a4e565b610a33565b905082815260208101848484011115610abd57610abc6109bd565b5b610ac8848285610a7f565b509392505050565b600082601f830112610ae557610ae46109b8565b5b8135610af5848260208601610a8e565b91505092915050565b600080600060608486031215610b1757610b16610818565b5b6000610b258682870161091f565b9350506020610b36868287016108a1565b925050604084013567ffffffffffffffff811115610b5757610b5661081d565b5b610b6386828701610ad0565b9150509250925092565b600081519050919050565b600082825260208201905092915050565b60005b83811015610ba7578082015181840152602081019050610b8c565b83811115610bb6576000848401525b50505050565b6000610bc782610b6d565b610bd18185610b78565b9350610be1818560208601610b89565b610bea816109c2565b840191505092915050565b60006020820190508181036000830152610c0f8184610bbc565b905092915050565b600082825260208201905092915050565b7f596f7520617265206e6f7420746865206f776e65722c2061626f7274696e6721600082015250565b6000610c5e602083610c17565b9150610c6982610c28565b602082019050919050565b60006020820190508181036000830152610c8d81610c51565b9050919050565b7f596f7520617265206e6f20677561726469616e2c2061626f7274696e67000000600082015250565b6000610cca601d83610c17565b9150610cd582610c94565b602082019050919050565b60006020820190508181036000830152610cf981610cbd565b9050919050565b7f43616e27742073656e64206d6f7265207468616e2074686520636f6e7472616360008201527f74206f776e732c2061626f7274696e672e000000000000000000000000000000602082015250565b6000610d5c603183610c17565b9150610d6782610d00565b604082019050919050565b60006020820190508181036000830152610d8b81610d4f565b9050919050565b7f596f7520617265206e6f7420616c6c6f77656420746f2073656e6420616e792060008201527f7472616e73616374696f6e732c2061626f7274696e6700000000000000000000602082015250565b6000610dee603683610c17565b9150610df982610d92565b604082019050919050565b60006020820190508181036000830152610e1d81610de1565b9050919050565b7f596f752061726520747279696e6720746f2073656e64206d6f7265207468616e60008201527f20796f752061726520616c6c6f77656420746f2c2061626f7274696e67000000602082015250565b6000610e80603d83610c17565b9150610e8b82610e24565b604082019050919050565b60006020820190508181036000830152610eaf81610e73565b9050919050565b7f4e487b7100000000000000000000000000000000000000000000000000000000600052601160045260246000fd5b6000610ef082610880565b9150610efb83610880565b925082821015610f0e57610f0d610eb6565b5b828203905092915050565b600081905092915050565b6000610f2f82610b6d565b610f398185610f19565b9350610f49818560208601610b89565b80840191505092915050565b6000610f618284610f24565b915081905092915050565b7f5472616e73616374696f6e206661696c65642c2061626f7274696e6700000000600082015250565b6000610fa2601c83610c17565b9150610fad82610f6c565b602082019050919050565b60006020820190508181036000830152610fd181610f95565b905091905056fea26469706673582212206e7b2e3625d931be43b5315e077af5d638c657e3224822f24abe18e40cdb629164736f6c634300080f0033",
					"opcodes": "PUSH1 0x80 PUSH1 0x40 MSTORE CALLVALUE DUP1 ISZERO PUSH2 0x10 JUMPI PUSH1 0x0 DUP1 REVERT JUMPDEST POP CALLER PUSH1 0x0 DUP1 PUSH2 0x100 EXP DUP2 SLOAD DUP2 PUSH20 0xFFFFFFFFFFFFFFFFFFFFFFFFFFFFFFFFFFFFFFFF MUL NOT AND SWAP1 DUP4 PUSH20 0xFFFFFFFFFFFFFFFFFFFFFFFFFFFFFFFFFFFFFFFF AND MUL OR SWAP1 SSTORE POP PUSH2 0x100E DUP1 PUSH2 0x60 PUSH1 0x0 CODECOPY PUSH1 0x0 RETURN INVALID PUSH1 0x80 PUSH1 0x40 MSTORE PUSH1 0x4 CALLDATASIZE LT PUSH2 0x4E JUMPI PUSH1 0x0 CALLDATALOAD PUSH1 0xE0 SHR DUP1 PUSH4 0x310EC4A7 EQ PUSH2 0x5A JUMPI DUP1 PUSH4 0x6FE9DC71 EQ PUSH2 0x83 JUMPI DUP1 PUSH4 0x7673DE53 EQ PUSH2 0xAC JUMPI DUP1 PUSH4 0x8DA5CB5B EQ PUSH2 0xD5 JUMPI DUP1 PUSH4 0xBE45FD62 EQ PUSH2 0x100 JUMPI PUSH2 0x55 JUMP JUMPDEST CALLDATASIZE PUSH2 0x55 JUMPI STOP JUMPDEST PUSH1 0x0 DUP1 REVERT JUMPDEST CALLVALUE DUP1 ISZERO PUSH2 0x66 JUMPI PUSH1 0x0 DUP1 REVERT JUMPDEST POP PUSH2 0x81 PUSH1 0x4 DUP1 CALLDATASIZE SUB DUP2 ADD SWAP1 PUSH2 0x7C SWAP2 SWAP1 PUSH2 0x8B6 JUMP JUMPDEST PUSH2 0x13D JUMP JUMPDEST STOP JUMPDEST CALLVALUE DUP1 ISZERO PUSH2 0x8F JUMPI PUSH1 0x0 DUP1 REVERT JUMPDEST POP PUSH2 0xAA PUSH1 0x4 DUP1 CALLDATASIZE SUB DUP2 ADD SWAP1 PUSH2 0xA5 SWAP2 SWAP1 PUSH2 0x934 JUMP JUMPDEST PUSH2 0x26B JUMP JUMPDEST STOP JUMPDEST CALLVALUE DUP1 ISZERO PUSH2 0xB8 JUMPI PUSH1 0x0 DUP1 REVERT JUMPDEST POP PUSH2 0xD3 PUSH1 0x4 DUP1 CALLDATASIZE SUB DUP2 ADD SWAP1 PUSH2 0xCE SWAP2 SWAP1 PUSH2 0x961 JUMP JUMPDEST PUSH2 0x448 JUMP JUMPDEST STOP JUMPDEST CALLVALUE DUP1 ISZERO PUSH2 0xE1 JUMPI PUSH1 0x0 DUP1 REVERT JUMPDEST POP PUSH2 0xEA PUSH2 0x531 JUMP JUMPDEST PUSH1 0x40 MLOAD PUSH2 0xF7 SWAP2 SWAP1 PUSH2 0x99D JUMP JUMPDEST PUSH1 0x40 MLOAD DUP1 SWAP2 SUB SWAP1 RETURN JUMPDEST CALLVALUE DUP1 ISZERO PUSH2 0x10C JUMPI PUSH1 0x0 DUP1 REVERT JUMPDEST POP PUSH2 0x127 PUSH1 0x4 DUP1 CALLDATASIZE SUB DUP2 ADD SWAP1 PUSH2 0x122 SWAP2 SWAP1 PUSH2 0xAFE JUMP JUMPDEST PUSH2 0x555 JUMP JUMPDEST PUSH1 0x40 MLOAD PUSH2 0x134 SWAP2 SWAP1 PUSH2 0xBF5 JUMP JUMPDEST PUSH1 0x40 MLOAD DUP1 SWAP2 SUB SWAP1 RETURN JUMPDEST PUSH1 0x0 DUP1 SLOAD SWAP1 PUSH2 0x100 EXP SWAP1 DIV PUSH20 0xFFFFFFFFFFFFFFFFFFFFFFFFFFFFFFFFFFFFFFFF AND PUSH20 0xFFFFFFFFFFFFFFFFFFFFFFFFFFFFFFFFFFFFFFFF AND CALLER PUSH20 0xFFFFFFFFFFFFFFFFFFFFFFFFFFFFFFFFFFFFFFFF AND EQ PUSH2 0x1CB JUMPI PUSH1 0x40 MLOAD PUSH32 0x8C379A000000000000000000000000000000000000000000000000000000000 DUP2 MSTORE PUSH1 0x4 ADD PUSH2 0x1C2 SWAP1 PUSH2 0xC74 JUMP JUMPDEST PUSH1 0x40 MLOAD DUP1 SWAP2 SUB SWAP1 REVERT JUMPDEST DUP1 PUSH1 0x3 PUSH1 0x0 DUP5 PUSH20 0xFFFFFFFFFFFFFFFFFFFFFFFFFFFFFFFFFFFFFFFF AND PUSH20 0xFFFFFFFFFFFFFFFFFFFFFFFFFFFFFFFFFFFFFFFF AND DUP2 MSTORE PUSH1 0x20 ADD SWAP1 DUP2 MSTORE PUSH1 0x20 ADD PUSH1 0x0 KECCAK256 DUP2 SWAP1 SSTORE POP PUSH1 0x1 PUSH1 0x4 PUSH1 0x0 DUP5 PUSH20 0xFFFFFFFFFFFFFFFFFFFFFFFFFFFFFFFFFFFFFFFF AND PUSH20 0xFFFFFFFFFFFFFFFFFFFFFFFFFFFFFFFFFFFFFFFF AND DUP2 MSTORE PUSH1 0x20 ADD SWAP1 DUP2 MSTORE PUSH1 0x20 ADD PUSH1 0x0 KECCAK256 PUSH1 0x0 PUSH2 0x100 EXP DUP2 SLOAD DUP2 PUSH1 0xFF MUL NOT AND SWAP1 DUP4 ISZERO ISZERO MUL OR SWAP1 SSTORE POP POP POP JUMP JUMPDEST PUSH1 0x2 PUSH1 0x0 CALLER PUSH20 0xFFFFFFFFFFFFFFFFFFFFFFFFFFFFFFFFFFFFFFFF AND PUSH20 0xFFFFFFFFFFFFFFFFFFFFFFFFFFFFFFFFFFFFFFFF AND DUP2 MSTORE PUSH1 0x20 ADD SWAP1 DUP2 MSTORE PUSH1 0x20 ADD PUSH1 0x0 KECCAK256 PUSH1 0x0 SWAP1 SLOAD SWAP1 PUSH2 0x100 EXP SWAP1 DIV PUSH1 0xFF AND PUSH2 0x2F7 JUMPI PUSH1 0x40 MLOAD PUSH32 0x8C379A000000000000000000000000000000000000000000000000000000000 DUP2 MSTORE PUSH1 0x4 ADD PUSH2 0x2EE SWAP1 PUSH2 0xCE0 JUMP JUMPDEST PUSH1 0x40 MLOAD DUP1 SWAP2 SUB SWAP1 REVERT JUMPDEST DUP1 PUSH20 0xFFFFFFFFFFFFFFFFFFFFFFFFFFFFFFFFFFFFFFFF AND PUSH1 0x1 PUSH1 0x0 SWAP1 SLOAD SWAP1 PUSH2 0x100 EXP SWAP1 DIV PUSH20 0xFFFFFFFFFFFFFFFFFFFFFFFFFFFFFFFFFFFFFFFF AND PUSH20 0xFFFFFFFFFFFFFFFFFFFFFFFFFFFFFFFFFFFFFFFF AND EQ PUSH2 0x396 JUMPI DUP1 PUSH1 0x1 PUSH1 0x0 PUSH2 0x100 EXP DUP2 SLOAD DUP2 PUSH20 0xFFFFFFFFFFFFFFFFFFFFFFFFFFFFFFFFFFFFFFFF MUL NOT AND SWAP1 DUP4 PUSH20 0xFFFFFFFFFFFFFFFFFFFFFFFFFFFFFFFFFFFFFFFF AND MUL OR SWAP1 SSTORE POP PUSH1 0x0 PUSH1 0x5 DUP2 SWAP1 SSTORE POP JUMPDEST PUSH1 0x3 PUSH1 0x5 SLOAD LT PUSH2 0x445 JUMPI PUSH1 0x1 PUSH1 0x0 SWAP1 SLOAD SWAP1 PUSH2 0x100 EXP SWAP1 DIV PUSH20 0xFFFFFFFFFFFFFFFFFFFFFFFFFFFFFFFFFFFFFFFF AND PUSH1 0x0 DUP1 PUSH2 0x100 EXP DUP2 SLOAD DUP2 PUSH20 0xFFFFFFFFFFFFFFFFFFFFFFFFFFFFFFFFFFFFFFFF MUL NOT AND SWAP1 DUP4 PUSH20 0xFFFFFFFFFFFFFFFFFFFFFFFFFFFFFFFFFFFFFFFF AND MUL OR SWAP1 SSTORE POP PUSH1 0x0 PUSH1 0x1 PUSH1 0x0 PUSH2 0x100 EXP DUP2 SLOAD DUP2 PUSH20 0xFFFFFFFFFFFFFFFFFFFFFFFFFFFFFFFFFFFFFFFF MUL NOT AND SWAP1 DUP4 PUSH20 0xFFFFFFFFFFFFFFFFFFFFFFFFFFFFFFFFFFFFFFFF AND MUL OR SWAP1 SSTORE POP JUMPDEST POP JUMP JUMPDEST PUSH1 0x0 DUP1 SLOAD SWAP1 PUSH2 0x100 EXP SWAP1 DIV PUSH20 0xFFFFFFFFFFFFFFFFFFFFFFFFFFFFFFFFFFFFFFFF AND PUSH20 0xFFFFFFFFFFFFFFFFFFFFFFFFFFFFFFFFFFFFFFFF AND CALLER PUSH20 0xFFFFFFFFFFFFFFFFFFFFFFFFFFFFFFFFFFFFFFFF AND EQ PUSH2 0x4D6 JUMPI PUSH1 0x40 MLOAD PUSH32 0x8C379A000000000000000000000000000000000000000000000000000000000 DUP2 MSTORE PUSH1 0x4 ADD PUSH2 0x4CD SWAP1 PUSH2 0xC74 JUMP JUMPDEST PUSH1 0x40 MLOAD DUP1 SWAP2 SUB SWAP1 REVERT JUMPDEST PUSH1 0x0 PUSH1 0x4 PUSH1 0x0 DUP4 PUSH20 0xFFFFFFFFFFFFFFFFFFFFFFFFFFFFFFFFFFFFFFFF AND PUSH20 0xFFFFFFFFFFFFFFFFFFFFFFFFFFFFFFFFFFFFFFFF AND DUP2 MSTORE PUSH1 0x20 ADD SWAP1 DUP2 MSTORE PUSH1 0x20 ADD PUSH1 0x0 KECCAK256 PUSH1 0x0 PUSH2 0x100 EXP DUP2 SLOAD DUP2 PUSH1 0xFF MUL NOT AND SWAP1 DUP4 ISZERO ISZERO MUL OR SWAP1 SSTORE POP POP JUMP JUMPDEST PUSH1 0x0 DUP1 SLOAD SWAP1 PUSH2 0x100 EXP SWAP1 DIV PUSH20 0xFFFFFFFFFFFFFFFFFFFFFFFFFFFFFFFFFFFFFFFF AND DUP2 JUMP JUMPDEST PUSH1 0x60 SELFBALANCE DUP4 GT ISZERO PUSH2 0x59A JUMPI PUSH1 0x40 MLOAD PUSH32 0x8C379A000000000000000000000000000000000000000000000000000000000 DUP2 MSTORE PUSH1 0x4 ADD PUSH2 0x591 SWAP1 PUSH2 0xD72 JUMP JUMPDEST PUSH1 0x40 MLOAD DUP1 SWAP2 SUB SWAP1 REVERT JUMPDEST PUSH1 0x0 DUP1 SLOAD SWAP1 PUSH2 0x100 EXP SWAP1 DIV PUSH20 0xFFFFFFFFFFFFFFFFFFFFFFFFFFFFFFFFFFFFFFFF AND PUSH20 0xFFFFFFFFFFFFFFFFFFFFFFFFFFFFFFFFFFFFFFFF AND CALLER PUSH20 0xFFFFFFFFFFFFFFFFFFFFFFFFFFFFFFFFFFFFFFFF AND EQ PUSH2 0x752 JUMPI PUSH1 0x4 PUSH1 0x0 CALLER PUSH20 0xFFFFFFFFFFFFFFFFFFFFFFFFFFFFFFFFFFFFFFFF AND PUSH20 0xFFFFFFFFFFFFFFFFFFFFFFFFFFFFFFFFFFFFFFFF AND DUP2 MSTORE PUSH1 0x20 ADD SWAP1 DUP2 MSTORE PUSH1 0x20 ADD PUSH1 0x0 KECCAK256 PUSH1 0x0 SWAP1 SLOAD SWAP1 PUSH2 0x100 EXP SWAP1 DIV PUSH1 0xFF AND PUSH2 0x679 JUMPI PUSH1 0x40 MLOAD PUSH32 0x8C379A000000000000000000000000000000000000000000000000000000000 DUP2 MSTORE PUSH1 0x4 ADD PUSH2 0x670 SWAP1 PUSH2 0xE04 JUMP JUMPDEST PUSH1 0x40 MLOAD DUP1 SWAP2 SUB SWAP1 REVERT JUMPDEST DUP3 PUSH1 0x3 PUSH1 0x0 CALLER PUSH20 0xFFFFFFFFFFFFFFFFFFFFFFFFFFFFFFFFFFFFFFFF AND PUSH20 0xFFFFFFFFFFFFFFFFFFFFFFFFFFFFFFFFFFFFFFFF AND DUP2 MSTORE PUSH1 0x20 ADD SWAP1 DUP2 MSTORE PUSH1 0x20 ADD PUSH1 0x0 KECCAK256 SLOAD LT ISZERO PUSH2 0x6FB JUMPI PUSH1 0x40 MLOAD PUSH32 0x8C379A000000000000000000000000000000000000000000000000000000000 DUP2 MSTORE PUSH1 0x4 ADD PUSH2 0x6F2 SWAP1 PUSH2 0xE96 JUMP JUMPDEST PUSH1 0x40 MLOAD DUP1 SWAP2 SUB SWAP1 REVERT JUMPDEST DUP3 PUSH1 0x3 PUSH1 0x0 CALLER PUSH20 0xFFFFFFFFFFFFFFFFFFFFFFFFFFFFFFFFFFFFFFFF AND PUSH20 0xFFFFFFFFFFFFFFFFFFFFFFFFFFFFFFFFFFFFFFFF AND DUP2 MSTORE PUSH1 0x20 ADD SWAP1 DUP2 MSTORE PUSH1 0x20 ADD PUSH1 0x0 KECCAK256 PUSH1 0x0 DUP3 DUP3 SLOAD PUSH2 0x74A SWAP2 SWAP1 PUSH2 0xEE5 JUMP JUMPDEST SWAP3 POP POP DUP2 SWAP1 SSTORE POP JUMPDEST PUSH1 0x0 DUP1 DUP6 PUSH20 0xFFFFFFFFFFFFFFFFFFFFFFFFFFFFFFFFFFFFFFFF AND DUP6 DUP6 PUSH1 0x40 MLOAD PUSH2 0x77B SWAP2 SWAP1 PUSH2 0xF55 JUMP JUMPDEST PUSH1 0x0 PUSH1 0x40 MLOAD DUP1 DUP4 SUB DUP2 DUP6 DUP8 GAS CALL SWAP3 POP POP POP RETURNDATASIZE DUP1 PUSH1 0x0 DUP2 EQ PUSH2 0x7B8 JUMPI PUSH1 0x40 MLOAD SWAP2 POP PUSH1 0x1F NOT PUSH1 0x3F RETURNDATASIZE ADD AND DUP3 ADD PUSH1 0x40 MSTORE RETURNDATASIZE DUP3 MSTORE RETURNDATASIZE PUSH1 0x0 PUSH1 0x20 DUP5 ADD RETURNDATACOPY PUSH2 0x7BD JUMP JUMPDEST PUSH1 0x60 SWAP2 POP JUMPDEST POP SWAP2 POP SWAP2 POP DUP2 PUSH2 0x802 JUMPI PUSH1 0x40 MLOAD PUSH32 0x8C379A000000000000000000000000000000000000000000000000000000000 DUP2 MSTORE PUSH1 0x4 ADD PUSH2 0x7F9 SWAP1 PUSH2 0xFB8 JUMP JUMPDEST PUSH1 0x40 MLOAD DUP1 SWAP2 SUB SWAP1 REVERT JUMPDEST DUP1 SWAP3 POP POP POP SWAP4 SWAP3 POP POP POP JUMP JUMPDEST PUSH1 0x0 PUSH1 0x40 MLOAD SWAP1 POP SWAP1 JUMP JUMPDEST PUSH1 0x0 DUP1 REVERT JUMPDEST PUSH1 0x0 DUP1 REVERT JUMPDEST PUSH1 0x0 PUSH20 0xFFFFFFFFFFFFFFFFFFFFFFFFFFFFFFFFFFFFFFFF DUP3 AND SWAP1 POP SWAP2 SWAP1 POP JUMP JUMPDEST PUSH1 0x0 PUSH2 0x84D DUP3 PUSH2 0x822 JUMP JUMPDEST SWAP1 POP SWAP2 SWAP1 POP JUMP JUMPDEST PUSH2 0x85D DUP2 PUSH2 0x842 JUMP JUMPDEST DUP2 EQ PUSH2 0x868 JUMPI PUSH1 0x0 DUP1 REVERT JUMPDEST POP JUMP JUMPDEST PUSH1 0x0 DUP2 CALLDATALOAD SWAP1 POP PUSH2 0x87A DUP2 PUSH2 0x854 JUMP JUMPDEST SWAP3 SWAP2 POP POP JUMP JUMPDEST PUSH1 0x0 DUP2 SWAP1 POP SWAP2 SWAP1 POP JUMP JUMPDEST PUSH2 0x893 DUP2 PUSH2 0x880 JUMP JUMPDEST DUP2 EQ PUSH2 0x89E JUMPI PUSH1 0x0 DUP1 REVERT JUMPDEST POP JUMP JUMPDEST PUSH1 0x0 DUP2 CALLDATALOAD SWAP1 POP PUSH2 0x8B0 DUP2 PUSH2 0x88A JUMP JUMPDEST SWAP3 SWAP2 POP POP JUMP JUMPDEST PUSH1 0x0 DUP1 PUSH1 0x40 DUP4 DUP6 SUB SLT ISZERO PUSH2 0x8CD JUMPI PUSH2 0x8CC PUSH2 0x818 JUMP JUMPDEST JUMPDEST PUSH1 0x0 PUSH2 0x8DB DUP6 DUP3 DUP7 ADD PUSH2 0x86B JUMP JUMPDEST SWAP3 POP POP PUSH1 0x20 PUSH2 0x8EC DUP6 DUP3 DUP7 ADD PUSH2 0x8A1 JUMP JUMPDEST SWAP2 POP POP SWAP3 POP SWAP3 SWAP1 POP JUMP JUMPDEST PUSH1 0x0 PUSH2 0x901 DUP3 PUSH2 0x822 JUMP JUMPDEST SWAP1 POP SWAP2 SWAP1 POP JUMP JUMPDEST PUSH2 0x911 DUP2 PUSH2 0x8F6 JUMP JUMPDEST DUP2 EQ PUSH2 0x91C JUMPI PUSH1 0x0 DUP1 REVERT JUMPDEST POP JUMP JUMPDEST PUSH1 0x0 DUP2 CALLDATALOAD SWAP1 POP PUSH2 0x92E DUP2 PUSH2 0x908 JUMP JUMPDEST SWAP3 SWAP2 POP POP JUMP JUMPDEST PUSH1 0x0 PUSH1 0x20 DUP3 DUP5 SUB SLT ISZERO PUSH2 0x94A JUMPI PUSH2 0x949 PUSH2 0x818 JUMP JUMPDEST JUMPDEST PUSH1 0x0 PUSH2 0x958 DUP5 DUP3 DUP6 ADD PUSH2 0x91F JUMP JUMPDEST SWAP2 POP POP SWAP3 SWAP2 POP POP JUMP JUMPDEST PUSH1 0x0 PUSH1 0x20 DUP3 DUP5 SUB SLT ISZERO PUSH2 0x977 JUMPI PUSH2 0x976 PUSH2 0x818 JUMP JUMPDEST JUMPDEST PUSH1 0x0 PUSH2 0x985 DUP5 DUP3 DUP6 ADD PUSH2 0x86B JUMP JUMPDEST SWAP2 POP POP SWAP3 SWAP2 POP POP JUMP JUMPDEST PUSH2 0x997 DUP2 PUSH2 0x8F6 JUMP JUMPDEST DUP3 MSTORE POP POP JUMP JUMPDEST PUSH1 0x0 PUSH1 0x20 DUP3 ADD SWAP1 POP PUSH2 0x9B2 PUSH1 0x0 DUP4 ADD DUP5 PUSH2 0x98E JUMP JUMPDEST SWAP3 SWAP2 POP POP JUMP JUMPDEST PUSH1 0x0 DUP1 REVERT JUMPDEST PUSH1 0x0 DUP1 REVERT JUMPDEST PUSH1 0x0 PUSH1 0x1F NOT PUSH1 0x1F DUP4 ADD AND SWAP1 POP SWAP2 SWAP1 POP JUMP JUMPDEST PUSH32 0x4E487B7100000000000000000000000000000000000000000000000000000000 PUSH1 0x0 MSTORE PUSH1 0x41 PUSH1 0x4 MSTORE PUSH1 0x24 PUSH1 0x0 REVERT JUMPDEST PUSH2 0xA0B DUP3 PUSH2 0x9C2 JUMP JUMPDEST DUP2 ADD DUP2 DUP2 LT PUSH8 0xFFFFFFFFFFFFFFFF DUP3 GT OR ISZERO PUSH2 0xA2A JUMPI PUSH2 0xA29 PUSH2 0x9D3 JUMP JUMPDEST JUMPDEST DUP1 PUSH1 0x40 MSTORE POP POP POP JUMP JUMPDEST PUSH1 0x0 PUSH2 0xA3D PUSH2 0x80E JUMP JUMPDEST SWAP1 POP PUSH2 0xA49 DUP3 DUP3 PUSH2 0xA02 JUMP JUMPDEST SWAP2 SWAP1 POP JUMP JUMPDEST PUSH1 0x0 PUSH8 0xFFFFFFFFFFFFFFFF DUP3 GT ISZERO PUSH2 0xA69 JUMPI PUSH2 0xA68 PUSH2 0x9D3 JUMP JUMPDEST JUMPDEST PUSH2 0xA72 DUP3 PUSH2 0x9C2 JUMP JUMPDEST SWAP1 POP PUSH1 0x20 DUP2 ADD SWAP1 POP SWAP2 SWAP1 POP JUMP JUMPDEST DUP3 DUP2 DUP4 CALLDATACOPY PUSH1 0x0 DUP4 DUP4 ADD MSTORE POP POP POP JUMP JUMPDEST PUSH1 0x0 PUSH2 0xAA1 PUSH2 0xA9C DUP5 PUSH2 0xA4E JUMP JUMPDEST PUSH2 0xA33 JUMP JUMPDEST SWAP1 POP DUP3 DUP2 MSTORE PUSH1 0x20 DUP2 ADD DUP5 DUP5 DUP5 ADD GT ISZERO PUSH2 0xABD JUMPI PUSH2 0xABC PUSH2 0x9BD JUMP JUMPDEST JUMPDEST PUSH2 0xAC8 DUP5 DUP3 DUP6 PUSH2 0xA7F JUMP JUMPDEST POP SWAP4 SWAP3 POP POP POP JUMP JUMPDEST PUSH1 0x0 DUP3 PUSH1 0x1F DUP4 ADD SLT PUSH2 0xAE5 JUMPI PUSH2 0xAE4 PUSH2 0x9B8 JUMP JUMPDEST JUMPDEST DUP2 CALLDATALOAD PUSH2 0xAF5 DUP5 DUP3 PUSH1 0x20 DUP7 ADD PUSH2 0xA8E JUMP JUMPDEST SWAP2 POP POP SWAP3 SWAP2 POP POP JUMP JUMPDEST PUSH1 0x0 DUP1 PUSH1 0x0 PUSH1 0x60 DUP5 DUP7 SUB SLT ISZERO PUSH2 0xB17 JUMPI PUSH2 0xB16 PUSH2 0x818 JUMP JUMPDEST JUMPDEST PUSH1 0x0 PUSH2 0xB25 DUP7 DUP3 DUP8 ADD PUSH2 0x91F JUMP JUMPDEST SWAP4 POP POP PUSH1 0x20 PUSH2 0xB36 DUP7 DUP3 DUP8 ADD PUSH2 0x8A1 JUMP JUMPDEST SWAP3 POP POP PUSH1 0x40 DUP5 ADD CALLDATALOAD PUSH8 0xFFFFFFFFFFFFFFFF DUP2 GT ISZERO PUSH2 0xB57 JUMPI PUSH2 0xB56 PUSH2 0x81D JUMP JUMPDEST JUMPDEST PUSH2 0xB63 DUP7 DUP3 DUP8 ADD PUSH2 0xAD0 JUMP JUMPDEST SWAP2 POP POP SWAP3 POP SWAP3 POP SWAP3 JUMP JUMPDEST PUSH1 0x0 DUP2 MLOAD SWAP1 POP SWAP2 SWAP1 POP JUMP JUMPDEST PUSH1 0x0 DUP3 DUP3 MSTORE PUSH1 0x20 DUP3 ADD SWAP1 POP SWAP3 SWAP2 POP POP JUMP JUMPDEST PUSH1 0x0 JUMPDEST DUP4 DUP2 LT ISZERO PUSH2 0xBA7 JUMPI DUP1 DUP3 ADD MLOAD DUP2 DUP5 ADD MSTORE PUSH1 0x20 DUP2 ADD SWAP1 POP PUSH2 0xB8C JUMP JUMPDEST DUP4 DUP2 GT ISZERO PUSH2 0xBB6 JUMPI PUSH1 0x0 DUP5 DUP5 ADD MSTORE JUMPDEST POP POP POP POP JUMP JUMPDEST PUSH1 0x0 PUSH2 0xBC7 DUP3 PUSH2 0xB6D JUMP JUMPDEST PUSH2 0xBD1 DUP2 DUP6 PUSH2 0xB78 JUMP JUMPDEST SWAP4 POP PUSH2 0xBE1 DUP2 DUP6 PUSH1 0x20 DUP7 ADD PUSH2 0xB89 JUMP JUMPDEST PUSH2 0xBEA DUP2 PUSH2 0x9C2 JUMP JUMPDEST DUP5 ADD SWAP2 POP POP SWAP3 SWAP2 POP POP JUMP JUMPDEST PUSH1 0x0 PUSH1 0x20 DUP3 ADD SWAP1 POP DUP2 DUP2 SUB PUSH1 0x0 DUP4 ADD MSTORE PUSH2 0xC0F DUP2 DUP5 PUSH2 0xBBC JUMP JUMPDEST SWAP1 POP SWAP3 SWAP2 POP POP JUMP JUMPDEST PUSH1 0x0 DUP3 DUP3 MSTORE PUSH1 0x20 DUP3 ADD SWAP1 POP SWAP3 SWAP2 POP POP JUMP JUMPDEST PUSH32 0x596F7520617265206E6F7420746865206F776E65722C2061626F7274696E6721 PUSH1 0x0 DUP3 ADD MSTORE POP JUMP JUMPDEST PUSH1 0x0 PUSH2 0xC5E PUSH1 0x20 DUP4 PUSH2 0xC17 JUMP JUMPDEST SWAP2 POP PUSH2 0xC69 DUP3 PUSH2 0xC28 JUMP JUMPDEST PUSH1 0x20 DUP3 ADD SWAP1 POP SWAP2 SWAP1 POP JUMP JUMPDEST PUSH1 0x0 PUSH1 0x20 DUP3 ADD SWAP1 POP DUP2 DUP2 SUB PUSH1 0x0 DUP4 ADD MSTORE PUSH2 0xC8D DUP2 PUSH2 0xC51 JUMP JUMPDEST SWAP1 POP SWAP2 SWAP1 POP JUMP JUMPDEST PUSH32 0x596F7520617265206E6F20677561726469616E2C2061626F7274696E67000000 PUSH1 0x0 DUP3 ADD MSTORE POP JUMP JUMPDEST PUSH1 0x0 PUSH2 0xCCA PUSH1 0x1D DUP4 PUSH2 0xC17 JUMP JUMPDEST SWAP2 POP PUSH2 0xCD5 DUP3 PUSH2 0xC94 JUMP JUMPDEST PUSH1 0x20 DUP3 ADD SWAP1 POP SWAP2 SWAP1 POP JUMP JUMPDEST PUSH1 0x0 PUSH1 0x20 DUP3 ADD SWAP1 POP DUP2 DUP2 SUB PUSH1 0x0 DUP4 ADD MSTORE PUSH2 0xCF9 DUP2 PUSH2 0xCBD JUMP JUMPDEST SWAP1 POP SWAP2 SWAP1 POP JUMP JUMPDEST PUSH32 0x43616E27742073656E64206D6F7265207468616E2074686520636F6E74726163 PUSH1 0x0 DUP3 ADD MSTORE PUSH32 0x74206F776E732C2061626F7274696E672E000000000000000000000000000000 PUSH1 0x20 DUP3 ADD MSTORE POP JUMP JUMPDEST PUSH1 0x0 PUSH2 0xD5C PUSH1 0x31 DUP4 PUSH2 0xC17 JUMP JUMPDEST SWAP2 POP PUSH2 0xD67 DUP3 PUSH2 0xD00 JUMP JUMPDEST PUSH1 0x40 DUP3 ADD SWAP1 POP SWAP2 SWAP1 POP JUMP JUMPDEST PUSH1 0x0 PUSH1 0x20 DUP3 ADD SWAP1 POP DUP2 DUP2 SUB PUSH1 0x0 DUP4 ADD MSTORE PUSH2 0xD8B DUP2 PUSH2 0xD4F JUMP JUMPDEST SWAP1 POP SWAP2 SWAP1 POP JUMP JUMPDEST PUSH32 0x596F7520617265206E6F7420616C6C6F77656420746F2073656E6420616E7920 PUSH1 0x0 DUP3 ADD MSTORE PUSH32 0x7472616E73616374696F6E732C2061626F7274696E6700000000000000000000 PUSH1 0x20 DUP3 ADD MSTORE POP JUMP JUMPDEST PUSH1 0x0 PUSH2 0xDEE PUSH1 0x36 DUP4 PUSH2 0xC17 JUMP JUMPDEST SWAP2 POP PUSH2 0xDF9 DUP3 PUSH2 0xD92 JUMP JUMPDEST PUSH1 0x40 DUP3 ADD SWAP1 POP SWAP2 SWAP1 POP JUMP JUMPDEST PUSH1 0x0 PUSH1 0x20 DUP3 ADD SWAP1 POP DUP2 DUP2 SUB PUSH1 0x0 DUP4 ADD MSTORE PUSH2 0xE1D DUP2 PUSH2 0xDE1 JUMP JUMPDEST SWAP1 POP SWAP2 SWAP1 POP JUMP JUMPDEST PUSH32 0x596F752061726520747279696E6720746F2073656E64206D6F7265207468616E PUSH1 0x0 DUP3 ADD MSTORE PUSH32 0x20796F752061726520616C6C6F77656420746F2C2061626F7274696E67000000 PUSH1 0x20 DUP3 ADD MSTORE POP JUMP JUMPDEST PUSH1 0x0 PUSH2 0xE80 PUSH1 0x3D DUP4 PUSH2 0xC17 JUMP JUMPDEST SWAP2 POP PUSH2 0xE8B DUP3 PUSH2 0xE24 JUMP JUMPDEST PUSH1 0x40 DUP3 ADD SWAP1 POP SWAP2 SWAP1 POP JUMP JUMPDEST PUSH1 0x0 PUSH1 0x20 DUP3 ADD SWAP1 POP DUP2 DUP2 SUB PUSH1 0x0 DUP4 ADD MSTORE PUSH2 0xEAF DUP2 PUSH2 0xE73 JUMP JUMPDEST SWAP1 POP SWAP2 SWAP1 POP JUMP JUMPDEST PUSH32 0x4E487B7100000000000000000000000000000000000000000000000000000000 PUSH1 0x0 MSTORE PUSH1 0x11 PUSH1 0x4 MSTORE PUSH1 0x24 PUSH1 0x0 REVERT JUMPDEST PUSH1 0x0 PUSH2 0xEF0 DUP3 PUSH2 0x880 JUMP JUMPDEST SWAP2 POP PUSH2 0xEFB DUP4 PUSH2 0x880 JUMP JUMPDEST SWAP3 POP DUP3 DUP3 LT ISZERO PUSH2 0xF0E JUMPI PUSH2 0xF0D PUSH2 0xEB6 JUMP JUMPDEST JUMPDEST DUP3 DUP3 SUB SWAP1 POP SWAP3 SWAP2 POP POP JUMP JUMPDEST PUSH1 0x0 DUP2 SWAP1 POP SWAP3 SWAP2 POP POP JUMP JUMPDEST PUSH1 0x0 PUSH2 0xF2F DUP3 PUSH2 0xB6D JUMP JUMPDEST PUSH2 0xF39 DUP2 DUP6 PUSH2 0xF19 JUMP JUMPDEST SWAP4 POP PUSH2 0xF49 DUP2 DUP6 PUSH1 0x20 DUP7 ADD PUSH2 0xB89 JUMP JUMPDEST DUP1 DUP5 ADD SWAP2 POP POP SWAP3 SWAP2 POP POP JUMP JUMPDEST PUSH1 0x0 PUSH2 0xF61 DUP3 DUP5 PUSH2 0xF24 JUMP JUMPDEST SWAP2 POP DUP2 SWAP1 POP SWAP3 SWAP2 POP POP JUMP JUMPDEST PUSH32 0x5472616E73616374696F6E206661696C65642C2061626F7274696E6700000000 PUSH1 0x0 DUP3 ADD MSTORE POP JUMP JUMPDEST PUSH1 0x0 PUSH2 0xFA2 PUSH1 0x1C DUP4 PUSH2 0xC17 JUMP JUMPDEST SWAP2 POP PUSH2 0xFAD DUP3 PUSH2 0xF6C JUMP JUMPDEST PUSH1 0x20 DUP3 ADD SWAP1 POP SWAP2 SWAP1 POP JUMP JUMPDEST PUSH1 0x0 PUSH1 0x20 DUP3 ADD SWAP1 POP DUP2 DUP2 SUB PUSH1 0x0 DUP4 ADD MSTORE PUSH2 0xFD1 DUP2 PUSH2 0xF95 JUMP JUMPDEST SWAP1 POP SWAP2 SWAP1 POP JUMP INVALID LOG2 PUSH5 0x6970667358 0x22 SLT KECCAK256 PUSH15 0x7B2E3625D931BE43B5315E077AF5D6 CODESIZE 0xC6 JUMPI 0xE3 0x22 BASEFEE 0x22 CALLCODE 0x4A 0xBE XOR 0xE4 0xC 0xDB PUSH3 0x916473 PUSH16 0x6C634300080F00330000000000000000 "
				},
				"gasEstimates": {
					"creation": {
						"codeDepositCost": "822000",
						"executionCost": "25123",
						"totalCost": "847123"
					},
					"external": {
						"denySending(address)": "27001",
						"newOwnerfunc(address)": "57661",
						"owner()": "2555",
						"setAllowance(address,uint256)": "49334",
						"transfer(address,uint256,bytes)": "infinite"
					}
				},
				"methodIdentifiers": {
					"denySending(address)": "7673de53",
					"newOwnerfunc(address)": "6fe9dc71",
					"owner()": "8da5cb5b",
					"setAllowance(address,uint256)": "310ec4a7",
					"transfer(address,uint256,bytes)": "be45fd62"
				}
			},
			"storageLayout": {
				"storage": [
					{
						"astId": 3,
						"contract": "contracts/FullWallet.sol:Wallet",
						"label": "owner",
						"offset": 0,
						"slot": "0",
						"type": "t_address_payable"
					},
					{
						"astId": 5,
						"contract": "contracts/FullWallet.sol:Wallet",
						"label": "nextOwner",
						"offset": 0,
						"slot": "1",
						"type": "t_address_payable"
					},
					{
						"astId": 9,
						"contract": "contracts/FullWallet.sol:Wallet",
						"label": "guardian",
						"offset": 0,
						"slot": "2",
						"type": "t_mapping(t_address,t_bool)"
					},
					{
						"astId": 13,
						"contract": "contracts/FullWallet.sol:Wallet",
						"label": "allowance",
						"offset": 0,
						"slot": "3",
						"type": "t_mapping(t_address,t_uint256)"
					},
					{
						"astId": 17,
						"contract": "contracts/FullWallet.sol:Wallet",
						"label": "allowtoTransfer",
						"offset": 0,
						"slot": "4",
						"type": "t_mapping(t_address,t_bool)"
					},
					{
						"astId": 19,
						"contract": "contracts/FullWallet.sol:Wallet",
						"label": "guardiansResetCount",
						"offset": 0,
						"slot": "5",
						"type": "t_uint256"
					}
				],
				"types": {
					"t_address": {
						"encoding": "inplace",
						"label": "address",
						"numberOfBytes": "20"
					},
					"t_address_payable": {
						"encoding": "inplace",
						"label": "address payable",
						"numberOfBytes": "20"
					},
					"t_bool": {
						"encoding": "inplace",
						"label": "bool",
						"numberOfBytes": "1"
					},
					"t_mapping(t_address,t_bool)": {
						"encoding": "mapping",
						"key": "t_address",
						"label": "mapping(address => bool)",
						"numberOfBytes": "32",
						"value": "t_bool"
					},
					"t_mapping(t_address,t_uint256)": {
						"encoding": "mapping",
						"key": "t_address",
						"label": "mapping(address => uint256)",
						"numberOfBytes": "32",
						"value": "t_uint256"
					},
					"t_uint256": {
						"encoding": "inplace",
						"label": "uint256",
						"numberOfBytes": "32"
					}
				}
			},
			"userdoc": {
				"kind": "user",
				"methods": {},
				"version": 1
			}
		}
	}
}