{
	"data": {
		"bytecode": {
			"linkReferences": {},
			"object": "608060405234801561001057600080fd5b50610187806100206000396000f3fe608060405234801561001057600080fd5b506004361061002b5760003560e01c8063f442a72f14610030575b600080fd5b61003861003a565b005b6040517f3068a42d00000000000000000000000000000000000000000000000000000000815260040161006c9061011e565b60405180910390fd5b600082825260208201905092915050565b7f4572726f722063616c6c2069742066756e6374696f6e00000000000000000000600082015250565b60006100bc601683610075565b91506100c782610086565b602082019050919050565b7f4572726f722063616c6c2069742066756e6374696f6e32000000000000000000600082015250565b6000610108601783610075565b9150610113826100d2565b602082019050919050565b60006040820190508181036000830152610137816100af565b9050818103602083015261014a816100fb565b905091905056fea26469706673582212206d1d2106f32ab5961e16f0db6125ae468faf8b76cbfb3581411245be11ab326564736f6c634300080f0033",
			"opcodes": "PUSH1 0x80 PUSH1 0x40 MSTORE CALLVALUE DUP1 ISZERO PUSH2 0x10 JUMPI PUSH1 0x0 DUP1 REVERT JUMPDEST POP PUSH2 0x187 DUP1 PUSH2 0x20 PUSH1 0x0 CODECOPY PUSH1 0x0 RETURN INVALID PUSH1 0x80 PUSH1 0x40 MSTORE CALLVALUE DUP1 ISZERO PUSH2 0x10 JUMPI PUSH1 0x0 DUP1 REVERT JUMPDEST POP PUSH1 0x4 CALLDATASIZE LT PUSH2 0x2B JUMPI PUSH1 0x0 CALLDATALOAD PUSH1 0xE0 SHR DUP1 PUSH4 0xF442A72F EQ PUSH2 0x30 JUMPI JUMPDEST PUSH1 0x0 DUP1 REVERT JUMPDEST PUSH2 0x38 PUSH2 0x3A JUMP JUMPDEST STOP JUMPDEST PUSH1 0x40 MLOAD PUSH32 0x3068A42D00000000000000000000000000000000000000000000000000000000 DUP2 MSTORE PUSH1 0x4 ADD PUSH2 0x6C SWAP1 PUSH2 0x11E JUMP JUMPDEST PUSH1 0x40 MLOAD DUP1 SWAP2 SUB SWAP1 REVERT JUMPDEST PUSH1 0x0 DUP3 DUP3 MSTORE PUSH1 0x20 DUP3 ADD SWAP1 POP SWAP3 SWAP2 POP POP JUMP JUMPDEST PUSH32 0x4572726F722063616C6C2069742066756E6374696F6E00000000000000000000 PUSH1 0x0 DUP3 ADD MSTORE POP JUMP JUMPDEST PUSH1 0x0 PUSH2 0xBC PUSH1 0x16 DUP4 PUSH2 0x75 JUMP JUMPDEST SWAP2 POP PUSH2 0xC7 DUP3 PUSH2 0x86 JUMP JUMPDEST PUSH1 0x20 DUP3 ADD SWAP1 POP SWAP2 SWAP1 POP JUMP JUMPDEST PUSH32 0x4572726F722063616C6C2069742066756E6374696F6E32000000000000000000 PUSH1 0x0 DUP3 ADD MSTORE POP JUMP JUMPDEST PUSH1 0x0 PUSH2 0x108 PUSH1 0x17 DUP4 PUSH2 0x75 JUMP JUMPDEST SWAP2 POP PUSH2 0x113 DUP3 PUSH2 0xD2 JUMP JUMPDEST PUSH1 0x20 DUP3 ADD SWAP1 POP SWAP2 SWAP1 POP JUMP JUMPDEST PUSH1 0x0 PUSH1 0x40 DUP3 ADD SWAP1 POP DUP2 DUP2 SUB PUSH1 0x0 DUP4 ADD MSTORE PUSH2 0x137 DUP2 PUSH2 0xAF JUMP JUMPDEST SWAP1 POP DUP2 DUP2 SUB PUSH1 0x20 DUP4 ADD MSTORE PUSH2 0x14A DUP2 PUSH2 0xFB JUMP JUMPDEST SWAP1 POP SWAP2 SWAP1 POP JUMP INVALID LOG2 PUSH5 0x6970667358 0x22 SLT KECCAK256 PUSH14 0x1D2106F32AB5961E16F0DB6125AE CHAINID DUP16 0xAF DUP12 PUSH23 0xCBFB3581411245BE11AB326564736F6C634300080F0033 "
		},
		"gasEstimates": {
			"creation": {
				"codeDepositCost": "78200",
				"executionCost": "129",
				"totalCost": "78329"
			},
			"external": {
				"aError()": "infinite"
			}
		},
		"methodIdentifiers": {
			"aError()": "f442a72f"
		}
	},
	"abi": [
		{
			"inputs": [
				{
					"internalType": "string",
					"name": "",
					"type": "string"
				},
				{
					"internalType": "string",
					"name": "",
					"type": "string"
				}
			],
			"name": "CustomError",
			"type": "error"
		},
		{
			"inputs": [],
			"name": "aError",
			"outputs": [],
			"stateMutability": "pure",
			"type": "function"
		}
	]
}